:100000000C945B010C948C010C948C010C948C016D
:100010000C948C010C948C010C948C010C948C012C
:100020000C948C010C948C010C948C010C948C011C
:100030000C948C010C948C010C948C010C948C010C
:100040000C948C010C94331C0C948C010C948C013A
:100050000C948C010C948C010C948C010C945F1BFF
:100060000C948C010C94351B0C940B1B0C948C0180
:100070000C948C010C948C010C948C010C948C01CC
:100080000C94051C0C948C010C948C010C948C0128
:100090000C94E11A0C94B71A0C948C010C94611C0A
:1000A0000C948C010C948C010C94D71B0C948C0137
:1000B0000C948C010C948C010C948C010C94A91B55
:1000C0000C948C010C948C010C948C010C948D1A62
:1000D0000C94631A0C948C010C94391A0C940F1A1A
:1000E0000C948C010C9436030C94D9110C94E103FC
:1000F0000C9493020C94B2060C94B9060C94E5038C
:100100000C9490060C949F060C94390F0C941C02CE
:100110000C9435130C9471020C9485020C94AB036F
:100120000C94851D0C940C020C94C2030C94F303E4
:100130000C94CA030C94C9110C94E6060C940104A7
:100140000C94B0030C94E9020C94F6110C940D027B
:100150000C94C5130C9450270C948F060C94FC0738
:100160000C94A9110C94FD030C94A0110C94620240
:100170000C940B020C94CE030C94D7030C94D10373
:100180000C942B130C943F110C94E9030C94EF0383
:100190000C94F7030C94C6030C94DB037C3C3E5E8A
:1001A0002B3D3F2F5B5D3B2C2A225C0000000A0B9D
:1001B00002090C0D0E0807030401000000000000F6
:1001C000000000000000000000000000000000002F
:1001D00000000000000000001211100000000000EC
:1001E000000000000000000000000000000000000F
:1001F000000000002200250028002B002E00310006
:10020000340002010000050108010B01000021007B
:10021000240027002A002D003000330001010000D7
:10022000040107010A010505050507050808080876
:10023000020202020A0A080804040404010101017E
:100240000101010103030303030303030407070779
:100250000C0C0C0C0C0C0C0C02020202060606061E
:10026000060606060B0B0B0B0B0B0B0B01021020EB
:1002700020080810204010204080020102010804DC
:100280000201010204081020408080402010080470
:1002900002018004020180402010080402010804C9
:1002A000020101020408102040800102040810200D
:1002B0004080851D502711241FBECFEFD1E2DEBF45
:1002C000CDBF00E00CBF13E0A0E0B2E0EEEFF4E53C
:1002D00000E00BBF02C007900D92AA37B107D9F713
:1002E0002AE0AAE7B3E001C01D92A831B207E1F706
:1002F00011E0CAE5D1E000E006C021970109802F96
:10030000FE010E941F28C935D10780E00807A9F720
:100310000E94B91E0C946D2A0C940000FC01A08967
:10032000B18982E08C93A485B5851C92A685B7859A
:100330008FEC8C93108EA489B58986E08C93A2896A
:10034000B3898C9180618C93A289B3898C918860E8
:100350008C93A289B3898C9180688C930288F389ED
:10036000E02D80818F7D80830895CF93DF93FC0102
:10037000828193819093AE098093AD0984819581A8
:10038000A681B7818093AF099093B009A093B1097A
:10039000B093B20980859185A285B3858093B30916
:1003A0009093B409A093B509B093B609DF011C96E8
:1003B000CF014996C7EBD9E02D912993A817B9072A
:1003C000D9F7818D928D9093C5098093C4098BEAEA
:1003D00099E0DF91CF91089590E0FC01E459FD4F41
:1003E00024918A5D9D4FFC018491882399F090E0CF
:1003F000880F991FFC01E45FFD4FA591B491FC01AA
:10040000EE50FE4F859194918FB7F894EC91E22BCA
:10041000EC938FBF0895089508950895DB01149615
:100420004D915C9115976D917C91DC01ED91FC9162
:100430000280F381E02D1994AF92BF92CF92DF92A8
:10044000EF92FF920F931F93CF93DF936C017B0189
:100450008B01040F151FEB015E01AE18BF08C0171A
:10046000D10759F06991D601ED91FC910190F0818D
:10047000E02DC6011995892B79F7C501DF91CF9140
:100480001F910F91FF90EF90DF90CF90BF90AF90B2
:100490000895FC01A089B1898C91A689B78982FD54
:1004A0000FC09C91818D8F5F8F73228D821749F0D1
:1004B000A18DAE0FBF2FB11D5D969C93818F0895C6
:1004C0008C910895FC01538D448D252F30E0842FAD
:1004D00090E0821B930B541710F0CF96089501976C
:1004E0000895FC01918D828D981761F0A28DAE0F59
:1004F000BF2FB11D5D968C91928D9F5F9F73928FE0
:1005000090E008958FEF9FEF0895FC01918D828D0B
:10051000981731F0828DE80FF11D858D90E00895D8
:100520008FEF9FEF0895FC01918D228D892F90E030
:10053000805C9F4F821B91098F739927089580EEED
:1005400096E00E94930221E0892B09F420E0822F9B
:1005500008958DE797E00E94930221E0892B09F42A
:1005600020E0822F08958AE198E00E94930221E022
:10057000892B09F420E0822F089587EB98E00E94F0
:10058000930221E0892B09F420E0822F0895FC01D9
:10059000A48DA80FB92FB11DA35ABF4F2C91848DE4
:1005A00090E001968F739927848FA689B7892C9341
:1005B000A089B1898C91837080648C93938D848D94
:1005C000981306C00288F389E02D80818F7D808397
:1005D0000895EF92FF920F931F93CF93DF93EC0157
:1005E00081E0888F9B8D8C8D98131AC0E889F989DA
:1005F000808185FF15C09FB7F894EE89FF896083DD
:10060000E889F98980818370806480839FBF81E05D
:1006100090E0DF91CF911F910F91FF90EF9008959F
:10062000F62E0B8D10E00F5F1F4F0F731127E02E7A
:100630008C8D8E110CC00FB607FCFACFE889F989B2
:10064000808185FFF5CFCE010E94C702F1CFEB8DEF
:10065000EC0FFD2FF11DE35AFF4FF0829FB7F89486
:100660000B8FEA89FB8980818062CFCFCF93DF93A4
:10067000EC01888D8823B9F0AA89BB89E889F989BA
:100680008C9185FD03C0808186FD0DC00FB607FCEF
:10069000F7CF8C9185FFF2CF808185FFEDCFCE0122
:1006A0000E94C702E9CFDF91CF91089580E090E0EA
:1006B000892B29F00E94BD0281110E94000080E078
:1006C00090E0892B29F00E94B30281110E94000062
:1006D00080E090E0892B29F00E94A90281110E94FC
:1006E000000080E090E0892B29F00E949F02811198
:1006F0000C9400000895282F30E0F901E455FE4FD6
:100700009491F901E459FD4F44912A5D3D4FF9015F
:100710002491222309F435C0992311F1915092318B
:10072000F8F4E92FF0E08827E756FC4F8F4F0C9440
:100730001F28CA03CE03AB03C203C603B003D10311
:10074000D703DB03E103E503E903EF03F303B0039E
:10075000F703FD030104809180008F778093800070
:10076000E22FF0E0EE0FFF1FEE50FE4FA591B49187
:100770008FB7F894EC91611148C040954E234C938B
:100780008FBF0895809180008F7DE8CF8091800099
:10079000877FE4CF84B58F7784BDE2CF84B58F7D2A
:1007A000FBCF8091B0008F778093B000D9CF80913C
:1007B000B0008F7DF9CF809190008F77809390006B
:1007C000CFCF809190008F7DF9CF80919000877F6F
:1007D000F5CF8091A0008F778093A000C1CF80914A
:1007E000A0008F7DF9CF8091A000877FF5CF809109
:1007F00020018F7780932001B3CF809120018F7DDE
:10080000F9CF80912001877FF5CF4E2BB8CF3FB72E
:10081000F8948091CD049091CE04A091CF04B09132
:10082000D00426B5A89B05C02F3F19F00196A11D45
:10083000B11D3FBFBA2FA92F982F8827BC01CD012A
:10084000620F711D811D911D42E0660F771F881F89
:10085000991F4A95D1F708958F929F92AF92BF92B8
:10086000CF92DF92EF92FF924B015C010E9407044E
:100870006B017C010E9407046C197D098E099F0998
:10088000683E734081059105A8F321E0821A910822
:10089000A108B10888EEC80E83E0D81EE11CF11C47
:1008A00081149104A104B10429F7FF90EF90DF9027
:1008B000CF90BF90AF909F908F9008952FB7F894EE
:1008C0006091C9047091CA048091CB049091CC04CA
:1008D0002FBF08958F929F92AF92BF92FF920F9376
:1008E0001F93CF93DF93FC01F0808FE28F1508F404
:1008F0004AC0828108E512E0081B110987FD1395A3
:10090000000F111F000F111F8181C8E8D0E0C81B24
:10091000D10987FDD395CC0FDD1FCC0FDD1F4E0114
:100920000D2E000CAA08BB089801012E000C440BE8
:10093000550B281939094A095B09DB010E94DA279E
:1009400024EB30E040E050E00E94B027820E931E7E
:10095000A41EB51E8C169D062CF0E801801691068B
:100960000CF4E4012297CC0FDD1F2FB7F8948F2DE4
:1009700090E0FC01EE0FFF1FE80FF91FE85CFB4F52
:10098000D283C1832FBFDF91CF911F910F91FF9031
:10099000BF90AF909F908F9008951F93CF93DF9358
:1009A000EC01162F8881803308F04DC0862F0E94FD
:1009B000EC018881282F30E0F901EE0FFF1FE20FD4
:1009C000F31FE85CFB4F1F736081607C612B6083C9
:1009D00019821A822CE0622F0E941328829FB00194
:1009E000112430E020E0AB01420F531FFA01EE0F5B
:1009F000FF1FE40FF51FE85CFB4F908196FD16C0CA
:100A00002F5F3F4F2C30310571F7813009F510927F
:100A1000800082E080938100109285001092840013
:100A2000B19A80916F00826080936F00E8818E2F71
:100A300090E0FC01EE0FFF1FE80FF91FE85CFB4F91
:100A40008081806480838881DF91CF911F91089598
:100A5000823061F410929000809391001092950082
:100A60001092940088BB80937100E0CF833069F4CA
:100A70001092A00082E08093A1001092A500109235
:100A8000A40089BB80937200D1CF8111CFCF109287
:100A9000200182E08093210110922501109224010F
:100AA0008ABB80937300C2CFFC01909137049033CE
:100AB00098F481E0890F809337049083892F90E028
:100AC000FC01EE0FFF1FE80FF91FE85CFB4F88EBFE
:100AD0009BE09283818308958FEF80830895AF9286
:100AE000BF92CF92DF92EF92FF920F931F93CF931B
:100AF000DF936B017A01EC01CD5CDB4F28813CE098
:100B0000389F8001399F100D1124A0903704B12C1B
:100B100027FF1FC0FB011182108288818F5F8883AD
:100B200088819801280F311D87FD3A95F6012A1515
:100B30003B051CF488818C30C4F18081918104963E
:100B400080349C4908F473C0F60180819181049639
:100B500070C088819801280F311D87FD3A952A15AC
:100B60003B05DCF68881A801480F511D87FD5A9589
:100B7000FA01EE0FFF1FE40FF51FE85CFB4F8081C9
:100B800086FFCBCF8881F801E80FF11D87FDFA952C
:100B9000CF01EE0FFF1FE80FF91FE85CFB4F8081CC
:100BA00060E08F730E947B03B8CF808191812881A0
:100BB000A801420F511D27FD5A959A01FA01EE0F27
:100BC000FF1FE20FF31FE85CFB4F21813281820F90
:100BD000931FF7019183808388819801280F311D2D
:100BE00087FD3A95F901EE0FFF1FE20FF31FE85C56
:100BF000FB4F808186FF22C08881080F111D87FD71
:100C00001A95F801EE0FFF1FE00FF11FE85CFB4F94
:100C1000808161E08F73DF91CF911F910F91FF90E1
:100C2000EF90DF90CF90BF90AF900C947B0380E467
:100C30009CE9F701918380838FEF8883DF91CF91C7
:100C40001F910F91FF90EF90DF90CF90BF90AF90EA
:100C500008952091E903260F3327331F21323105F0
:100C6000ECF420910D04FC0190E080E0243069F068
:100C700082E00895A091E9032191AC0147535C4FB4
:100C8000A40FB52FB11D2C930196861798F3809170
:100C9000E903680F6093E90380E0089581E0089517
:100CA00010920D0481E080930F0410920E0461E015
:100CB00084E10E947B0361E085E10E947B03E9EB14
:100CC000F0E080818E7F808380818D7F808388E4C7
:100CD0008093B80085E48093BC000895CF93DF93A0
:100CE00091E09093C8038823B9F0C091B800D091E7
:100CF000BA008091BC008A7B8093BC0060E084E1F4
:100D00000E947B0360E085E10E947B030E94500605
:100D1000D093BA00C093B800DF91CF9108950895A1
:100D2000E091D8048091D704E81730F4F0E0ED5555
:100D3000FC4F808190E008958FEF9FEF0895909190
:100D4000D8048091D7042FEF3FEF981748F4E92F8C
:100D5000F0E0ED55FC4F208130E09F5F9093D80488
:100D6000C90108958091D7049091D804891B990BEB
:100D70000895CF92DF92EF92FF920F931F93CF933C
:100D8000DF937C01CB018A012091A203222389F009
:100D9000EB016B01C40ED51ECC15DD0569F0699120
:100DA000D701ED91FC910190F081E02DC7011995DB
:100DB000F3CF642F0E942906C801DF91CF911F91C4
:100DC0000F91FF90EF90DF90CF900895CF93DF9336
:100DD0001F92CDB7DEB769832091A2032223F9F0D9
:100DE0002091D504203258F021E030E0FC0133831B
:100DF000228390E080E00F90DF91CF910895809161
:100E0000D604E82FF0E0EE57FC4F998190838F5F76
:100E10008093D6048093D50481E090E0ECCF61E02C
:100E2000CE0101960E942906F7CFCF92DF92EF9272
:100E3000FF920F931F93CF93DF93FC01C48121E0B6
:100E40002093A203C09381031092D6041092D5047C
:100E50008385682B84E599E00E94E606D091D5044D
:100E6000D13208F092C00E9407046B017C0180918E
:100E70000D04811165C082E080930D0481E08093B0
:100E80000F048FEF80930C0410923104D093300440
:100E9000A2E8B3E0E0E1F4E080E0D81385C010926E
:100EA000320480913204CC0FC82BC093320480915D
:100EB0000E04813009F07CC010920E040E940704D9
:100EC0006B017C01809132048093BB008091C4034C
:100ED0009091C503A091C603B091C703892B8A2BBB
:100EE0008B2B99F00E9407040091C4031091C50355
:100EF0002091C6033091C7036C197D098E099F09A3
:100F00000617170728073907E0F18091BC0083FD19
:100F1000D9CF85EC8093BC000E9407046B017C0153
:100F200080910D04823009F445C080910C048F3FFC
:100F300061F180910C04803241F180910C0425C054
:100F40008091C4039091C503A091C603B091C703DB
:100F5000892B8A2B8B2B09F48ACF0E9407040091DE
:100F6000C4031091C5032091C6033091C7036C19C7
:100F70007D098E099F09061717072807390708F00A
:100F800076CF8091C3030E946E061092D604109211
:100F9000D5041092A203DF91CF911F910F91FF9082
:100FA000EF90DF90CF9008959D9191938F5F75CFD3
:100FB00085EEB0CF8091C4039091C503A091C60384
:100FC000B091C703892B8A2B8B2B09F4A9CF0E94E0
:100FD00007040091C4031091C5032091C60330910A
:100FE000C7036C197D098E099F0906171707280783
:100FF000390708F095CFC5CF90E080E008958FB70E
:10100000F89480917B038FBF089561E0FC01848197
:101010000E947B0380917A03811110927A030895D4
:101020008EBD00000DB407FEFDCF8EB508958FEF85
:101030000C9410080F931F93CF93DF93EC010E9441
:101040005E048B010E9417088F3F69F00E945E04C6
:10105000601B710B6C177D07A8F380E0DF91CF91C7
:101060001F910F91089581E0F9CF8CBD9DBD08952A
:10107000CF93DF93EC0180917A03811109C081E065
:1010800080937A0380916009909161090E943508EC
:1010900060E08C81DF91CF910C947B038F929F92C3
:1010A000AF92BF92FF920F931F93CF93DF93EC0108
:1010B000F62E49015A018E81882389F08F81988507
:1010C0009C012F5F3F4F38872F838230924018F466
:1010D0000E941708F3CFCE010E9405081E82CE01A0
:1010E0000E9438088CE291E00E941A088F2D8064DB
:1010F0000E94100808E110E0D501C401002E04C0D0
:10110000B695A795979587950A94D2F70E941008EF
:1011100008501109083F8FEF180771F785E9FF2084
:1011200021F028E087E8F2128FEF0E94100810E00B
:101130000E9417088A8787FF04C01F3F11F01F5FB6
:10114000F7CFDF91CF911F910F91FF90BF90AF909C
:101150009F908F900895AF92BF92CF92DF92EF92BF
:10116000FF920F931F93CF93DF93EC016901C801A6
:10117000820F931F8130924050F58E81882379F041
:1011800088819981AA81BB8184179507A607B70733
:1011900031F48F819885C816D90608F042C048837B
:1011A00059836A837B838B85833039F089E0440FD0
:1011B000551F661F771F8A95D1F79A01AB0161E130
:1011C000CE010E944E08882389F083E08D83CE01F2
:1011D0000E94050880E0DF91CF911F910F91FF9051
:1011E000EF90DF90CF90BF90AF9008950E945E0483
:1011F0005B010E9417088A878F3F69F40E945E0492
:101200006A197B096D327140A0F38FE08D83CE01A6
:101210000E940508DCCF8E3F89F418861F8281E08A
:101220008E838F8198858C159D0550F40E94170838
:101230008F819885019698878F83F3CF8DE0E6CFD5
:101240006701E00EF11E0E941708F60181936F01FD
:10125000EE15FF05C1F78F819885080F191F1887B4
:101260000F838985882319F001151240A0F08E8123
:10127000882389F08F8198859C012F5F3F4F3887A5
:101280002F838230924018F40E941708F3CFCE01CA
:101290000E9405081E8281E09ECFCF92DF92EF92DE
:1012A000FF920F93CF93DF93EC01690182E1411527
:1012B00051056105710599F08B85833039F089E01E
:1012C000440F551F661F771F8A95D1F79A01AB010E
:1012D00068E1CE010E944E08882319F084E08D83D6
:1012E0002DC08EEF0E94100876018EEFD81AF701FC
:1012F00081917F010E941008EC14FD04C1F78FEF6B
:101300000E9410088FEF0E9410080E9417088A8719
:101310008F71853071F4011116C0CE010E9405084D
:1013200081E0DF91CF910F91FF90EF90DF90CF9010
:10133000089581E18D83CE010E940508CE010E94AF
:10134000050880E0EECF88E592E00E941A0881113E
:1013500002C085E1C4CF20E030E0A9016DE0CE01FC
:101360000E944E08882311F084E1B9CF0E9417082B
:101370008111FACFD2CF0F9340917D0350917E031C
:1013800060917F03709180034115510561057105DE
:1013900099F0082F2EED34E08091DE069091DF0663
:1013A0000E944D09882349F010927D0310927E031C
:1013B00010927F031092800381E00F9108950F93A4
:1013C000CF93C82F80917C03811105C0C1E08C2F81
:1013D000CF910F91089540910002509101026091C8
:1013E0000202709103020C2F2EED34E08091DE0694
:1013F0009091DF060E944D09811102C0C0E0E7CF45
:10140000CC2321F381E00E94BB098823B9F3109219
:101410007C03DDCF8F929F92AF92BF92EF92FF92AB
:101420000F931F93CF934B015C01C42F8091000257
:1014300090910102A0910202B091030288159905D2
:10144000AA05BB0551F181E00E94DF0981110BC0A3
:1014500080E0CF911F910F91FF90EF90BF90AF90E0
:101460009F908F9008958EEDE82E84E0F82E00E096
:1014700012E030E020E0B501A4018091DE069091F9
:10148000DF060E94AB08882319F380920002909235
:101490000102A0920202B092030240917C034C2B05
:1014A00040937C0381E0D5CF8F929F92AF92BF9201
:1014B000CF92DF92EF92FF92CF9322E639E0309302
:1014C000DF062093DE06882309F46DC040E060E06B
:1014D00070E0CB010E940A0A81110BC080E0CF911D
:1014E000FF90EF90DF90CF90BF90AF909F908F9044
:1014F000089580919C068F7789F78091A806909136
:10150000A906A091AA06B091AB0684369105A10563
:10151000B10520F3C090A406D090A506E090A606E1
:10152000F090A706C114D104E104F104B9F240E03F
:10153000C701B6010E940A0A882381F28091E9045A
:101540009091EA048115924049F6A091EE04AA23F5
:1015500029F26091EC047091ED046115710509F4B4
:10156000BDCF2091EB04222309F4B8CFA0938009CA
:101570002093720990E080E030E0E1E0F0E0C82FD5
:10158000AF01082E02C0440F551F0A94E2F724173A
:10159000350769F041E0480F01968930910579F7E8
:1015A00040937B099BCFC12CD12C7601C0CF809377
:1015B0007B092091F4043091F50450E040E02115BE
:1015C000310541F420910205309103054091040555
:1015D0005091050520937309309374094093750960
:1015E0005093760946015701860E971EA11CB11C27
:1015F0008092810990928209A0928309B092840915
:10160000E091EF04F091F004F0938709E0938609EC
:10161000B0E00E94CF27DC01CB01880D991DAA1DE7
:10162000BB1D8093880990938909A0938A09B09380
:101630008B0925E0EE0FFF1F2A95E1F7E150FE4FE1
:10164000EF2FFF27E6958E0F9F1FA11DB11D8093E1
:101650007C0990937D09A0937E09B0937F098090C7
:10166000F1049090F204B12CA12C8114910441F466
:101670008090FE049090FF04A0900005B0900105BA
:10168000C81AD90AEA0AFB0AC80CD91CEA1CFB1CB6
:1016900004C0F694E794D794C794CA95D2F7C09241
:1016A0007709D0927809E0927909F0927A0985EF6A
:1016B000C8168FE0D806E104F10428F48CE080938A
:1016C000850981E00CCF80E125EFC2162FEFD2060D
:1016D000E104F104A0F380910A0590910B05A0911B
:1016E0000C05B0910D058093880990938909A0930A
:1016F0008A09B0938B0980E2E2CF4F925F926F929A
:101700007F928F929F92AF92BF92CF92DF92EF9291
:10171000FF920F931F93CF93DF93EC01423051055B
:101720006105710590F480E0DF91CF911F910F91D9
:10173000FF90EF90DF90CF90BF90AF909F908F90F1
:101740007F906F905F904F90089589859A85AB85C3
:10175000BC850196A11DB11D84179507A607B70783
:1017600010F3CB88DC88ED88FE888F89803109F002
:1017700042C0BB27A72F962F852F480159012A0168
:101780003B01C80ED91EEA1EFB1E809100029091FB
:101790000102A0910202B0910302C816D906EA061E
:1017A000FB0699F58F898031C1F5B301A201552758
:1017B00066277727440F551F42525B4FFA019182EB
:1017C000808280917C03816080937C038A8982304F
:1017D00080F08D819E81AF81B8858C0D9D1DAE1DE1
:1017E000BF1D80937D0390937E03A0937F03B093EE
:1017F000800381E099CFDB01CA01E7E0B695A795A8
:1018000097958795EA95D1F7B8CF40E0C701B60123
:101810000E940A0A8111C6CF86CFB301A2014F7779
:10182000552766277727440F551F440F551F4252EF
:101830005B4FFA0180829182A282B382C2CF8F92E3
:101840009F92AF92BF92CF92DF92EF92FF920F934F
:101850001F93CF93DF93FC0181859285A385B48587
:101860000196A11DB11D84179507A607B70770F44F
:1018700080E0DF91CF911F910F91FF90EF90DF906B
:10188000CF90BF90AF909F908F9008958388948859
:10189000A588B6888789803189F5BB27A72F962F21
:1018A000852FE9016A017B018F01BC01CD01680D23
:1018B000791D8A1D9B1D8090000290900102A090CE
:1018C0000202B090030286169706A806B90601F533
:1018D000F8018789803111F5DD24EE24FF24F6011B
:1018E000EE0FFF1FE252FB4F80819181B0E0A0E03C
:1018F00088839983AA83BB8381E0BBCFDB01CA01C4
:10190000C7E0B695A79597958795CA95D1F7C9CFA2
:1019100040E00E940A0A8111DBCFAACFE894C7F801
:10192000DD24EE24FF24F601EE0FFF1FEE0FFF1F54
:10193000E252FB4F80819181A281B381BF70D8CFE9
:101940004F925F926F927F92AF92BF92CF92DF924F
:10195000EF92FF920F931F93CF93DF9300D01F92CC
:10196000CDB7DEB78C0149835A836B837C835901E1
:10197000C12CD12C7601412C82E0582E612C712C87
:1019800049815A816B817C819E012F5F3F4FC80145
:101990000E941F0C882339F1F8018585A30192016B
:1019A00004C0220F331F441F551F8A95D2F7DA0156
:1019B000C901C80ED91EEA1EFB1E49815A816B81DE
:1019C0007C818789803111F188EF9FEFAFEFBFE015
:1019D000481759076A077B0798F2F501C082D18240
:1019E000E282F38281E00F900F900F900F90DF91D1
:1019F000CF911F910F91FF90EF90DF90CF90BF900C
:101A0000AF907F906F905F904F90089588EF9FEF19
:101A1000A0E0B0E0DDCFCF93DF93FC01258122234E
:101A200021F080E0DF91CF910895EC01809185094C
:101A3000803159F582E08583178A108E118E128EBF
:101A40008091860990918709B0E0A0E025E0880F99
:101A5000991FAA1FBB1F2A95D1F7838B948BA58B47
:101A6000B68B8EE699E09C8F8B8F81E08C831E82F3
:101A70001F82188619861A861B861C861D861E865E
:101A80001F86188A198A1A8ACDCF803251F683E0D0
:101A90008583409188095091890960918A097091E4
:101AA0008B09478B508F618F728F9F012D5E3F4F47
:101AB0008EE699E00E94A00C8111D3CFB2CF8F9215
:101AC0009F92AF92BF92CF92DF92EF92FF920F93CD
:101AD0001F93CF93DF93EC018D8181110EC080E0C5
:101AE000DF91CF911F910F91FF90EF90DF90CF90FA
:101AF000BF90AF909F908F9008950B891C892D897E
:101B00003E89041715072607370748F34A015B018A
:101B1000823031F48A869B86AC86BD8681E0E0CF38
:101B200081149104A104B10449F41E821F82188615
:101B300019861A861B861C861D86F0CF0A851B8592
:101B40002C853D85EB8DFC8D858590E00996B9014E
:101B5000A8014150510961097109082E04C0769508
:101B60006795579547950A94D2F775016401E1E0AE
:101B7000CE1AD108E108F10804C0F694E794D7948E
:101B8000C7948A95D2F7C416D506E606F70620F064
:101B9000012B022B032B11F58F89988DA98DBA8DFE
:101BA0008E839F83A887B9878E010A5F1F4FC11458
:101BB000D104E104F10409F4ADCF4E815F81688561
:101BC000798598018B8D9C8D0E941F0C91E0C91A1C
:101BD000D108E108F1088111EACF81CFC41AD50AF2
:101BE000E60AF70AE1CF3F924F925F926F927F929F
:101BF0008F929F92AF92BF92CF92DF92EF92FF921D
:101C00000F931F93CF93DF93CDB7DEB72C970FB60B
:101C1000F894DEBF0FBECDBF5C01DC015B968D90FA
:101C20009C905C9716964D905D906D907C90199766
:101C3000411451046104710409F468C0BFEF4B1AE8
:101C40005B0A6B0A7B0A312CF40181859285A3859E
:101C5000B4859C01AD012F5F3F4F4F4F5F4F2987E8
:101C60003A874B875C87730162011D821E821F8247
:101C70001886F40181859285A385B4852D813E81E6
:101C80004F815885281739074A075B0708F056C067
:101C900089859A85AB85BC858C159D05AE05BF05EC
:101CA00050F482E0C82ED12CE12CF12C92E0492E88
:101CB000512C612C712C9E012F5F3F4FB701A60163
:101CC000C4010E941F0C8823C9F189819A81AB81CC
:101CD000BC81892B8A2B8B2B09F1260137019FEFC1
:101CE000491A590A690A790A2D813E814F8158851E
:101CF0002F5F3F4F4F4F5F4F2D833E834F8358875A
:101D00003FEFC31AD30AE30AF30AB3CFF4014080CA
:101D10005180628073803324339496CFC414D504E9
:101D2000E604F70409F70FEF1FEF2FEF3FE0B701CD
:101D3000A601C4010E947D0B811119C080E02C9680
:101D40000FB6F894DEBF0FBECDBFDF91CF911F91CC
:101D50000F91FF90EF90DF90CF90BF90AF909F904A
:101D60008F907F906F905F904F903F900895D50136
:101D700016964D915D916D917C9119974115510584
:101D80006105710539F097018601C4010E947D0B40
:101D90008823A1F2D5011696CD92DD92ED92FC92A8
:101DA0001997332051F0D701C6010196A11DB11D2D
:101DB000F40180839183A283B383F5018789908D99
:101DC000A18DB28D892B8A2B8B2B39F48481C78A04
:101DD000D08EE18EF28E80688483F50184818062EA
:101DE000848381E0ACCF1F93CF93DF93FC012581E7
:101DF0002223D1F1162FEC01848187FF2AC066854A
:101E000077858089918941E00E940A0A882361F1DF
:101E1000EA8980E2E89FF0011124E252FB4F3097FB
:101E200019F18D81823040F48B899C89AD89BE89FE
:101E3000848F958FA68FB78F8F89988D938F828F80
:101E40008F89988DA98DBA8DB58BA48B8C818F7756
:101E50008C83111103C08C818F7E8C83812FDF9145
:101E6000CF911F910C94DF0980E0DF91CF911F91FA
:101E70000895FF920F931F93CF93DF93EC018D8111
:101E8000813041F090E080E0DF91CF911F910F9180
:101E9000FF9008958C8181FFF5CF82FD1BC00091DA
:101EA000DE061091DF06C8010E9438080E9417085C
:101EB000F82EC8010E9405088FEFF812E3CF8C813D
:101EC00085FF1BC060E0CE010E94F30E8C818F7DE8
:101ED0008C83D8CF4B895C896D897E898A859B8567
:101EE000AC85BD8584179507A607B707C1F2CE015B
:101EF0000E945F0D8111D3CFC5CF40917D035091DA
:101F00007E0360917F0370918003452B462B472B06
:101F100021F080E00E94BB09B5CF80618C832A85C7
:101F20003B85317080E092E0821B930BADCFCF9365
:101F3000DF93EC0161E00E94F30E882311F01D8213
:101F400081E0DF91CF9108952F923F924F925F925F
:101F50006F927F928F929F92AF92BF92CF92DF92B9
:101F6000EF92FF920F931F93CF93DF9300D01F92B6
:101F70001F92CDB7DEB77C015B01342E5D83DC019F
:101F800015968C911597813009F0CEC014962C903F
:101F900021FECAC022FCB4C0C32CDD8022947FE0A5
:101FA00027222094B22DB1702B2ED7011A964D9175
:101FB0005D916D917C911D97C114D10409F428C1E4
:101FC0005B968D919C915C97FC0174807A948A0158
:101FD0009B0169E036952795179507956A95D1F786
:101FE00070228A011170711020C001151105E9F4E9
:101FF00016964D915D916D917C9119974115510502
:102000006105710509F099C057968D919D910D90CC
:10201000BC91A02D0097A105B10509F0B0C0C70182
:102020000E94F30D882309F47FC080E092E0801BBA
:10203000910B46018C159D0508F44C01D7015B9668
:102040004D915C915C9716968D919D910D90BC91F0
:10205000A02D0297A109B109FA01258504C0880FB6
:10206000991FAA1FBB1F2A95D2F7468557856089FD
:102070007189840F951FA61FB71F9C01AD01270D05
:10208000311D411D511D29013A01811432E0930691
:1020900009F07BC08091000290910102A0910202A0
:1020A000B091030284159505A605B70559F48FEF85
:1020B0009FEFDC018093000290930102A093020243
:1020C000B0930302022D9501B301A2018091DE06B7
:1020D0009091DF060E944D09882331F19EEFB91AD5
:1020E000C818D908F70182859385A485B585880D20
:1020F000991DA11DB11D82879387A487B58755CFF0
:10210000F701438954896589768982859385A485F9
:10211000B585481759076A077B0709F43DCFC70102
:102120000E945F0D811138CF81E090E0D7011396B6
:102130009C938E93129780E007C09E012F5F3F4FC4
:102140000E941F0C811102C090E079C089819A81A0
:10215000AB81BC81F701238D348DF901278948EFCC
:102160005FEF60E070E0203121F048EF5FEF6FEF4C
:102170007FE084179507A607B70708F050CFF7014F
:1021800086839783A087B18750CF0115110599F5F4
:10219000D7011A964D915D916D917C911D97539643
:1021A0008D919D910D90BC91A02D481759076A07FC
:1021B0007B0708F181E00E94DF09882309F4B4CF8E
:1021C0004092000250920102609202027092030259
:1021D00080917C03816080937C03C80182529B4F75
:1021E000D5019C01280D391DFC012E173F0759F020
:1021F0004D914193FACF41E0C301B2010E940A0A16
:102200008111EBCF91CF281B390BA20EB31E68CFE3
:10221000F70183899489A589B68984179507A6074C
:10222000B70738F48481438B548B658B768B806839
:102230008483F701848183FD1AC0832D9D810F90D3
:102240000F900F900F900F90DF91CF911F910F91F2
:10225000FF90EF90DF90CF90BF90AF909F908F90C6
:102260007F906F905F904F903F902F90089561E026
:10227000C7010E94F30E882309F456CFDECFCF9317
:10228000DF931F92CDB7DEB7698341E050E0BE0116
:102290006F5F7F4F0E94A40F0F90DF91CF91089541
:1022A000FC01DB0112968D919C911397938382839D
:1022B0008AE392E09183808314968C9114978483AF
:1022C00015968C911597858316964D915D916D911C
:1022D0007C91199746835783608771871A964D9131
:1022E0005D916D917C911D974287538764877587B7
:1022F0001E964D915D916D917C91519746875787C0
:10230000608B718B52968C915297828B53964D9124
:102310005D916D917C915697438B548B658B768B39
:1023200057964D915D916D917C915A97478B508F47
:10233000618F728F5B968D919C91948F838F08959E
:10234000FC01818D928D009719F061E00C94F30EE1
:102350000895DC015996ED91FC913097B9F083898D
:102360009489A589B6894285538564857585841BC2
:10237000950BA60BB70B811520E89207A105B105B7
:1023800038F08FEF9FE7A0E0B0E0089590E080E0A4
:102390000895DC0159968D919C91009739F0DC01EC
:1023A000ED91FC910480F581E02D199490E080E09E
:1023B0000895CF93DF93EC01E98DFA8D309749F4BE
:1023C00081E090E09B838A8390E080E0DF91CF9171
:1023D000089513821282898D9A8D0E94A40FE98D2F
:1023E000FA8D22813381232B59F7F0CFCF93DF93DE
:1023F0001F92CDB7DEB76983DC01ED91FC910280BD
:10240000F381E02D41E050E0BE016F5F7F4F1995F1
:102410000F90DF91CF9108952F923F924F925F924C
:102420006F927F928F929F92AF92BF92CF92DF92E4
:10243000EF92FF920F931F93CF93DF9300D0CDB70E
:10244000DEB7FC018581811118C08FEF9FEF0F90DF
:102450000F900F90DF91CF911F910F91FF90EF9010
:10246000DF90CF90BF90AF909F908F907F906F90B4
:102470005F904F903F902F900895848180FFE5CF2B
:10248000438954896589768982859385A485B58534
:10249000312C212C481759076A077B0719F0222491
:1024A0002394312C6F012101CE0101963C01DF0103
:1024B0001696BB83AA834114510409F4C5C0F601E2
:1024C00042855385648575854A01F1E09F22D601D6
:1024D0005B968D919C915C978A019B01E9E0369512
:1024E000279517950795EA95D1F71596EC91E23067
:1024F000E9F5FC01628D738D848D958D600F711FE0
:10250000821F931FA12C22E0B22EA818B9084A14EA
:102510005B0408F45201F601248126FD04C0A114D5
:10252000F2E0BF0671F400910002109101022091C7
:10253000020230910302061717072807390709F02E
:102540005EC040E00E940A0A882309F47ECFC401DD
:1025500082529B4FD3019C012A0D3B1DFC012E177B
:102560003F0709F46CC041914D93F9CFDC011496FB
:10257000BC90BA94B0228114910479F4B1100DC0CA
:10258000452B462B472B69F5F6018789908DA18D48
:10259000B28D86839783A087B187D6015B96ED9134
:1025A000FC915C9716966D917D918D919C911997F8
:1025B0006250710981099109258504C0660F771F52
:1025C000881F991F2A95D2F706851785208931899A
:1025D000600F711F821F931F6B0D711D811D911D57
:1025E00091CFD60116964D915D916D917C91199781
:1025F0002A813B810E941F0C8111CFCF26CF73010E
:1026000085019401AB01BC018091DE069091DF064B
:102610000E94AB08882309F418CF6A0C7B1CF601D2
:1026200082859385A485B5858A0D9B1DA11DB11D4D
:1026300082879387A487B5874A185B083CCF281BFD
:10264000390B620E731EEBCF2A94232809F0FDCEBE
:10265000898190E0FCCEFC01818D928D009711F074
:102660000C940C128FEF9FEF08950F931F93CF934D
:10267000DF93EC01898D9A8D10E000E0009799F0CE
:102680000E940C128C010F3F100769F0898D9A8D02
:10269000FC01428553856485758541505109610966
:1026A00071090E945F0DC801DF91CF911F910F91B9
:1026B00008950F931F93CF938C01C62F0E94150787
:1026C0006C2F6460C8010E9415076C2F6B7FC801D6
:1026D0000E94150783EC90E00197F1F7CF911F91CD
:1026E0000F9108950F931F93CF93DF938C01D62FF3
:1026F000C42F607F642B0E94591380E1D89FB001E2
:1027000011246C2BC801DF91CF911F910F910C9474
:10271000591340E061E082ED99E00E9472138BE36F
:102720009FE10197F1F70895CF93DF9300D000D098
:102730001F921F92CDB7DEB798E0EAE0F2E0DE012B
:10274000119601900D929A95E1F79091DA099617FA
:1027500008F46FEF262F30E0220F331F41E050E0E6
:102760004C0F5D1F240F351FF9016081680F6068F1
:1027700040E082ED99E028960FB6F894DEBF0FBED8
:10278000CDBFDF91CF910C94721341E00E94721380
:1027900081E090E00895CF92DF92EF92FF921F9335
:1027A000CF93DF93EC0180E2689FF0011124E252A5
:1027B000FB4F9385917161F0842F827449F080E022
:1027C000DF91CF911F91FF90EF90DF90CF90089510
:1027D000142F6A8B8091000290910102A091020255
:1027E000B09103028E879F87A88BB98BC488D58848
:1027F000F12CE12C7601DD24CC24CF8AD88EE98E11
:10280000FA8E828D938DB0E0A0E0AC01BD014C2921
:102810005D296E297F294F8B588F698F7A8F838529
:102820008871B1F4848D958DA68DB78D8B8B9C8B23
:10283000AD8BBE8B81E08D831F701C831E821F8237
:10284000188619861A861B861C861D8681E0B8CFDD
:10285000803109F0B4CF9E012D5E3F4F8B8D9C8D52
:102860000E94A00C882309F4AACF84E0E4CF8091D1
:10287000C4099091C509009761F00E94970F80915B
:10288000C4099091C5090E94C3281092C5091092ED
:10289000C4090895FC0180819181009711F00C9486
:1028A000C3280895FB0101900020E9F73197AF019B
:1028B000461B570BDC01ED91FC910280F381E02D6A
:1028C00019948F929F92AF92BF92CF92DF92EF9224
:1028D000FF92CF93DF93CDB7DEB7A1970FB6F894F1
:1028E000DEBF0FBECDBF6C01990FEE08FF08F7FEEB
:1028F00040C041E06DE282ED99E00E947213222710
:102900003327A9012C193D094E095F0919A2CE01EF
:1029100081967C019AE0892E912CA12CB12CCA01C0
:10292000B901A50194010E94E227605DF70162935D
:102930007F01211531054105510589F790E080E0BF
:10294000309729F0BF0182ED99E00E945214019660
:10295000A1960FB6F894DEBF0FBECDBFDF91CF9129
:10296000FF90EF90DF90CF90BF90AF909F908F90AF
:102970000895A701960119A2CE0181967C018AE0F3
:10298000882E912CA12CB12CCA01B901A50194016A
:102990000E94E227605DF70162937F0121153105F6
:1029A0004105510589F790E080E0309789F2BF0139
:1029B00082ED99E00E945214CBCF0F931F93CF93D7
:1029C000DF93EC010E940E028C0160E672E0CE0102
:1029D0000E945214800F911FDF91CF911F910F9190
:1029E00008950F931F93CF93DF93EC010E9452142D
:1029F0008C0160E672E0CE010E945214800F911F9C
:102A0000DF91CF911F910F9108950C945214209152
:102A1000FA093091FB09DC0114964D915C911597F0
:102A200024173507D9F4E091F609F091F7096D9173
:102A30007C913097D1F06115710599F4232BC1F089
:102A4000808190E008C0232B99F0FB01808190E009
:102A500091958195910921E0892B09F020E0822F41
:102A60000895CF010E944E2AF6CF6115710559F7DE
:102A700021E0F5CF0F931F93CF93DF938C01EB01F0
:102A8000FC01808191810097E1F068817981611575
:102A90007105A9F0428153812C813D814217530772
:102AA00070F00E94572A8C819D81F8019583848360
:102AB0001D821C82DF91CF911F910F9108950E947A
:102AC000C32888819981F801918380838A819B81C1
:102AD000938382838C819D8195838483198218825C
:102AE0001B821A82E5CF0F931F93CF93DF93EC01E4
:102AF00088819981009759F02A813B8126173707F1
:102B000030F081E0DF91CF911F910F9108958B01FB
:102B10006F5F7F4F0E944C29009759F099838883FB
:102B20001B830A832C813D81232B59F7FC011082E2
:102B3000E8CF80E0E7CFEF92FF920F931F93CF9300
:102B4000DF931F921F92CDB7DEB78C0169831A8283
:102B5000FC01E480F580FFEFEF1AFF0AB7010E9445
:102B60007315882381F0F80120813181848195815A
:102B7000BE016F5F7F4F820F931F0E94572AF8019B
:102B8000F582E48281E00F900F90DF91CF911F9149
:102B90000F91FF90EF900895EF92FF920F931F9384
:102BA000CF93DF93EC017B018A01BA010E94731578
:102BB00028813981811114C02115310519F0C9010D
:102BC0000E94C328198218821D821C821B821A82CD
:102BD000CE01DF91CF911F910F91FF90EF9008955B
:102BE0001D830C83B701C9010E94572AF1CFFB0155
:102BF000DC0111961C921E9213961C921E92129743
:102C000015961C921E9214978617970749F06081BB
:102C100071816115710521F0448155810C94CC15A9
:102C20000895FC011182108213821282158214828F
:102C3000FB0101900020E9F73197AF01461B570BCC
:102C40000C94CC15CF92DF92EF92FF920F931F93CB
:102C5000CF93DF93EC016B017A014617570720F4FD
:102C60008D2D6A01E62EF82E62E672E0CE010E94FA
:102C700011160091120A1091130AC016D10640F5E0
:102C8000E016F10608F48701E0910E0AF0910F0AB0
:102C9000E00FF11FF080108260910E0A70910F0A10
:102CA0006C0D7D1D61157105E9F0FB01019000209F
:102CB000E9F73197AF01461B570BCE010E94CC15A7
:102CC00080910E0A90910F0A080F191FF801F082E7
:102CD000CE01DF91CF911F910F91FF90EF90DF9088
:102CE000CF90089588819981009711F00E94C328A0
:102CF000198218821D821C821B821A82E1CF85ED07
:102D00008093BC008091C4039091C503A091C60339
:102D1000B091C7030796A11DB11D23E0B695A795F5
:102D2000979587952A95D1F72091BC0024FD03C083
:102D300010920D0408954091C4035091C503609111
:102D4000C6037091C703452B462B472B69F30097A9
:102D5000A105B10541F02AE22A95F1F700C00197DB
:102D6000A109B109E1CF8091C3030C946E063F9293
:102D70004F925F926F927F928F929F92AF92BF928B
:102D8000CF92DF92EF92FF920F931F93CF93DF9337
:102D900000D000D000D01F921F92CDB7DEB77C01CB
:102DA000FE013196CE010C966F0130E23193E817A7
:102DB000F907E1F7DA0130E087E09D91B92E992318
:102DC00009F43CC09E32F1F48A30C9F480E02B96BD
:102DD0000FB6F894DEBF0FBECDBFDF91CF911F912C
:102DE0000F91FF90EF90DF90CF90BF90AF909F90AA
:102DF0008F907F906F905F904F903F90089538E054
:102E00008AE0DBCFECE9F1E04491442321F03196F4
:102E10009413FACFDBCF8317C8F24FED490F4E352D
:102E2000A8F64FE9490F4A3118F440EEB42EB90E16
:102E3000F601E30FF11DB0823F5FBFCF8981803281
:102E400029F2322E8B01DB015B968D919C915C9770
:102E5000F701948F838F16961D921D921D921C92DE
:102E60001997FB011286138614861586F801828550
:102E70009385A485B58543895489658976898417A6
:102E80009507A607B70708F04DC025E0B695A795AA
:102E9000979587952A95D1F7F82FFF70AF2ED80117
:102EA00015968C91823008F491CFC8010E940C12C3
:102EB00097FD8CCFF80182859385A485B5854F96C3
:102EC000A11DB11D82879387A487B587F0E2AF9ECD
:102ED000B001112462527B4F6115710509F476CF60
:102EE000DB018C91882341F0853E09F062C0BB2054
:102EF00029F0BB24B394BACFB1100EC0F701A28A57
:102F00008091000290910102A0910202B09103020F
:102F100086879787A08BB18BDB018C918111E9CFDC
:102F2000BB24B394832D8271823109F04FCFBB2033
:102F300009F44DC0F701668577858089918941E064
:102F40000E940A0A882309F441CFD70152968C9136
:102F5000B0E28B9FC001112482529B4F009709F46D
:102F600035CFFC013A9626E1DF011D922A95E9F75B
:102F70002BE0F601DC0101900D922A95E1F721E2A8
:102F800038E2FC01318B208B40E058E057874687C0
:102F9000338B228B318F208F578B468B81E00E94A1
:102FA000DF09882309F412CF432DD70152966C9183
:102FB0000AC04BE050E0C6010E942D2A892B09F07F
:102FC00055CF432D6A2DC7010E94CB1300CFF801C6
:102FD0008581823009F4FACEC8010E94F30D88235E
:102FE00009F4F4CED8015B96ED91FC915C971696AE
:102FF0008D909D90AD90BC901997B2E08B1A91087E
:10300000A108B108858504C0880C991CAA1CBB1CAA
:103010008A95D2F786859785A089B189880E991EF1
:10302000AA1EBB1E848124013501480E511C611C5F
:10303000711C84149504A604B70409F1E1E04E1A4A
:1030400051086108710881E00E94DF09882309F4B2
:10305000BDCEEEEDF4E011928EED96E08E179F0757
:10306000D1F74092000250920102609202027092E7
:10307000030280917C03816080937C03DACFD801C6
:103080005B96ED91FC91258580E092E0A0E0B0E0B8
:1030900004C0880F991FAA1FBB1F2A95D2F7F801F9
:1030A0004389548965897689840F951FA61FB71FA8
:1030B000838B948BA58BB68BD70152961C928EED89
:1030C00094E04FCFEF92FF920F931F93CF93DF9334
:1030D000EC017B018A011B821A8288EE93E0A0E05A
:1030E000B0E08C839D83AE83BF8386E492E09983B6
:1030F00088838DE190E00E9427289A8F898F00971E
:1031000079F02DE1F701DC0101900D922A95E1F7AC
:103110004CE050E0B801CE010C960E945E2A188E59
:10312000DF91CF911F910F91FF90EF9008952F9213
:103130003F924F925F926F927F928F929F92AF9247
:10314000BF92CF92DF92EF92FF920F931F93CF9394
:10315000DF93CDB7DEB7C756D1090FB6F894DEBFFF
:103160000FBECDBF6C015B01A6964FAFA69719A20B
:1031700018A28AE392E09F8F8E8F1BA21C821B8273
:103180009A8389831E824E018EE1880E911CC401B0
:103190000E940B0D75018E010F5F1F4F2401180156
:1031A0006FE270E0C7010E94432A009709F45DC0F6
:1031B000F70120812F3271F4FFEFEF1AFF0A902FF1
:1031C000812F8201492E582E942D852D2801092FFB
:1031D000182FE6CF8E198D3008F08CE0682E712CF8
:1031E000A301B701CE01885A9F4F0E945E2AE8E5ED
:1031F000F0E0EC0FFD1FE60DF71D1082C8010E94E4
:10320000970FF8018581882301F11EAE1DAE8AE378
:1032100092E09CAF8BAF21961FAE2197A896EEADA2
:10322000FFADA897AE0EBF1EF501808181112AC0A7
:10323000BE01655C7F4FC1010E94501143E652E020
:10324000B101C6010E9462183BC021E0AE01485A9C
:103250005F4FB201C8010E94B7168823B1F2E60C95
:10326000F71CC2010E94970FAFCFC7018A199B09B3
:10327000A8969FAF8EAFA897B201CE01CB960E94C1
:103280005011CCCF19A218A28AE392E09F8F8E8FA3
:103290001BA221968FAD219781112DC0F6011382BB
:1032A000128288EE93E0A0E0B0E084839583A68349
:1032B000B78386E492E091838083128E118E148608
:1032C000C601C959DF4F0FB6F894DEBF0FBECDBFA0
:1032D000DF91CF911F910F91FF90EF90DF90CF90F2
:1032E000BF90AF909F908F907F906F905F904F9026
:1032F0003F902F900895A6962FADA697A501BE01E9
:10330000655C7F4FC4010E94B716882339F2CE0155
:10331000CB960E94970FA6968FADA69786708630A3
:1033200039F449A95AA96BA97CA9C4010E945F0D6F
:10333000B401C1010E945011A50182CFCF93DF9348
:1033400000D000D0CDB7DEB78BEA99E00E94A9117A
:103350001816190654F48BEA99E00E942B13682F73
:103360008EE09AE00E949B15EFCF8091120A909117
:10337000130A181619060CF045C048E050E070E03A
:1033800060E0CE0101960E942216BE016F5F7F4F62
:1033900082E09AE00E943A15CE0101960E944A14FA
:1033A0004BE050E069E070E0CE0101960E942216E9
:1033B000BE016F5F7F4F88E09AE00E943A15CE0110
:1033C00001960E944A144DE050E06CE070E0CE019E
:1033D00001960E942216BE016F5F7F4F8CEF99E02D
:1033E0000E943A15CE0101960E944A148091080A63
:1033F0009091090A009779F00E9474277093DB047A
:103400006093DA0426960FB6F894DEBF0FBECDBFE8
:10341000DF91CF91089560E070E0CB01EFCF1F9274
:103420000F920FB60F9211240BB60F922F933F936A
:103430004F935F936F937F938F939F93AF93BF93BC
:10344000EF93FF9380EE96E00E94C702FF91EF9109
:10345000BF91AF919F918F917F916F915F914F91AC
:103460003F912F910F900BBE0F900FBE0F901F90AA
:1034700018951F920F920FB60F9211240BB60F9250
:103480002F933F934F935F936F937F938F939F936C
:10349000AF93BF93EF93FF9380EE96E00E944902B3
:1034A000FF91EF91BF91AF919F918F917F916F911C
:1034B0005F914F913F912F910F900BBE0F900FBED8
:1034C0000F901F9018951F920F920FB60F92112414
:1034D0000BB60F922F933F934F935F936F937F930E
:1034E0008F939F93AF93BF93EF93FF938DE797E0F5
:1034F0000E94C702FF91EF91BF91AF919F918F9171
:103500007F916F915F914F913F912F910F900BBEE3
:103510000F900FBE0F901F9018951F920F920FB62D
:103520000F9211240BB60F922F933F934F935F93FB
:103530006F937F938F939F93AF93BF93EF93FF937B
:103540008DE797E00E944902FF91EF91BF91AF9103
:103550009F918F917F916F915F914F913F912F91AB
:103560000F900BBE0F900FBE0F901F9018951F92DB
:103570000F920FB60F9211240BB60F922F933F9319
:103580004F935F936F937F938F939F93AF93BF936B
:10359000EF93FF938AE198E00E94C702FF91EF91B9
:1035A000BF91AF919F918F917F916F915F914F915B
:1035B0003F912F910F900BBE0F900FBE0F901F9059
:1035C00018951F920F920FB60F9211240BB60F92FF
:1035D0002F933F934F935F936F937F938F939F931B
:1035E000AF93BF93EF93FF938AE198E00E94490263
:1035F000FF91EF91BF91AF919F918F917F916F91CB
:103600005F914F913F912F910F900BBE0F900FBE86
:103610000F901F9018951F920F920FB60F921124C2
:103620000BB60F922F933F934F935F936F937F93BC
:103630008F939F93AF93BF93EF93FF9387EB98E0A4
:103640000E94C702FF91EF91BF91AF919F918F911F
:103650007F916F915F914F913F912F910F900BBE92
:103660000F900FBE0F901F9018951F920F920FB6DC
:103670000F9211240BB60F922F933F934F935F93AA
:103680006F937F938F939F93AF93BF93EF93FF932A
:1036900087EB98E00E944902FF91EF91BF91AF91B3
:1036A0009F918F917F916F915F914F913F912F915A
:1036B0000F900BBE0F900FBE0F901F9018951F928A
:1036C0000F920FB60F9211242F933F938F939F93D6
:1036D000AF93BF938091C9049091CA04A091CB0489
:1036E000B091CC043091C80423E0230F2D3758F556
:1036F0000196A11DB11D2093C8048093C904909325
:10370000CA04A093CB04B093CC048091CD049091D3
:10371000CE04A091CF04B091D0040196A11DB11D9B
:103720008093CD049093CE04A093CF04B093D004A3
:10373000BF91AF919F918F913F912F910F900FBEAD
:103740000F901F90189526E8230F0296A11DB11D1A
:10375000D2CF1F920F920FB60F9211240BB60F9279
:103760002F933F934F935F936F937F938F939F9389
:10377000AF93BF93EF93FF9348E251E064E271E0AF
:1037800090E080E00E946F05FF91EF91BF91AF91B3
:103790009F918F917F916F915F914F913F912F9169
:1037A0000F900BBE0F900FBE0F901F9018951F9299
:1037B0000F920FB60F9211240BB60F922F933F93D7
:1037C0004F935F936F937F938F939F93AF93BF9329
:1037D000EF93FF9348EA50E064EA70E083E090E002
:1037E0000E946F05FF91EF91BF91AF919F918F91D3
:1037F0007F916F915F914F913F912F910F900BBEF1
:103800000F900FBE0F901F9018951F920F920FB63A
:103810000F9211240BB60F922F933F934F935F9308
:103820006F937F938F939F93AF93BF93EF93FF9388
:1038300048E950E064E970E082E090E00E946F05A2
:10384000FF91EF91BF91AF919F918F917F916F9178
:103850005F914F913F912F910F900BBE0F900FBE34
:103860000F901F9018951F920F920FB60F92112470
:103870000BB60F922F933F934F935F936F937F936A
:103880008F939F93AF93BF93EF93FF9348E850E0DC
:1038900064E870E081E090E00E946F05FF91EF9195
:1038A000BF91AF919F918F917F916F915F914F9158
:1038B0003F912F910F900BBE0F900FBE0F901F9056
:1038C00018951F920F920FB60F9211240BB60F92FC
:1038D0002F933F934F935F936F937F938F939F9318
:1038E000AF93BF93EF93FF938091B900887F8036A9
:1038F00009F44DC008F040C0883209F4A9C028F589
:10390000803109F49DC0C8F4882309F4FBC08830D5
:1039100009F496C0FF91EF91BF91AF919F918F9164
:103920007F916F915F914F913F912F910F900BBEBF
:103930000F900FBE0F901F901895883109F488C022
:10394000803241F780930C0414C0803409F49DC088
:1039500040F48033B9F38833E9F680930C0485ECA6
:10396000B0C0803509F485C0883509F496C0883424
:1039700089F60E947F16CECF883909F48CC038F5BD
:10398000883729F050F4883611F0803719F683E033
:1039900080930D0410920B0457C0883809F47BC043
:1039A000803919F0803809F0B5CF80910B0480324E
:1039B00008F071C0E0910B0481E08E0F80930B043E
:1039C0008091BB00F0E0E551FC4F80833DC0803B1F
:1039D00039F0E0F4803A09F479C0883A09F09ACFD6
:1039E00084E080930D041092EA031092E903E091C1
:1039F000D304F091D40419958091E90381110FC08B
:103A000081E08093E9031092C90309C0803C09F466
:103A1000A6CF883C09F4A3CF883B09F07BCFE09187
:103A2000EA0381E08E0F8093EA03F0E0E753FC4F56
:103A300080818093BB009091EA038091E90329C0C3
:103A4000809132048093BB0085EC8093BC0062CFF0
:103A50009091310480913004981758F5E091310429
:103A600081E08E0F80933104F0E0E05FFB4F8081B6
:103A7000E9CFE091310481E08E0F80933104809191
:103A8000BB00F0E0E05FFB4F8083909131048091B8
:103A900030049817C8F285E8D8CFE091310481E06E
:103AA0008E0F809331048091BB00F0E0E05FFB4F0C
:103AB000808380910F0481115CCF81E080930E049C
:103AC00084EA8093BC0010920D0424CF85EC80938F
:103AD000BC0010920D0480910B04803230F4E09110
:103AE0000B04F0E0E551FC4F108260910B0470E094
:103AF000E091D104F091D2048BEE93E019951092ED
:103B00000B0408CF10920C0434CFCF92DF92EF92C7
:103B1000FF92E0EEF6E01382128288EEC82E83E078
:103B2000D82EE12CF12CC482D582E682F78286E180
:103B300092E09183808325E331E03587248724E375
:103B400031E03787268720E331E0318B208B21E37A
:103B500031E0338B228B22E331E0358B248B26E35B
:103B600031E0378B268B118E128E138E148EEDE77B
:103B7000F7E013821282C482D582E682F7829183B3
:103B8000808325ED30E03587248724ED30E03787CA
:103B9000268720ED30E0318B208B21ED30E0338B18
:103BA000228B22ED30E0358B248B26ED30E0378BF5
:103BB000268B118E128E138E148EEAE1F8E013829A
:103BC0001282C482D582E682F782918380832DECB3
:103BD00030E0358724872CEC30E03787268728ECC7
:103BE00030E0318B208B29EC30E0338B228B2AECB8
:103BF00030E0358B248B2EEC30E0378B268B118E0A
:103C0000128E138E148EE7EBF8E013821282C482B8
:103C1000D582E682F7829183808385EC90E0958758
:103C2000848784EC90E09787868780EC90E0918B86
:103C3000808B81EC90E0938B828B82EC90E0958B73
:103C4000848B86EC90E0978B868B118E128E138E70
:103C5000148EE4E5F9E013821282C482D582E682F2
:103C6000F78288E292E091838083E0E6F9E080E5E4
:103C700080831182E2E6F9E01582168211861386AE
:103C800082E090E0A0E0B0E084879587A687B787C0
:103C900013A215A614A68AE392E093A782A717A6FB
:103CA00062E672E08EE09AE00E94111662E672E02F
:103CB00088E09AE00E94111662E672E082E09AE0E3
:103CC0000E94111662E672E08CEF99E00E941116D4
:103CD00062E672E086EF99E00E94111665E672E0F6
:103CE0008EED99E00E9411166EE672E084EE99E086
:103CF0000E94111667E772E08AEE99E00E941116A1
:103D000060E872E080EF99E00E941116E2EDF9E0C0
:103D10001382128288E592E09183808387E2848314
:103D200080E1818782E0828713868FEC99E00E9490
:103D300054058CEC99E00E94540589EC99E00E94AE
:103D4000540586EC99E00E945405EBEAF9E01382F1
:103D50001282C482D582E682F78286E492E0918361
:103D60008083128E118E1486FF90EF90DF90CF909B
:103D70000895CF93DF93CDB7DEB76B970FB6F89466
:103D8000DEBF0FBECDBF789484B5826084BD84B59C
:103D9000816084BD85B5826085BD85B5816085BD46
:103DA00080916E00816080936E00109281008091FE
:103DB0008100826080938100809181008160809386
:103DC0008100809180008160809380008091B100AB
:103DD00084608093B1008091B00081608093B000D6
:103DE0008091910082608093910080919100816028
:103DF00080939100809190008160809390008091E9
:103E0000A10082608093A1008091A10081608093D5
:103E1000A1008091A00081608093A0008091210189
:103E20008260809321018091210181608093210132
:103E30008091200181608093200180917A008460CC
:103E400080937A0080917A00826080937A008091DA
:103E50007A00816080937A0080917A0080688093F4
:103E60007A001092C1001092D8041092D7041092D8
:103E7000D6041092D5040E9450068BE092E09093F5
:103E8000D4048093D3048CE092E09093D204809386
:103E9000D1041092D7098091DC09823018F098E0A3
:103EA0009093D7098093DA0962E370E080E090E0B4
:103EB0000E942C046091DD0982ED99E00E941507B3
:103EC00068EE73E080E090E00E942C0460E382EDF5
:103ED00099E00E9459130BE416E4C8010197F1F729
:103EE00060E382ED99E00E945913C8010197F1F750
:103EF00060E382ED99E00E94591383E592E0019717
:103F0000F1F760E282ED99E00E9459136091D709C0
:103F1000606240E082ED99E00E94721384E0809339
:103F2000D80940E06CE082ED99E00E9472130E9493
:103F3000891382E08093D90940E066E082ED99E040
:103F40000E94721340E062E082ED99E00E947213D9
:103F50008BE39FE10197F1F788E08093DD0960E052
:103F600082ED99E00E94150787EB98E00E948E0190
:103F70008AE198E00E948E018DE797E00E948E0111
:103F800080EE96E00E948E0182E00E94EC0183E0C8
:103F90000E94EC0184E00E94EC0185E00E94EC01AB
:103FA00069E872E087EB98E00E94F11464E972E03E
:103FB0008AE198E00E94F1146FE972E08DE797E0E2
:103FC0000E94F1146AEA72E080EE96E00E94F11419
:103FD00069E070E08FEC99E00E94CD0470E060E051
:103FE0008FEC99E00E946A0468E070E08CEC99E044
:103FF0000E94CD0470E060E08CEC99E00E946A04BD
:1040000067E070E089EC99E00E94CD0470E060E028
:1040100089EC99E00E946A0466E070E086EC99E021
:104020000E94CD0470E060E086EC99E00E946A0492
:1040300085E30E94EC0180919109882321F08CE8AE
:1040400099E00E94970F10926D0910926B091092DF
:1040500068091092670985E3809366090E945E04EF
:104060008B01809166090E94EC0161E080916609F4
:104070000E947B03FFB6F8948091D904811124C07B
:10408000EBE5F2E08491E1EAF2E09491E82FF0E0D0
:10409000EE0FFF1FE45FFD4FA591B491EC91E92372
:1040A00021F461E085E30E947B0385E30E94EC013B
:1040B0008CB580618CBD8CB580648CBD84E30E941E
:1040C000EC0183E30E94EC018091D9048F5F80931F
:1040D000D904FFBE82E58093600910926109809146
:1040E0006009909161090E9435083AE0F32E8FEF44
:1040F0000E941008FA94F110FACF82E699E00E942B
:10410000380820E030E0A90160E082E699E00E94F2
:104110004E08F82E80936C0981E0F81609F478C1F6
:104120000E945E04601B710B613D774050F381E09B
:104130008093670982E699E00E94050847E165EBF4
:1041400072E0CE0101960E949718CE0101960E945E
:10415000B50160EC72E08BEA99E00E94F1140E94D4
:10416000371447E165EB72E0CE0101960E94971883
:10417000CE0101960E94B5016EEC72E08BEA99E0E7
:104180000E94F1140E94371447E165EB72E0CE0102
:1041900001960E949718CE0101960E94B5016CED20
:1041A00072E08BEA99E00E94F1140E94371447E113
:1041B00065EB72E0CE0101960E949718CE01019640
:1041C0000E94B5016AEE72E08BEA99E00E94F11458
:1041D0000E9437148CEFE82E89E0F82E87EB98E0E8
:1041E0000E949302181619060CF013C261E085E0D4
:1041F0000E947B036AE570E08FEC99E00E946A04FC
:1042000060ED77E080E090E00E942C0470E060E0D8
:104210008FEC99E00E946A0487EB98E00E94930279
:10422000181619060CF027C641E065EB72E0CE01C6
:1042300001960E949718CE0101960E94B5010E9436
:104240009E190E94371487EB98E00E94710200913A
:10425000DC041091DD040F5F1F4F1093DD04009309
:10426000DC04682F86EF99E00E949B150830110549
:1042700099F60EED19E0B801CE0101960E94F715EE
:10428000CE0101960E940715882309F47FC162E0E0
:104290007AE087EB98E00E94DD1468EF72E087EB2C
:1042A00098E00E94F11466E073E087EB98E00E94CA
:1042B000051562E07AE087EB98E00E94DD146EE07D
:1042C00073E087EB98E00E94051568E07AE087EBE1
:1042D00098E00E94DD1466E073E087EB98E00E94AE
:1042E00005156CEF79E087EB98E00E94DD1460E043
:1042F00080E00E94941366E173E082ED99E00E94F1
:10430000051560E083E00E94941362E07AE082ED9C
:1043100099E00E940E0261E080E00E9494136AE13D
:1043200073E082ED99E00E94051568E873E180E092
:1043300090E00E942C0460E085E00E947B030E94D4
:1043400089138091DA049091DB0460E08035910557
:104350000CF0DCC080E00E94941364E273E082ED14
:1043600099E00E94051560E084E00E94941380911A
:10437000DA049091DB040E94611460E087E00E94FF
:10438000941369E273E082ED99E00E94051568EBF1
:104390007BE080E090E00E942C0461E080E00E94DD
:1043A00094136BE273E082ED99E00E94051568EECC
:1043B00073E080E090E00E942C0461E084E00E94C1
:1043C0007B036AE570E08CEC99E00E946A0460ED82
:1043D00077E080E090E00E942C0460E084E00E949E
:1043E0007B0360ED77E080E090E00E942C040E9467
:1043F000891361E080E00E94941367E373E082ED2B
:1044000099E00E940515CE0101960E944A1404CF3E
:104410002AEA31E040E050E068E082E699E00E945C
:104420004E0882FF2AC0F0926D0980916D09C12C5F
:10443000D12C7601823029F4C12CD12CE12C90E4CE
:10444000F92E20E030E0A90167E382E699E00E94BE
:104450004E08A701960169E282E699E00E944E08A3
:1044600080936C098823D1F00E945E04601B710B5D
:10447000613D774030F388E05BCE24E0F22E0E946D
:10448000170880936C09FA94F110F9CF8A3A11F069
:1044900082E04ECE82E080936D09C7CF80916D0996
:1044A0008230D1F420E030E0A9016AE382E699E0AD
:1044B0000E944E08882311F086E03ACE0E94170829
:1044C000807C803C19F483E080936D090E9417087A
:1044D0000E9417080E94170882E699E00E940508CA
:1044E00080E5809360091092610981E00E94540A7E
:1044F000882329F08CE899E00E940B0D1FCE80E004
:104500000E94540A882309F419CEF4CF80E00E9457
:10451000941364E273E082ED99E00E94051560E077
:1045200084E00E9494138091DA049091DB040E944D
:10453000611460E087E00E94941369E273E082ED09
:1045400099E00E94051568EE73E080E090E00E941B
:104550002C0461E080E00E94941365E473E082ED36
:1045600099E00E94051561E085E00E947B036AE501
:1045700070E08FEC99E00E946A0460ED77E080E0E3
:1045800090E00E942C0460E085E029CF0A5F1F4F75
:10459000E016F106C9F563E573E087EB98E00E9449
:1045A000F11460E080E00E94941366E173E082ED14
:1045B00099E00E94051560E083E00E94941362E098
:1045C0007AE082ED99E00E940E0261E080E00E94B4
:1045D000941363E673E082ED99E00E94051561E0B3
:1045E00085E00E947B036AE570E08FEC99E00E9411
:1045F0006A0460ED77E080E090E00E942C0460E0C7
:1046000085E00E947B03FFCECE0101960E944A14F2
:1046100032CE8AE198E00E949302181619060CF037
:104620005EC161E084E00E947B036AE570E08CEC8F
:1046300099E00E946A0460ED77E080E090E00E94DB
:104640002C0470E060E08CEC99E00E946A048AE13E
:1046500098E00E949302181619060CF00CC441E071
:104660006FE673E0CE0101960E949718CE01019685
:104670000E94B5010E949E190E9437148AE198E0B9
:104680000E9471020091DC041091DD040F5F1F4F46
:104690001093DD040093DC04682F86EF99E00E94FC
:1046A0009B150630110599F60EED19E0B801CE0103
:1046B00001960E94F715CE0101960E9407158823E6
:1046C00009F401C162E07AE08AE198E00E94DD1419
:1046D00068EF72E08AE198E00E94F11466E073E00E
:1046E0008AE198E00E94051562E07AE08AE198E0AC
:1046F0000E94DD146EE073E08AE198E00E940515E7
:1047000068E07AE08AE198E00E94DD1466E073E0F8
:104710008AE198E00E9405156CEF79E08AE198E063
:104720000E94DD1460E080E00E94941366E173E073
:1047300082ED99E00E94051560E083E00E949413E9
:1047400062E07AE082ED99E00E940E0261E080E092
:104750000E9494136AE173E082ED99E00E940515CE
:1047600068E873E180E090E00E942C0460E084E05F
:104770000E947B030E9489138091DA049091DB04EC
:1047800060E0803591050CF05EC080E00E949413DB
:1047900064E273E082ED99E00E94051560E084E038
:1047A0000E94941368E07AE082ED99E00E940E0284
:1047B00060E087E00E94941369E273E082ED99E083
:1047C0000E94051568EB7BE080E090E00E942C04DD
:1047D00061E080E00E9494136BE273E082ED99E067
:1047E0000E94051568EE73E080E090E00E942C04C2
:1047F00061E083E00E947B036AE570E089EC99E068
:104800000E946A0460ED77E080E090E00E942C0452
:1048100060E083E00E947B0360ED77E080E090E061
:104820000E942C040E94891361E080E00E9494138E
:1048300067E373E082ED99E00E940515CE010196D1
:104840000E944A1404CF80E00E94941364E273E053
:1048500082ED99E00E94051560E084E00E949413C7
:1048600068E07AE082ED99E00E940E0260E087E065
:104870000E94941369E273E082ED99E00E940515AD
:1048800068EE73E080E090E00E942C0461E080E03C
:104890000E94941365E473E082ED99E00E9405158F
:1048A00061E084E00E947B036AE570E08CEC99E0B3
:1048B0000E946A0460ED77E080E090E00E942C04A2
:1048C00060E084E0A7CFCE0101960E944A140A5FFF
:1048D0001F4F89E00C3F180709F4B9CEE7CE8DE7EA
:1048E00097E00E949302181619060CF05EC161E071
:1048F00083E00E947B036AE570E089EC99E00E9406
:104900006A0460ED77E080E090E00E942C0470E0A3
:1049100060E089EC99E00E946A048DE797E00E94CC
:104920009302181619060CF0A6C241E06FE673E078
:10493000CE0101960E949718CE0101960E94B50102
:104940000E949E190E9437148DE797E00E94710221
:104950000091DC041091DD040F5F1F4F1093DD0404
:104960000093DC04682F86EF99E00E949B150630C7
:10497000110599F60EED19E0B801CE0101960E94DD
:10498000F715CE0101960E940715882309F401C18D
:1049900062E07AE08DE797E00E94DD1468EF72E054
:1049A0008DE797E00E94F11466E073E08DE797E0F1
:1049B0000E94051562E07AE08DE797E00E94DD1421
:1049C0006EE073E08DE797E00E94051568E07AE0FD
:1049D0008DE797E00E94DD1466E073E08DE797E0D5
:1049E0000E9405156CEF79E08DE797E00E94DD14D9
:1049F00060E080E00E94941366E173E082ED99E04C
:104A00000E94051560E083E00E94941362E07AE062
:104A100082ED99E00E940E0261E080E00E94941312
:104A20006AE173E082ED99E00E94051568E873E1A0
:104A300080E090E00E942C0460E083E00E947B0311
:104A40000E9489138091DA049091DB0460E0803544
:104A500091050CF05EC080E00E94941364E273E064
:104A600082ED99E00E94051560E084E00E949413B5
:104A700068E07AE082ED99E00E940E0260E087E053
:104A80000E94941369E273E082ED99E00E9405159B
:104A900068EB7BE080E090E00E942C0461E080E025
:104AA0000E9494136BE273E082ED99E00E94051579
:104AB00068EE73E080E090E00E942C0461E082E008
:104AC0000E947B036AE570E086EC99E00E946A042C
:104AD00060ED77E080E090E00E942C0460E082E0EE
:104AE0000E947B0360ED77E080E090E00E942C0460
:104AF0000E94891361E080E00E94941367E373E0F1
:104B000082ED99E00E940515CE0101960E944A149B
:104B100004CF80E00E94941364E273E082ED99E098
:104B20000E94051560E084E00E94941368E07AE03A
:104B300082ED99E00E940E0260E087E00E949413EB
:104B400069E273E082ED99E00E94051568EE73E07A
:104B500080E090E00E942C0461E080E00E949413C9
:104B600065E473E082ED99E00E94051561E083E061
:104B70000E947B036AE570E089EC99E00E946A0478
:104B800060ED77E080E090E00E942C0460E083E03C
:104B9000A7CFCE0101960E944A140A5F1F4F89E0F9
:104BA0000C3F180709F4B9CEE7CE80EE96E00E94DC
:104BB0009302181619060CF05EC161E082E00E94B3
:104BC0007B036AE570E086EC99E00E946A0460ED80
:104BD00077E080E090E00E942C0470E060E086ECDA
:104BE00099E00E946A0480EE96E00E9493021816F3
:104BF00019060CF040C141E06FE673E0CE0101966A
:104C00000E949718CE0101960E94B5010E949E193C
:104C10000E94371480EE96E00E9471020091DC043D
:104C20001091DD040F5F1F4F1093DD040093DC042F
:104C3000682F86EF99E00E949B150630110599F6C2
:104C40000EED19E0B801CE0101960E94F715CE01D4
:104C500001960E940715882309F401C162E07AE0F9
:104C600080EE96E00E94DD1468EF72E080EE96E040
:104C70000E94F11466E073E080EE96E00E94051554
:104C800062E07AE080EE96E00E94DD146EE073E070
:104C900080EE96E00E94051568E07AE080EE96E0EE
:104CA0000E94DD1466E073E080EE96E00E94051538
:104CB0006CEF79E080EE96E00E94DD1460E080E029
:104CC0000E94941366E173E082ED99E00E9405155D
:104CD00060E083E00E94941362E07AE082ED99E064
:104CE0000E940E0261E080E00E9494136AE173E08A
:104CF00082ED99E00E94051568E873E180E090E09C
:104D00000E942C0460E082E00E947B030E948913D1
:104D10008091DA049091DB0460E0803591050CF01D
:104D20005EC080E00E94941364E273E082ED99E03B
:104D30000E94051560E084E00E94941368E07AE028
:104D400082ED99E00E940E0260E087E00E949413D9
:104D500069E273E082ED99E00E94051568EB7BE063
:104D600080E090E00E942C0461E080E00E949413B7
:104D70006BE273E082ED99E00E94051568EE73E046
:104D800080E090E00E942C0461E085E00E947B03BB
:104D90006AE570E08FEC99E00E946A0460ED77E0CC
:104DA00080E090E00E942C0460E085E00E947B039C
:104DB00060ED77E080E090E00E942C040E9489136F
:104DC00061E080E00E94941367E373E082ED99E074
:104DD0000E940515CE0101960E944A1404CF80E07E
:104DE0000E94941364E273E082ED99E00E9405153D
:104DF00060E084E00E94941368E07AE082ED99E03C
:104E00000E940E0260E087E00E94941369E273E062
:104E100082ED99E00E94051568EE73E080E090E075
:104E20000E942C0461E080E00E94941365E473E02A
:104E300082ED99E00E94051561E082E00E947B030B
:104E40006AE570E086EC99E00E946A0460ED77E024
:104E500080E090E00E942C0460E082E0A7CFCE01C9
:104E600001960E944A140A5F1F4F89E00C3F180701
:104E700009F4B9CEE7CE1092DD041092DC0450E0C4
:104E800040E062E672E082E09AE00E94CC1564EFB6
:104E900071E080E090E00E942C040E9456039EC9BD
:104EA00080EF99E00E944A148AEE99E00E944A1429
:104EB00084EE99E00E944A148EED99E00E944A1413
:104EC00086EF99E00E944A148CEF99E00E944A1400
:104ED00082E09AE00E944A1488E09AE00E944A1414
:104EE0008EE09AE00C944A141F93FC0199278827BE
:104EF000BC01E89411911032E9F3193010F01E3022
:104F0000C8F31B3251F01D3249F4689406C00E9468
:104F10009B27610F711D811D911D119110531A3036
:104F2000B0F33EF490958095709561957F4F8F4FCB
:104F30009F4F1F910895592F482F372F262F660F07
:104F4000771F881F991F660F771F881F991F620F91
:104F5000731F841F951F660F771F881F991F089561
:104F6000052E97FB1EF400940E94C72757FD07D01B
:104F70000E94E22707FC03D04EF40C94C7275095FB
:104F80004095309521953F4F4F4F5F4F0895909535
:104F90008095709561957F4F8F4F9F4F08950E9428
:104FA0000428A59F900DB49F900DA49F800D911D86
:104FB00011240895B7FF0C94CF270E94CF27821B9E
:104FC000930B0895A1E21A2EAA1BBB1BFD010DC075
:104FD000AA1FBB1FEE1FFF1FA217B307E407F507A9
:104FE00020F0A21BB30BE40BF50B661F771F881F85
:104FF000991F1A9469F760957095809590959B011B
:10500000AC01BD01CF010895A29FB001B39FC001C3
:10501000A39F700D811D1124911DB29F700D811DE4
:105020001124911D0895991B79E004C0991F9617CA
:1050300008F0961B881F7A95C9F780950895EE0FA2
:10504000FF1F881F8BBF0790F691E02D19940F93D7
:105050001F93CF93DF938230910510F482E090E0AC
:10506000E091160AF091170A30E020E0B0E0A0E0ED
:10507000309799F42115310509F44AC0281B390BE2
:1050800024303105D8F58A819B816115710589F13C
:10509000FB0193838283FE0111C040815181028113
:1050A000138148175907E0F04817590799F41097EA
:1050B00061F012960C93129713961C933296CF01BF
:1050C000DF91CF911F910F9108950093160A1093CD
:1050D000170AF4CF2115310551F04217530738F064
:1050E000A901DB019A01BD01DF01F801C1CFEF0188
:1050F000F9CF9093170A8093160ACDCFFE01E20FE5
:10510000F31F819391932250310939832883D7CF9C
:105110002091140A3091150A232B41F420910602A4
:10512000309107023093150A2093140A209104024B
:10513000309105022115310541F42DB73EB740915C
:10514000080250910902241B350BE091140AF091DA
:10515000150AE217F307A0F42E1B3F0B2817390797
:1051600078F0AC014E5F5F4F2417350748F04E0FC3
:105170005F1F5093150A4093140A819391939FCF18
:10518000F0E0E0E09CCFCF93DF930097E9F0FC01E3
:10519000329713821282A091160AB091170AED017C
:1051A00030E020E01097A1F420813181820F931F1D
:1051B0002091140A3091150A2817390709F061C0A7
:1051C000F093150AE093140ADF91CF910895EA0154
:1051D000CE17DF07E8F54A815B819E014115510535
:1051E000B1F7E901FB83EA8349915991C40FD51FB7
:1051F000EC17FD0761F4808191810296840F951F61
:10520000E90199838883828193819B838A83F0E07B
:10521000E0E012968D919C9113970097B9F52D912E
:105220003C911197CD010296820F931F2091140A91
:105230003091150A2817390739F6309751F5109231
:10524000170A1092160AB093150AA093140ABCCF3D
:10525000D383C28340815181840F951FC817D9071A
:1052600061F44E5F5F4F88819981480F591F5183C8
:1052700040838A819B81938382832115310509F0C4
:10528000B0CFF093170AE093160A9ECFFD01DC0120
:10529000C0CF13821282D7CF4F925F926F927F92CC
:1052A0008F929F92AF92BF92CF92DF92EF92FF9236
:1052B0000F931F93CF93DF938C01009799F4CB0149
:1052C000DF91CF911F910F91FF90EF90DF90CF90E2
:1052D000BF90AF909F908F907F906F905F904F9016
:1052E0000C942728FC01E60FF71F9C01225031097E
:1052F000E217F30708F4AEC0D901CD91DC91119704
:10530000C617D70720F1C530D10578F0CE01049734
:105310008617970750F0C61BD70B2297C193D193DE
:105320006D937C93CF010E94C328C801DF91CF9178
:105330001F910F91FF90EF90DF90CF90BF90AF90B3
:105340009F908F907F906F905F904F9008955B013A
:10535000AC1ABD0A4C018C0E9D1EA091160AB0918C
:10536000170A512C412CF12CE12C109731F580912A
:10537000140A9091150A8815990509F05CC0461623
:10538000570608F058C080910402909105020097DA
:1053900041F48DB79EB74091080250910902841BD9
:1053A000950BE817F90708F055C0F093150AE0933C
:1053B000140AF90171836083B8CF8D919C91119784
:1053C00012966C90129713967C901397A815B905B6
:1053D00059F56C0142E0C40ED11CCA14DB0420F163
:1053E000AC014A195B09DA011296159780F06282C6
:1053F000738251834083D9016D937C93E114F1044E
:1054000071F0D7011396FC93EE9312978ECF2296EC
:105410008C0F9D1FF90191838083F301EFCFF093EF
:10542000170AE093160A81CF4816590608F42C0192
:105430007D01D3019ACFCB010E9427287C010097E0
:1054400049F0AE01B8010E943A2AC8010E94C3285F
:1054500087016BCF10E000E068CFFB01DC0104C0E6
:105460008D910190801921F441505040C8F7881B5C
:10547000990B0895FB01DC0102C001900D9241508F
:105480005040D8F70895FC018191861721F08823B8
:10549000D9F7992708953197CF010895FB01DC01D1
:1054A0008D91019080190110D9F3990B0895FB019A
:1054B000DC0101900D920020E1F70895FB01DC0171
:1054C0004150504048F001900D920020C9F701C0B2
:1054D0001D9241505040E0F7089511E0CAE5D1E037
:1054E00000E006C0802FFE010E941F282196011DAA
:0E54F000CB35D10780E00807A9F7F894FFCF6D
:1054FE00FFFFFFFF0000180A8000000040001400AC
:10550E00540000000000E9021C02620236039302FE
:10551E007102850200000000E606B906FC078F0640
:10552E00B2069F069006000000003F111C02390FC4
:10553E000D0200000000F611D911C911A011A91118
:10554E002B13351300000000C5131C02FC070D02BF
:10555E000D0A002F004142433132333435004241AF
:10556E004331323334350043414231323334350026
:10557E00414141313233343500534C4F5420504960
:10558E004E203100534C4F542050494E2032005380
:10559E004C4F542050494E203300534C4F54205002
:1055AE00494E203400736C6F745F312E7478740022
:1055BE0041424331323334357C35307C3100424107
:1055CE004331323334357C37307C31004341423104
:1055DE00323334357C39307C310041414131323304
:1055EE0034357C32307C310020202056616C696469
:1055FE0020544147200049442050494E3A0050491A
:10560E004E2825293A0049443A0056616C696420B7
:10561E0050494E0050696E3A0025002020535741E4
:10562E00502050494E210020205448414E4B2059C5
:10563E004F55202100202052455455524E2050499E
:10564E004E2100202020496E76616C696420544101
:10565E00472000496E76616C69642050494E007394
:0A566E006C6F745F322E74787400C4
:00000001FF
