:100000000C945B010C948C010C948C010C948C016D
:100010000C948C010C948C010C948C010C948C012C
:100020000C948C010C948C010C948C010C948C011C
:100030000C948C010C948C010C948C010C948C010C
:100040000C948C010C949A1D0C948C010C948C01D2
:100050000C948C010C948C010C948C010C94C61C97
:100060000C948C010C949C1C0C94721C0C948C01B0
:100070000C948C010C948C010C948C010C948C01CC
:100080000C946C1D0C948C010C948C010C948C01C0
:100090000C94481C0C941E1C0C948C010C94C81DD0
:1000A0000C948C010C948C010C943E1D0C948C01CE
:1000B0000C948C010C948C010C948C010C94101DEC
:1000C0000C948C010C948C010C948C010C94F41BFA
:1000D0000C94CA1B0C948C010C94A01B0C94761BE2
:1000E0000C948C010C941B020C94C9030C94E80230
:1000F0000C9496060C949A110C94B5140C94D0039D
:100100000C94CD030C94EE030C94071F0C94E8039D
:100110000C9400040C94AA030C941C130C94C103BB
:100120000C94E7110C94AF030C941A020C94F20394
:100130000C94BA110C9430110C94CA060C94E00380
:100140000C9470020C949D060C942A0F0C94E403FA
:100150000C9461020C9473060C9491110C94DA03C4
:100160000C9426130C94C5030C9484020C94E007A1
:100170000C94D6030C9492020C94FC030C9483060A
:100180000C9433290C94CA110C9435030C94740606
:100190000C94F6030C9419020C9418027C3C3E5EFD
:1001A0002B3D3F2F5B5D3B2C2A225C0000000A0B9D
:1001B00002090C0D0E0807030401000000000000F6
:1001C000000000000000000000000000000000002F
:1001D00000000000000000001211100000000000EC
:1001E000000000000000000000000000000000000F
:1001F000000000002200250028002B002E00310006
:10020000340002010000050108010B01000021007B
:10021000240027002A002D003000330001010000D7
:10022000040107010A010505050507050808080876
:10023000020202020A0A080804040404010101017E
:100240000101010103030303030303030407070779
:100250000C0C0C0C0C0C0C0C02020202060606061E
:10026000060606060B0B0B0B0B0B0B0B01021020EB
:1002700020080810204010204080020102010804DC
:100280000201010204081020408080402010080470
:1002900002018004020180402010080402010804C9
:1002A000020101020408102040800102040810200D
:1002B0004080071F332911241FBECFEFD1E2DEBFDC
:1002C000CDBF00E00CBF13E0A0E0B2E0ECEBF8E53E
:1002D00000E00BBF02C007900D92A039B107D9F71B
:1002E0002AE0A0E9B3E001C01D92A832B207E1F70D
:1002F00011E0CAE5D1E000E006C021970109802F96
:10030000FE010E94FE29C935D10780E00807A9F740
:100310000E9435200C944C2C0C940000FC01A08908
:10032000B18982E08C93A485B5851C92A685B7859A
:100330008FEC8C93108EA489B58986E08C93A2896A
:10034000B3898C9180618C93A289B3898C918860E8
:100350008C93A289B3898C9180688C930288F389ED
:10036000E02D80818F7D80830895CF93DF93FC0102
:10037000828193819093C4098093C309848195817C
:10038000A681B7818093C5099093C609A093C70938
:10039000B093C80980859185A285B3858093C909EA
:1003A0009093CA09A093CB09B093CC09DF011C96A6
:1003B000CF014996CDECD9E02D912993A817B90723
:1003C000D9F7818D928D9093DB098093DA0981ECC6
:1003D00099E0DF91CF91089590E0FC01E459FD4F41
:1003E00024918A5D9D4FFC018491882399F090E0CF
:1003F000880F991FFC01E45FFD4FA591B491FC01AA
:10040000EE50FE4F859194918FB7F894EC91E22BCA
:10041000EC938FBF0895E2E1FAE044815581608159
:100420007181DC01ED91FC910280F381E02D199442
:10043000089508950895AF92BF92CF92DF92EF9200
:10044000FF920F931F93CF93DF936C017B018B017E
:10045000040F151FEB015E01AE18BF08C017D107CE
:1004600059F06991D601ED91FC910190F081E02D58
:10047000C6011995892B79F7C501DF91CF911F919D
:100480000F91FF90EF90DF90CF90BF90AF900895C5
:10049000FC01A089B1898C91A689B78982FD0FC022
:1004A0009C91818D8F5F8F73228D821749F0A18D72
:1004B000AE0FBF2FB11D5D969C93818F08958C91D7
:1004C0000895FC01538D448D252F30E0842F90E05A
:1004D000821B930B541710F0CF960895019708953F
:1004E000FC01918D828D981761F0A28DAE0FBF2F08
:1004F000B11D5D968C91928D9F5F9F73928F90E05E
:1005000008958FEF9FEF0895FC01918D828D9817CC
:1005100031F0828DE80FF11D858D90E008958FEF09
:100520009FEF0895FC01918D228D892F90E0805CD2
:100530009F4F821B91098F739927089586EF96E04C
:100540000E94920221E0892B09F420E0822F089575
:1005500083E997E00E94920221E0892B09F420E0D0
:10056000822F089580E398E00E94920221E0892B77
:1005700009F420E0822F08958DEC98E00E94920209
:1005800021E0892B09F420E0822F0895FC01A48D3D
:10059000A80FB92FB11DA35ABF4F2C91848D90E0A5
:1005A00001968F739927848FA689B7892C93A08988
:1005B000B1898C91837080648C93938D848D981312
:1005C00006C00288F389E02D80818F7D80830895A5
:1005D000EF92FF920F931F93CF93DF93EC0181E093
:1005E000888F9B8D8C8D98131AC0E889F98980813A
:1005F00085FF15C09FB7F894EE89FF896083E8896D
:10060000F98980818370806480839FBF81E090E05E
:10061000DF91CF911F910F91FF90EF900895F62EEB
:100620000B8D10E00F5F1F4F0F731127E02E8C8D85
:100630008E110CC00FB607FCFACFE889F9898081CA
:1006400085FFF5CFCE010E94C602F1CFEB8DEC0FF6
:10065000FD2FF11DE35AFF4FF0829FB7F8940B8FE7
:10066000EA89FB8980818062CFCFCF93DF93EC0151
:10067000888D8823B9F0AA89BB89E889F9898C918A
:1006800085FD03C0808186FD0DC00FB607FCF7CF46
:100690008C9185FFF2CF808185FFEDCFCE010E9446
:1006A000C602E9CFDF91CF91089580E090E0892BD9
:1006B00029F00E94BC0281110E94000080E090E0BD
:1006C000892B29F00E94B20281110E94000080E073
:1006D00090E0892B29F00E94A80281110E9400005D
:1006E00080E090E0892B29F00E949E0281110C94F9
:1006F00000000895282F30E0F901E455FE4F949151
:10070000F901E459FD4F44912A5D3D4FF9012491CF
:10071000222309F435C0992311F191509231F8F454
:10072000E92FF0E08827E856FC4F8F4F0C94FE2904
:10073000C903CD03AA03C103C503AF03D003D60386
:10074000DA03E003E403E803EE03F203AF03F60386
:10075000FC030004809180008F7780938000E22F5B
:10076000F0E0EE0FFF1FEE50FE4FA591B4918FB752
:10077000F894EC91611148C040954E234C938FBF83
:100780000895809180008F7DE8CF80918000877FE1
:10079000E4CF84B58F7784BDE2CF84B58F7DFBCF66
:1007A0008091B0008F778093B000D9CF8091B00056
:1007B0008F7DF9CF809190008F7780939000CFCF7D
:1007C000809190008F7DF9CF80919000877FF5CF49
:1007D0008091A0008F778093A000C1CF8091A0006E
:1007E0008F7DF9CF8091A000877FF5CF8091200188
:1007F0008F7780932001B3CF809120018F7DF9CF37
:1008000080912001877FF5CF4E2BB8CF3FB7F8946A
:100810008091E3049091E404A091E504B091E60492
:1008200026B5A89B05C02F3F19F00196A11DB11D4B
:100830003FBFBA2FA92F982F8827BC01CD01620F87
:10084000711D811D911D42E0660F771F881F991F42
:100850004A95D1F708958F929F92AF92BF92CF920F
:10086000DF92EF92FF924B015C010E9406046B0144
:100870007C010E9406046C197D098E099F09683E5F
:10088000734081059105A8F321E0821A9108A1081F
:10089000B10888EEC80E83E0D81EE11CF11C81145B
:1008A0009104A104B10429F7FF90EF90DF90CF905D
:1008B000BF90AF909F908F9008952FB7F89460915C
:1008C000DF047091E0048091E1049091E2042FBF75
:1008D00008958F929F92AF92BF92FF920F931F93B2
:1008E000CF93DF93FC01F0808FE28F1508F44AC0AC
:1008F000828108E512E0081B110987FD1395000F9E
:10090000111F000F111F8181C8E8D0E0C81BD10959
:1009100087FDD395CC0FDD1FCC0FDD1F4E010D2EB3
:10092000000CAA08BB089801012E000C440B550BC3
:10093000281939094A095B09DB010E94B92924EB0E
:1009400030E040E050E00E948F29820E931EA41EEA
:10095000B51E8C169D062CF0E801801691060CF44D
:10096000E4012297CC0FDD1F2FB7F8948F2D90E074
:10097000FC01EE0FFF1FE80FF91FE25BFB4FD28374
:10098000C1832FBFDF91CF911F910F91FF90BF9037
:10099000AF909F908F9008951F93CF93DF93EC01BA
:1009A000162F8881803308F04DC0862F0E94EC01FD
:1009B0008881282F30E0F901EE0FFF1FE20FF31FAF
:1009C000E25BFB4F1F736081607C612B6083198247
:1009D0001A822CE0622F0E94F229829FB00111241A
:1009E00030E020E0AB01420F531FFA01EE0FFF1F72
:1009F000E40FF51FE25BFB4F908196FD16C02F5F61
:100A00003F4F2C30310571F7813009F5109280008D
:100A100082E0809381001092850010928400B19A48
:100A200080916F00826080936F00E8818E2F90E04C
:100A3000FC01EE0FFF1FE80FF91FE25BFB4F808107
:100A4000806480838881DF91CF911F9108958230E7
:100A500061F4109290008093910010929500109292
:100A6000940088BB80937100E0CF833069F41092CA
:100A7000A00082E08093A1001092A5001092A40033
:100A800089BB80937200D1CF8111CFCF109220010A
:100A900082E08093210110922501109224018ABBEB
:100AA00080937300C2CFAF92BF92CF92DF92EF924A
:100AB000FF920F931F93CF93DF936B017A01EC01A9
:100AC000C75BDB4F28813CE0389F8001399F100DC8
:100AD0001124A0904D04B12C27FF1FC0FB011182EF
:100AE000108288818F5F888388819801280F311D4B
:100AF00087FD3A95F6012A153B051CF488818C3058
:100B0000C4F180819181049680349C4908F473C0BB
:100B1000F60180819181049670C088819801280F28
:100B2000311D87FD3A952A153B05DCF68881A80121
:100B3000480F511D87FD5A95FA01EE0FFF1FE40F74
:100B4000F51FE25BFB4F808186FFCBCF8881F801E8
:100B5000E80FF11D87FDFA95CF01EE0FFF1FE80F9B
:100B6000F91FE25BFB4F808160E08F730E947A0384
:100B7000B8CF808191812881A801420F511D27FDA6
:100B80005A959A01FA01EE0FFF1FE20FF31FE25B85
:100B9000FB4F21813281820F931FF7019183808364
:100BA00088819801280F311D87FD3A95F901EE0FD4
:100BB000FF1FE20FF31FE25BFB4F808186FF22C025
:100BC0008881080F111D87FD1A95F801EE0FFF1F90
:100BD000E00FF11FE25BFB4F808161E08F73DF91DB
:100BE000CF911F910F91FF90EF90DF90CF90BF902A
:100BF000AF900C947A0380E49CE9F70191838083A1
:100C00008FEF8883DF91CF911F910F91FF90EF902D
:100C1000DF90CF90BF90AF9008952091FF03260FF3
:100C20003327331F21323105ECF420912304FC01DA
:100C300090E080E0243069F082E00895A091FF0305
:100C40002191AC0141525C4FA40FB52FB11D2C93E3
:100C50000196861798F38091FF03680F6093FF0356
:100C600080E0089581E008951092230481E080934C
:100C700025041092240461E084E10E947A0361E07B
:100C800085E10E947A03E9EBF0E080818E7F80832A
:100C900080818D7F808388E48093B80085E4809391
:100CA000BC000895CF93DF9391E09093DE038823F7
:100CB000B9F0C091B800D091BA008091BC008A7B95
:100CC0008093BC0060E084E10E947A0360E085E1EB
:100CD0000E947A030E943406D093BA00C093B800F1
:100CE000DF91CF9108950895E091EE048091ED0495
:100CF000E81730F4F0E0E754FC4F808190E008956D
:100D00008FEF9FEF08959091EE048091ED042FEF07
:100D10003FEF981748F4E92FF0E0E754FC4F2081AB
:100D200030E09F5F9093EE04C90108958091ED0437
:100D30009091EE04891B990B0895CF92DF92EF9268
:100D4000FF920F931F93CF93DF937C01CB018A0116
:100D50002091B803222389F0EB016B01C40ED51E4C
:100D6000CC15DD0569F06991D701ED91FC910190F9
:100D7000F081E02DC7011995F3CF642F0E940D0675
:100D8000C801DF91CF911F910F91FF90EF90DF90FD
:100D9000CF900895CF93DF931F92CDB7DEB76983CD
:100DA0002091B8032223F9F02091EB04203258F06F
:100DB00021E030E0FC013383228390E080E00F905B
:100DC000DF91CF9108958091EC04E82FF0E0E85690
:100DD000FC4F998190838F5F8093EC048093EB04A8
:100DE00081E090E0ECCF61E0CE0101960E940D061B
:100DF000F7CFCF92DF92EF92FF920F931F93CF9393
:100E0000DF93FC01C48121E02093B803C0939703D2
:100E10001092EC041092EB048385682B8AE699E02B
:100E20000E94CA06D091EB04D13208F092C00E9411
:100E300006046B017C0180912304811165C082E06E
:100E40008093230481E0809325048FEF8093220414
:100E500010924704D0934604A8E9B3E0E6E2F4E038
:100E600080E0D81385C01092480480914804CC0FCC
:100E7000C82BC093480480912404813009F07CC0C1
:100E8000109224040E9406046B017C0180914804A6
:100E90008093BB008091DA039091DB03A091DC0387
:100EA000B091DD03892B8A2B8B2B99F00E940604CD
:100EB0000091DA031091DB032091DC033091DD0314
:100EC0006C197D098E099F0906171707280739072E
:100ED000E0F18091BC0083FDD9CF85EC8093BC000C
:100EE0000E9406046B017C0180912304823009F486
:100EF00045C0809122048F3F61F1809122048032AD
:100F000041F18091220425C08091DA039091DB03A6
:100F1000A091DC03B091DD03892B8A2B8B2B09F484
:100F20008ACF0E9406040091DA031091DB0320911E
:100F3000DC033091DD036C197D098E099F090617CA
:100F400017072807390708F076CF8091D9030E9448
:100F500052061092EC041092EB041092B803DF9149
:100F6000CF911F910F91FF90EF90DF90CF90089558
:100F70009D9191938F5F75CF85EEB0CF8091DA030D
:100F80009091DB03A091DC03B091DD03892B8A2BC8
:100F90008B2B09F4A9CF0E9406040091DA0310916B
:100FA000DB032091DC033091DD036C197D098E0990
:100FB0009F09061717072807390708F095CFC5CFEF
:100FC00090E080E008958FB7F894809191038FBFEF
:100FD000089561E0FC0184810E947A03809190036E
:100FE00081111092900308958EBD00000DB407FE8C
:100FF000FDCF8EB508958FEF0C94F4070F931F93D8
:10100000CF93DF93EC010E945D048B010E94FB07EC
:101010008F3F69F00E945D04601B710B6C177D07A8
:10102000A8F380E0DF91CF911F910F91089581E0A7
:10103000F9CF8CBD9DBD0895CF93DF93EC018091D6
:101040009003811109C081E080939003809176091B
:10105000909177090E94190860E08C81DF91CF910F
:101060000C947A038F929F92AF92BF92FF920F934C
:101070001F93CF93DF93EC01F62E49015A018E8125
:10108000882389F08F8198859C012F5F3F4F388797
:101090002F838230924018F40E94FB07F3CFCE01D9
:1010A0000E94E9071E82CE010E941C088CE291E09A
:1010B0000E94FE078F2D80640E94F40708E110E073
:1010C000D501C401002E04C0B695A79597958795C4
:1010D0000A94D2F70E94F40708501109083F8FEFD5
:1010E000180771F785E9FF2021F028E087E8F21260
:1010F0008FEF0E94F40710E00E94FB078A8787FFAA
:1011000004C01F3F11F01F5FF7CFDF91CF911F91F8
:101110000F91FF90BF90AF909F908F900895AF92E6
:10112000BF92CF92DF92EF92FF920F931F93CF93D4
:10113000DF93EC016901C801820F931F8130924057
:1011400050F58E81882379F088819981AA81BB81AD
:1011500084179507A607B70731F48F819885C816BD
:10116000D90608F042C0488359836A837B838B8504
:10117000833039F089E0440F551F661F771F8A9529
:10118000D1F79A01AB0161E1CE010E9432088823B8
:1011900089F083E08D83CE010E94E90780E0DF9132
:1011A000CF911F910F91FF90EF90DF90CF90BF9064
:1011B000AF9008950E945D045B010E94FB078A873F
:1011C0008F3F69F40E945D046A197B096D3271409A
:1011D000A0F38FE08D83CE010E94E907DCCF8E3F24
:1011E00089F418861F8281E08E838F8198858C1503
:1011F0009D0550F40E94FB078F8198850196988782
:101200008F83F3CF8DE0E6CF6701E00EF11E0E94E1
:10121000FB07F60181936F01EE15FF05C1F78F8182
:101220009885080F191F18870F838985882319F05F
:1012300001151240A0F08E81882389F08F81988556
:101240009C012F5F3F4F38872F838230924018F4E4
:101250000E94FB07F3CFCE010E94E9071E8281E0C6
:101260009ECFCF92DF92EF92FF920F93CF93DF93B7
:10127000EC01690182E1411551056105710599F0A3
:101280008B85833039F089E0440F551F661F771F27
:101290008A95D1F79A01AB0168E1CE010E9432082C
:1012A000882319F084E08D832DC08EEF0E94F4070F
:1012B00076018EEFD81AF70181917F010E94F40721
:1012C000EC14FD04C1F78FEF0E94F4078FEF0E942A
:1012D000F4070E94FB078A878F71853071F4011132
:1012E00016C0CE010E94E90781E0DF91CF910F91F6
:1012F000FF90EF90DF90CF90089581E18D83CE0134
:101300000E94E907CE010E94E90780E0EECF88E560
:1013100092E00E94FE07811102C085E1C4CF20E067
:1013200030E0A9016DE0CE010E943208882311F05F
:1013300084E1B9CF0E94FB078111FACFD2CF0F937E
:10134000409193035091940360919503709196039B
:10135000411551056105710599F0082F26EF34E01C
:101360008091F4049091F5040E943109882349F09A
:101370001092930310929403109295031092960387
:1013800081E00F9108950F93CF93C82F809192031E
:10139000811105C0C1E08C2FCF910F91089540912C
:1013A00000025091010260910202709103020C2F21
:1013B00026EF34E08091F4049091F5040E94310905
:1013C000811102C0C0E0E7CFCC2321F381E00E946D
:1013D0009F098823B9F310929203DDCF8F929F92D9
:1013E000AF92BF92EF92FF920F931F93CF934B0157
:1013F0005C01C42F8091000290910102A091020231
:10140000B091030288159905AA05BB0551F181E049
:101410000E94C30981110BC080E0CF911F910F91F1
:10142000FF90EF90BF90AF909F908F90089586EFC0
:10143000E82E84E0F82E00E012E030E020E0B50174
:10144000A4018091F4049091F5040E948F088823F0
:1014500019F38092000290920102A0920202B092CF
:101460000302409192034C2B4093920381E0D5CF2D
:10147000CF93DF93EC016E857F858889998941E060
:101480000E94EE09882351F08A8920E2829FC001E0
:1014900011248A509B4FDF91CF91089590E080E016
:1014A000FACF8F929F92AF92BF92CF92DF92EF923C
:1014B000FF92CF9328E739E03093F5042093F404AA
:1014C000882309F46DC040E060E070E0CB010E9429
:1014D000EE0981110BC080E0CF91FF90EF90DF907B
:1014E000CF90BF90AF909F908F9008958091B40659
:1014F0008F7789F78091C0069091C106A091C206AE
:10150000B091C30684369105A105B10520F3C090C2
:10151000BC06D090BD06E090BE06F090BF06C11498
:10152000D104E104F104B9F240E0C701B6010E9420
:10153000EE09882381F280910105909102058115C1
:10154000924049F6A0910605AA2329F2609104056C
:10155000709105056115710509F4BDCF2091030552
:10156000222309F4B8CFA09396092093880990E02C
:1015700080E030E0E1E0F0E0C82FAF01082E02C0CB
:10158000440F551F0A94E2F72417350769F041E02C
:10159000480F01968930910579F7409391099BCFC7
:1015A000C12CD12C7601C0CF8093910920910C05DC
:1015B00030910D0550E040E02115310541F42091B6
:1015C0001A0530911B0540911C0550911D05209373
:1015D000890930938A0940938B0950938C094601FD
:1015E0005701860E971EA11CB11C809297099092FC
:1015F0009809A0929909B0929A09E0910705F09193
:101600000805F0939D09E0939C09B0E00E94AE2983
:10161000DC01CB01880D991DAA1DBB1D80939E097D
:1016200090939F09A093A009B093A10925E0EE0F24
:10163000FF1F2A95E1F7E150FE4FEF2FFF27E695B8
:101640008E0F9F1FA11DB11D809392099093930946
:10165000A0939409B09395098090090590900A058C
:10166000B12CA12C8114910441F480901605909026
:101670001705A0901805B0901905C81AD90AEA0AEA
:10168000FB0AC80CD91CEA1CFB1C04C0F694E794A6
:10169000D794C794CA95D2F7C0928D09D0928E097B
:1016A000E0928F09F092900985EFC8168FE0D80676
:1016B000E104F10428F48CE080939B0981E00CCFD5
:1016C00080E125EFC2162FEFD206E104F104A0F36A
:1016D0008091220590912305A0912405B0912505C4
:1016E00080939E0990939F09A093A009B093A109AC
:1016F00080E2E2CF4F925F926F927F928F929F92A1
:10170000AF92BF92CF92DF92EF92FF920F931F930F
:10171000CF93DF93EC01423051056105710590F4E0
:1017200080E0DF91CF911F910F91FF90EF90DF90BC
:10173000CF90BF90AF909F908F907F906F905F9071
:101740004F90089589859A85AB85BC850196A11D2A
:10175000B11D84179507A607B70710F3CB88DC885F
:10176000ED88FE888F89803109F042C0BB27A72F02
:10177000962F852F480159012A013B01C80ED91E19
:10178000EA1EFB1E8091000290910102A0910202CC
:10179000B0910302C816D906EA06FB0699F58F89AF
:1017A0008031C1F5B301A201552766277727440F81
:1017B000551F4A505B4FFA019182808280919203BB
:1017C0008160809392038A89823080F08D819E812E
:1017D000AF81B8858C0D9D1DAE1DBF1D80939303F9
:1017E00090939403A0939503B093960381E099CFCF
:1017F000DB01CA01E7E0B695A79597958795EA952D
:10180000D1F7B8CF40E0C701B6010E94EE098111BF
:10181000C6CF86CFB301A2014F775527662777271A
:10182000440F551F440F551F4A505B4FFA018082E9
:101830009182A282B382C2CF8F929F92AF92BF92C7
:10184000CF92DF92EF92FF920F931F93CF93DF938C
:10185000FC0181859285A385B4850196A11DB11DEA
:1018600084179507A607B70770F480E0DF91CF9142
:101870001F910F91FF90EF90DF90CF90BF90AF90AE
:101880009F908F90089583889488A588B6888789CB
:10189000803189F5BB27A72F962F852FE9016A0193
:1018A0007B018F01BC01CD01680D791D8A1D9B1D37
:1018B0008090000290900102A0900202B09003027A
:1018C00086169706A806B90601F5F80187898031C2
:1018D00011F5DD24EE24FF24F601EE0FFF1FEA5080
:1018E000FB4F80819181B0E0A0E088839983AA8337
:1018F000BB8381E0BBCFDB01CA01C7E0B695A795EA
:1019000097958795CA95D1F7C9CF40E00E94EE0917
:101910008111DBCFAACFE894C7F8DD24EE24FF24A1
:10192000F601EE0FFF1FEE0FFF1FEA50FB4F808105
:101930009181A281B381BF70D8CF4F925F926F9295
:101940007F92AF92BF92CF92DF92EF92FF920F936E
:101950001F93CF93DF9300D01F92CDB7DEB78C01DA
:1019600049835A836B837C835901C12CD12C760126
:10197000412C82E0582E612C712C49815A816B8157
:101980007C819E012F5F3F4FC8010E941C0C882361
:1019900039F1F8018585A301920104C0220F331F9C
:1019A000441F551F8A95D2F7DA01C901C80ED91E06
:1019B000EA1EFB1E49815A816B817C8187898031B7
:1019C00011F188EF9FEFAFEFBFE0481759076A07A3
:1019D0007B0798F2F501C082D182E282F38281E036
:1019E0000F900F900F900F90DF91CF911F910F915B
:1019F000FF90EF90DF90CF90BF90AF907F906F906F
:101A00005F904F90089588EF9FEFA0E0B0E0DDCFAA
:101A1000CF93DF93FC012581222321F080E0DF9129
:101A2000CF910895EC0180919B09803159F582E0B6
:101A30008583178A108E118E128E80919C09909149
:101A40009D09B0E0A0E025E0880F991FAA1FBB1FE9
:101A50002A95D1F7838B948BA58BB68B84E899E07C
:101A60009C8F8B8F81E08C831E821F821886198643
:101A70001A861B861C861D861E861F86188A198A52
:101A80001A8ACDCF803251F683E0858340919E093A
:101A900050919F096091A0097091A109478B508FC7
:101AA000618F728F9F012D5E3F4F84E899E00E9405
:101AB0009D0C8111D3CFB2CF8F929F92AF92BF92E4
:101AC000CF92DF92EF92FF920F931F93CF93DF930A
:101AD000EC018D8181110EC080E0DF91CF911F91CB
:101AE0000F91FF90EF90DF90CF90BF90AF909F90BD
:101AF0008F9008950B891C892D893E89041715073D
:101B00002607370748F34A015B01823031F48A86A1
:101B10009B86AC86BD8681E0E0CF81149104A10450
:101B2000B10449F41E821F82188619861A861B8604
:101B30001C861D86F0CF0A851B852C853D85EB8D87
:101B4000FC8D858590E00996B901A80141505109A5
:101B500061097109082E04C07695679557954795D8
:101B60000A94D2F775016401E1E0CE1AD108E108C8
:101B7000F10804C0F694E794D794C7948A95D2F7F5
:101B8000C416D506E606F70620F0012B022B032B20
:101B900011F58F89988DA98DBA8D8E839F83A88723
:101BA000B9878E010A5F1F4FC114D104E104F1040B
:101BB00009F4ADCF4E815F816885798598018B8D61
:101BC0009C8D0E941C0C91E0C91AD108E108F10813
:101BD0008111EACF81CFC41AD50AE60AF70AE1CF0C
:101BE0003F924F925F926F927F928F929F92AF92AD
:101BF000BF92CF92DF92EF92FF920F931F93CF93FA
:101C0000DF93CDB7DEB72C970FB6F894DEBF0FBECB
:101C1000CDBF5C01DC015B968D909C905C97169625
:101C20004D905D906D907C90199741145104610422
:101C3000710409F468C0BFEF4B1A5B0A6B0A7B0A98
:101C4000312CF40181859285A385B4859C01AD0179
:101C50002F5F3F4F4F4F5F4F29873A874B875C87F6
:101C6000730162011D821E821F821886F401818524
:101C70009285A385B4852D813E814F815885281793
:101C800039074A075B0708F056C089859A85AB85F6
:101C9000BC858C159D05AE05BF0550F482E0C82EAD
:101CA000D12CE12CF12C92E0492E512C612C712C7D
:101CB0009E012F5F3F4FB701A601C4010E941C0C7B
:101CC0008823C9F189819A81AB81BC81892B8A2BB8
:101CD0008B2B09F1260137019FEF491A590A690A2E
:101CE000790A2D813E814F8158852F5F3F4F4F4F9D
:101CF0005F4F2D833E834F8358873FEFC31AD30A2C
:101D0000E30AF30AB3CFF40140805180628073800C
:101D10003324339496CFC414D504E604F70409F7AA
:101D20000FEF1FEF2FEF3FE0B701A601C4010E94A4
:101D30007A0B811119C080E02C960FB6F894DEBFA3
:101D40000FBECDBFDF91CF911F910F91FF90EF900C
:101D5000DF90CF90BF90AF909F908F907F906F90CB
:101D60005F904F903F900895D50116964D915D91EB
:101D70006D917C911997411551056105710539F0F7
:101D800097018601C4010E947A0B8823A1F2D50134
:101D90001696CD92DD92ED92FC921997332051F078
:101DA000D701C6010196A11DB11DF4018083918365
:101DB000A283B383F5018789908DA18DB28D892B84
:101DC0008A2B8B2B39F48481C78AD08EE18EF28ED8
:101DD00080688483F50184818062848381E0ACCF54
:101DE0001F93CF93DF93FC012581222371F1162FDE
:101DF000EC01848187FF1EC0CF010E94380AFC01DC
:101E0000892B19F18D81823040F48B899C89AD89B1
:101E1000BE89848F958FA68FB78F8F89988D938F6A
:101E2000828F8F89988DA98DBA8DB58BA48B8C816B
:101E30008F778C83111103C08C818F7E8C83812FCF
:101E4000DF91CF911F910C94C30980E0DF91CF9176
:101E50001F910895FF920F931F93CF93DF93EC018F
:101E60008D81813041F090E080E0DF91CF911F9132
:101E70000F91FF9008958C8181FFF5CF82FD1BC0EB
:101E80000091F4041091F504C8010E941C080E94FE
:101E9000FB07F82EC8010E94E9078FEFF812E3CF85
:101EA0008C8185FF1BC060E0CE010E94F00E8C810A
:101EB0008F7D8C83D8CF4B895C896D897E898A859B
:101EC0009B85AC85BD8584179507A607B707C1F22A
:101ED000CE010E945C0D8111D3CFC5CF40919303F9
:101EE000509194036091950370919603452B462B76
:101EF000472B21F080E00E949F09B5CF80618C8341
:101F00002A853B85317080E092E0821B930BADCF38
:101F1000CF93DF93EC0161E00E94F00E882311F073
:101F20001D8281E0DF91CF9108952F923F924F92D1
:101F30005F926F927F928F929F92AF92BF92CF9259
:101F4000DF92EF92FF920F931F93CF93DF9300D016
:101F50001F921F92CDB7DEB77C015B01342E5D83EB
:101F6000DC0115968C911597813009F0CEC014963E
:101F70002C9021FECAC022FCB4C0C32CDD80229468
:101F80007FE027222094B22DB1702B2ED7011A9614
:101F90004D915D916D917C911D97C114D10409F40F
:101FA00028C15B968D919C915C97FC0174807A941A
:101FB0008A019B0169E036952795179507956A95E3
:101FC000D1F770228A011170711020C0011511051E
:101FD000E9F416964D915D916D917C91199741159B
:101FE00051056105710509F099C057968D919D9134
:101FF0000D90BC91A02D0097A105B10509F0B0C0CE
:10200000C7010E94F00D882309F47FC080E092E0B0
:10201000801B910B46018C159D0508F44C01D701DE
:102020005B964D915C915C9716968D919D910D906C
:10203000BC91A02D0297A109B109FA01258504C020
:10204000880F991FAA1FBB1F2A95D2F7468557856F
:1020500060897189840F951FA61FB71F9C01AD0170
:10206000270D311D411D511D29013A01811432E016
:10207000930609F07BC08091000290910102A0912B
:102080000202B091030284159505A605B70559F41F
:102090008FEF9FEFDC018093000290930102A093E9
:1020A0000202B0930302022D9501B301A2018091B7
:1020B000F4049091F5040E943109882331F19EEFD8
:1020C000B91AC818D908F70182859385A485B58502
:1020D000880D991DA11DB11D82879387A487B5879F
:1020E00055CFF7014389548965897689828593851F
:1020F000A485B585481759076A077B0709F43DCFC2
:10210000C7010E945C0D811138CF81E090E0D701BA
:1021100013969C938E93129780E007C09E012F5FC9
:102120003F4F0E941C0C811102C090E079C0898150
:102130009A81AB81BC81F701238D348DF901278908
:1021400048EF5FEF60E070E0203121F048EF5FEF93
:102150006FEF7FE084179507A607B70708F050CF09
:10216000F70186839783A087B18750CF01151105AA
:1021700099F5D7011A964D915D916D917C911D97BE
:1021800053968D919D910D90BC91A02D48175907A4
:102190006A077B0708F181E00E94C309882309F4DC
:1021A000B4CF4092000250920102609202027092FB
:1021B000030280919203816080939203C8018A5048
:1021C0009B4FD5019C01280D391DFC012E173F079F
:1021D00059F04D914193FACF41E0C301B2010E9401
:1021E000EE098111EBCF91CF281B390BA20EB31E44
:1021F00068CFF70183899489A589B68984179507E3
:10220000A607B70738F48481438B548B658B768B94
:1022100080688483F701848183FD1AC0832D9D81AA
:102220000F900F900F900F900F90DF91CF911F9113
:102230000F91FF90EF90DF90CF90BF90AF909F9065
:102240008F907F906F905F904F903F902F90089568
:1022500061E0C7010E94F00E882309F456CFDECF5B
:10226000CF93DF931F92CDB7DEB7698341E050E093
:10227000BE016F5F7F4F0E94950F0F90DF91CF914E
:102280000895FC01DB0112968D919C911397938325
:1022900082838AE392E09183808314968C911497D1
:1022A000848315968C911597858316964D915D9133
:1022B0006D917C91199746835783608771871A9631
:1022C0004D915D916D917C911D97428753876487F5
:1022D00075871E964D915D916D917C9151974687C2
:1022E0005787608B718B52968C915297828B539645
:1022F0004D915D916D917C915697438B548B658B7D
:10230000768B57964D915D916D917C915A97478B45
:10231000508F618F728F5B968D919C91948F838F7C
:102320000895FC01818D928D009719F061E00C9465
:10233000F00E0895DC015996ED91FC913097B9F0BB
:1023400083899489A589B689428553856485758575
:10235000841B950BA60BB70B811520E89207A105EE
:10236000B10538F08FEF9FE7A0E0B0E0089590E06E
:1023700080E00895DC0159968D919C91009739F089
:10238000DC01ED91FC910480F581E02D199490E041
:1023900080E00895CF93DF93EC01E98DFA8D3097BB
:1023A00049F481E090E09B838A8390E080E0DF91B4
:1023B000CF91089513821282898D9A8D0E94950F74
:1023C000E98DFA8D22813381232B59F7F0CFCF93FA
:1023D000DF931F92CDB7DEB76983DC01ED91FC91ED
:1023E0000280F381E02D41E050E0BE016F5F7F4F3E
:1023F00019950F90DF91CF9108952F923F924F92B0
:102400005F926F927F928F929F92AF92BF92CF9284
:10241000DF92EF92FF920F931F93CF93DF9300D041
:10242000CDB7DEB7FC018581811118C08FEF9FEF1A
:102430000F900F900F90DF91CF911F910F91FF9010
:10244000EF90DF90CF90BF90AF909F908F907F9054
:102450006F905F904F903F902F900895848180FF00
:10246000E5CF438954896589768982859385A485DA
:10247000B585312C212C481759076A077B0719F0BD
:1024800022242394312C6F012101CE0101963C01BD
:10249000DF011696BB83AA834114510409F4C5C019
:1024A000F60142855385648575854A01F1E09F22D6
:1024B000D6015B968D919C915C978A019B01E9E026
:1024C0003695279517950795EA95D1F71596EC91CE
:1024D000E230E9F5FC01628D738D848D958D600F7E
:1024E000711F821F931FA12C22E0B22EA818B908D9
:1024F0004A145B0408F45201F601248126FD04C04D
:10250000A114F2E0BF0671F40091000210910102E3
:102510002091020230910302061717072807390796
:1025200009F05EC040E00E94EE09882309F47ECFE6
:10253000C4018A509B4FD3019C012A0D3B1DFC0115
:102540002E173F0709F46CC041914D93F9CFDC0180
:102550001496BC90BA94B0228114910479F4B1100D
:102560000DC0452B462B472B69F5F6018789908DC9
:10257000A18DB28D86839783A087B187D6015B96A4
:10258000ED91FC915C9716966D917D918D919C914A
:1025900019976250710981099109258504C0660F58
:1025A000771F881F991F2A95D2F7068517852089DE
:1025B0003189600F711F821F931F6B0D711D811D6B
:1025C000911D91CFD60116964D915D916D917C91A3
:1025D00019972A813B810E941C0C8111CFCF26CFF5
:1025E000730185019401AB01BC018091F4049091C9
:1025F000F5040E948F08882309F418CF6A0C7B1C0D
:10260000F60182859385A485B5858A0D9B1DA11D44
:10261000B11D82879387A487B5874A185B083CCF92
:10262000281B390B620E731EEBCF2A94232809F066
:10263000FDCE898190E0FCCEFC01818D928D0097CA
:1026400011F00C94FD118FEF9FEF08950F931F93DE
:10265000CF93DF93EC01898D9A8D10E000E0009715
:1026600099F00E94FD118C010F3F100769F0898DD0
:102670009A8DFC01428553856485758541505109C9
:10268000610971090E945C0DC801DF91CF911F9112
:102690000F9108958F929F92AF92BF92CF92DF9247
:1026A000EF92FF920F931F93CF93DF9300D01F926F
:1026B000CDB7DEB7FC018581813091F080E00F90CD
:1026C0000F900F900F90DF91CF911F910F91FF907E
:1026D000EF90DF90CF90BF90AF909F908F90089534
:1026E000848181FFEBCF83899489A589B689892B61
:1026F0008A2B8B2B09F45FC07F0140E050E0BA01C8
:10270000CF010E945C0D8823C9F2F701C38CD48CE1
:102710008788908CA18CB28C82E090E0A0E0B0E041
:10272000F60180839183A283B3839E012F5F3F4F85
:10273000B501A401C6010E941C0C882309F4BECF78
:1027400000E010E09801B501A401C6010E947A0BD7
:10275000882309F4B3CF89809A80AB80BC80F601CE
:102760008789803119F188EF9FEFAFEFBFE08816BE
:102770009906AA06BB06C8F2F701178A108E118EB9
:10278000128E138A148A158A168A8481806884833B
:1027900061E0C7010E94F00E882309F48FCF40E06A
:1027A00050E0BA01C7010E945C0D89CF88EF9FEF0E
:1027B000A0E0B0E0DCCF81E082CFCF92DF92EF9259
:1027C000FF921F93CF93DF93EC0180E2689FF001AB
:1027D0001124EA50FB4F9385917161F0842F82742C
:1027E00049F080E0DF91CF911F91FF90EF90DF9053
:1027F000CF900895142F6A8B80910002909101026E
:10280000A0910202B09103028E879F87A88BB98B9B
:10281000C488D588F12CE12C7601DD24CC24CF8A24
:10282000D88EE98EFA8E828D938DB0E0A0E0AC0157
:10283000BD014C295D296E297F294F8B588F698FE7
:102840007A8F83858871B1F4848D958DA68DB78D2F
:102850008B8B9C8BAD8BBE8B81E08D831F701C831B
:102860001E821F82188619861A861B861C861D8664
:1028700081E0B8CF803109F0B4CF9E012D5E3F4F8B
:102880008B8D9C8D0E949D0C882309F4AACF84E037
:10289000E4CF0F931F93CF938C01C62F0E94F906AC
:1028A0006C2F6460C8010E94F9066C2F6B7FC80111
:1028B0000E94F90683EC90E00197F1F7CF911F9108
:1028C0000F9108950F931F93CF93DF938C01D62F11
:1028D000C42F607F642B0E94491480E1D89FB0010F
:1028E00011246C2BC801DF91CF911F910F910C9493
:1028F000491440E061E088EE99E00E9462148BE3A5
:102900009FE10197F1F70895CF93DF9300D000D0B6
:102910001F921F92CDB7DEB798E0EAE0F2E0DE0149
:10292000119601900D929A95E1F79091F009961702
:1029300008F46FEF262F30E0220F331F41E050E004
:102940004C0F5D1F240F351FF9016081680F60680F
:1029500040E088EE99E028960FB6F894DEBF0FBEEF
:10296000CDBFDF91CF910C94621441E00E946214BC
:1029700081E090E008958091DA099091DB09009759
:1029800061F00E94880F8091DA099091DB090E9422
:10299000A22A1092DB091092DA090895FC018081C5
:1029A0009181009711F00C94A22A0895FB010190E7
:1029B0000020E9F73197AF01461B570BDC01ED9181
:1029C000FC910280F381E02D19944F925F926F92F7
:1029D0007F928F929F92AF92BF92CF92DF92EF92AF
:1029E000FF920F931F93CF93DF93CDB7DEB7A197DD
:1029F0000FB6F894DEBF0FBECDBF8C016B01770F11
:102A0000EE08FF08F7FE49C0DC01ED91FC91019052
:102A1000F081E02D6DE219955C0122273327A90191
:102A20002C193D094E095F0919A2FE01B1967F01DB
:102A30009AE0492E512C612C712CCA01B901A301D5
:102A400092010E94C129605DD7016E937D0121151D
:102A500031054105510589F790E080E0109721F09C
:102A6000BD01C8010E94D6148A0D9B1DA1960FB608
:102A7000F894DEBF0FBECDBFDF91CF911F910F91B4
:102A8000FF90EF90DF90CF90BF90AF909F908F908E
:102A90007F906F905F904F900895A701960119A2C3
:102AA000FE01B1967F018AE0882E912CA12CB12CD9
:102AB000CA01B901A50194010E94C129605DD70135
:102AC0006E937D01211531054105510589F790E08F
:102AD00080E0109759F2BD01C8010E94D614C6CFFC
:102AE0000F931F93CF93DF93EC010E94E5148C01A9
:102AF00060E672E0CE010E94D614800F911FDF9134
:102B0000CF911F910F9108950F931F93CF93DF9350
:102B1000EC010E940B028C0160E672E0CE010E9483
:102B2000D614800F911FDF91CF911F910F910895BF
:102B30000F931F93CF93DF93EC010E94D6148C0167
:102B400060E672E0CE010E94D614800F911FDF91E3
:102B5000CF911F910F9108950C94D6142091160ACD
:102B60003091170ADC0114964D915C91159724174A
:102B70003507D9F4E091120AF091130A6D917C9116
:102B80003097D1F06115710599F4232BC1F0808144
:102B900090E008C0232B99F0FB01808190E0919593
:102BA0008195910921E0892B09F020E0822F089579
:102BB000CF010E942D2CF6CF6115710559F721E048
:102BC000F5CF0F931F93CF93DF938C01EB01FC01A3
:102BD000808191810097E1F06881798161157105AB
:102BE000A9F0428153812C813D814217530770F037
:102BF0000E94362C8C819D81F801958384831D82EF
:102C00001C82DF91CF911F910F9108950E94A22AFB
:102C100088819981F801918380838A819B81938344
:102C200082838C819D8195838483198218821B8283
:102C30001A82E5CF0F931F93CF93DF93EC01888126
:102C40009981009759F02A813B812617370730F088
:102C500081E0DF91CF911F910F9108958B016F5FFC
:102C60007F4F0E942B2B009759F0998388831B83F9
:102C70000A832C813D81232B59F7FC011082E8CF78
:102C800080E0E7CFEF92FF920F931F93CF93DF93F4
:102C90001F921F92CDB7DEB78C0169831A82FC01A7
:102CA000E480F580FFEFEF1AFF0AB7010E941A16C1
:102CB000882381F0F8012081318184819581BE01D2
:102CC0006F5F7F4F820F931F0E94362CF801F582B1
:102CD000E48281E00F900F90DF91CF911F910F91CF
:102CE000FF90EF900895EF92FF920F931F93CF9371
:102CF000DF93EC017B018A01BA010E941A16288138
:102D00003981811114C02115310519F0C9010E94C2
:102D1000A22A198218821D821C821B821A82CE016D
:102D2000DF91CF911F910F91FF90EF9008951D8338
:102D30000C83B701C9010E94362CF1CFFB01DC01E5
:102D400011961C921E9213961C921E921297159623
:102D50001C921E9214978617970749F06081718123
:102D60006115710521F0448155810C947316089505
:102D7000FC01118210821382128215821482FB01DF
:102D800001900020E9F73197AF01461B570B0C94D7
:102D90007316CF92DF92EF92FF920F931F93CF9310
:102DA000DF93EC016B017A014617570720F48D2D54
:102DB0006A01E62EF82E62E672E0CE010E94B81695
:102DC0000091220A1091230AC016D10640F5E016A0
:102DD000F10608F48701E0911E0AF0911F0AE00F46
:102DE000F11FF080108260911E0A70911F0A6C0D15
:102DF0007D1D61157105E9F0FB0101900020E9F7E7
:102E00003197AF01461B570BCE010E94731680917C
:102E10001E0A90911F0A080F191FF801F082CE01B7
:102E2000DF91CF911F910F91FF90EF90DF90CF90A6
:102E3000089588819981009711F00E94A22A198231
:102E400018821D821C821B821A82E1CF85ED80933D
:102E5000BC008091DA039091DB03A091DC03B09178
:102E6000DD030796A11DB11D23E0B695A7959795A3
:102E700087952A95D1F72091BC0024FD03C01092BC
:102E8000230408954091DA035091DB036091DC0341
:102E90007091DD03452B462B472B69F30097A10565
:102EA000B10541F025E32A95F1F700000197A1094A
:102EB000B109E1CF8091D9030C9452063F924F9211
:102EC0005F926F927F928F929F92AF92BF92CF92BA
:102ED000DF92EF92FF920F931F93CF93DF9300D077
:102EE00000D000D01F921F92CDB7DEB77C01FE014B
:102EF0003196CE010C966F0130E231938E179F0709
:102F0000E1F7DA0130E087E09D91B92E992309F4C9
:102F10003CC09E32F1F48A30C9F480E02B960FB6A3
:102F2000F894DEBF0FBECDBFDF91CF911F910F91FF
:102F3000FF90EF90DF90CF90BF90AF909F908F90D9
:102F40007F906F905F904F903F90089538E08AE0B7
:102F5000DBCFECE9F1E04491442321F03196941366
:102F6000FACFDBCF8317C8F24FED490F4E35A8F6E5
:102F70004FE9490F4A3118F440EEB42EB90EF6016C
:102F8000E30FF11DB0823F5FBFCF8981803229F20C
:102F9000322E8B01DB015B968D919C915C97F70142
:102FA000948F838F16961D921D921D921C921997D5
:102FB000FB011286138614861586F8018285938597
:102FC000A485B585438954896589768984179507D1
:102FD000A607B70708F04DC025E0B695A7959795C9
:102FE00087952A95D1F7F82FFF70AF2ED801159647
:102FF0008C91823008F491CFC8010E94FD1197FD99
:103000008CCFF80182859385A485B5854F96A11D47
:10301000B11D82879387A487B587F0E2AF9EB00188
:1030200011246A507B4F6115710509F476CFDB01DD
:103030008C91882341F0853E09F058C0BB2029F0CF
:10304000BB24B394BACFB1100EC0F701A28A80910D
:10305000000290910102A0910202B09103028687C2
:103060009787A08BB18BDB018C918111E9CFBB24B9
:10307000B394832D8271823109F04FCFBB2009F4C4
:1030800043C0C7010E94380A009709F446CF20E2E6
:10309000FC0111922A95E9F72BE0F601DC01019081
:1030A0000D922A95E1F721E238E2DC0151963C933A
:1030B0002E93509740E058E01F965C934E931E97D6
:1030C00053963C932E93529759963C932E93589730
:1030D00057965C934E93569781E00E94C3098823CC
:1030E00009F41BCF432DF70162890AC04BE050E081
:1030F000C6010E940C2C892B09F05FCF432D6A2D4D
:10310000C7010E94DD130ACFF8018581823009F4DE
:1031100004CFC8010E94F00D882309F4FECED80127
:103120005B96ED91FC915C9716968D909D90AD907D
:10313000BC901997B2E08B1A9108A108B108858557
:1031400004C0880C991CAA1CBB1C8A95D2F78685E2
:103150009785A089B189880E991EAA1EBB1E8481FD
:1031600024013501480E511C611C711C481459047E
:103170006A047B0409F1E1E04E1A51086108710804
:1031800081E00E94C309882309F4C7CEE6EFF4E08A
:10319000119286EF96E08E179F07D1F740920002BA
:1031A0005092010260920202709203028091920397
:1031B000816080939203DACFD8015B96ED91FC9108
:1031C000258580E092E0A0E0B0E004C0880F991F60
:1031D000AA1FBB1F2A95D2F7F80143895489658934
:1031E0007689840F951FA61FB71F838B948BA58BA1
:1031F000B68BD70152961C9286EF94E048CF9F92EF
:10320000AF92BF92CF92DF92EF92FF920F931F93F4
:10321000CF93DF93CDB7DEB7C456D1090FB6F8947C
:10322000DEBF0FBECDBF6C011EAE1DAE8AE392E0C5
:103230009CAF8BAF21961FAE219719A218A29F8F2A
:103240008E8F1BA2A12C912C7E018BE3E80EF11C2A
:1032500002EA19E08A2D992DF601E80FF91F208165
:103260002F3209F40196D601A80FB91FFE01E85AC2
:10327000FF4F30E020E0AF016D916F3249F06623DF
:1032800039F001962F5F3F4F61932C303105A1F744
:10329000240F351FF9011082F601E80FF91F208174
:1032A0002F3209F40196A82E992E8C0D9D1DFC013C
:1032B000808181112BC01C821B828AE392E09A8359
:1032C00089831E8222E0B801CE0101960E945E171A
:1032D0008823A9F0CE0101960E944A13882379F031
:1032E000CE0101960E94380A009749F025EEFC01B4
:1032F00020831E8281E00E94C30981111BC0F9E076
:10330000023A1F0709F041C080E01CC0F701858127
:10331000811136C021E0B801C7010E945E17B82EA6
:1033200089E0023A180709F1C8010E94880FB1101C
:1033300021C0EACFF9E0023A1F0719F0C8010E9444
:10334000880F81E0CC59DF4F0FB6F894DEBF0FBE77
:10335000CDBFDF91CF911F910F91FF90EF90DF9044
:10336000CF90BF90AF909F900895BB2069F28E01DF
:10337000025E1F4F902F812F8701E92EF82E6ACF12
:1033800089E0023A180709F4BFCFC8010E94880FEC
:10339000BBCFEF92FF920F931F93CF93DF93EC017C
:1033A0007B018A011B821A8288EE93E0A0E0B0E0E4
:1033B0008C839D83AE83BF8386E492E09983888368
:1033C0008DE190E00E94062A9A8F898F009779F00C
:1033D0002DE1F701DC0101900D922A95E1F74CE017
:1033E00050E0B801CE010C960E943D2C188EDF9162
:1033F000CF911F910F91FF90EF9008952F923F92E0
:103400004F925F926F927F928F929F92AF92BF92F4
:10341000CF92DF92EF92FF920F931F93CF93DF93A0
:10342000CDB7DEB7C756D1090FB6F894DEBF0FBED1
:10343000CDBF6C015B01A6964FAFA69719A218A24B
:103440008AE392E09F8F8E8F1BA21C821B829A833D
:1034500089831E824E018EE1880E911CC4010E9458
:10346000080D75018E010F5F1F4F240118016FE2D7
:1034700070E0C7010E94222C009709F45DC0F7019B
:1034800020812F3271F4FFEFEF1AFF0A902F812F66
:103490008201492E582E942D852D2801092F182F91
:1034A000E6CF8E198D3008F08CE0682E712CA301C8
:1034B000B701CE01885A9F4F0E943D2CE8E5F0E00D
:1034C000EC0FFD1FE60DF71D1082C8010E94880F4A
:1034D000F8018581882301F11EAE1DAE8AE392E0DA
:1034E0009CAF8BAF21961FAE2197A896EEADFFAD96
:1034F000A897AE0EBF1EF501808181112AC0BE01C2
:10350000655C7F4FC1010E94411143E652E0B10169
:10351000C6010E94C9193BC021E0AE01485A5F4F65
:10352000B201C8010E945E178823B1F2E60CF71CB5
:10353000C2010E94880FAFCFC7018A199B09A896C4
:103540009FAF8EAFA897B201CE01CB960E944111DA
:10355000CCCF19A218A28AE392E09F8F8E8F1BA274
:1035600021968FAD219781112DC0F6011382128211
:1035700088EE93E0A0E0B0E084839583A683B783D0
:1035800086E492E091838083128E118E1486C601A8
:10359000C959DF4F0FB6F894DEBF0FBECDBFDF9124
:1035A000CF911F910F91FF90EF90DF90CF90BF9040
:1035B000AF909F908F907F906F905F904F903F90D3
:1035C0002F900895A6962FADA697A501BE01655C24
:1035D0007F4FC4010E945E17882339F2CE01CB963B
:1035E0000E94880FA6968FADA6978670863039F414
:1035F00049A95AA96BA97CA9C4010E945C0DB40118
:10360000C1010E944111A50182CFCF93DF9300D069
:1036100000D0CDB7DEB781EC99E00E949A11181660
:10362000190654F481EC99E00E941C13682F8EE176
:103630009AE00E944216EFCF8091220A9091230ACD
:10364000181619060CF045C048E050E070E060E044
:10365000CE0101960E94C916BE016F5F7F4F82E1C5
:103660009AE00E94E115CE0101960E94CE144BE033
:1036700050E069E070E0CE0101960E94C916BE01DB
:103680006F5F7F4F88E19AE00E94E115CE010196BD
:103690000E94CE144DE050E06CE070E0CE01019647
:1036A0000E94C916BE016F5F7F4F8CE09AE00E94B6
:1036B000E115CE0101960E94CE148091180A9091D6
:1036C000190A009779F00E9453297093F1046093CE
:1036D000F00426960FB6F894DEBF0FBECDBFDF9183
:1036E000CF91089560E070E0CB01EFCF1F920F9271
:1036F0000FB60F9211240BB60F922F933F934F9357
:103700005F936F937F938F939F93AF93BF93EF9349
:10371000FF9386EF96E00E94C602FF91EF91BF9162
:10372000AF919F918F917F916F915F914F913F9159
:103730002F910F900BBE0F900FBE0F901F901895FA
:103740001F920F920FB60F9211240BB60F922F9368
:103750003F934F935F936F937F938F939F93AF9319
:10376000BF93EF93FF9386EF96E00E944802FF918C
:10377000EF91BF91AF919F918F917F916F915F91E9
:103780004F913F912F910F900BBE0F900FBE0F9056
:103790001F9018951F920F920FB60F9211240BB61F
:1037A0000F922F933F934F935F936F937F938F93DA
:1037B0009F93AF93BF93EF93FF9383E997E00E94AA
:1037C000C602FF91EF91BF91AF919F918F917F9131
:1037D0006F915F914F913F912F910F900BBE0F9082
:1037E0000FBE0F901F9018951F920F920FB60F9259
:1037F00011240BB60F922F933F934F935F936F93C8
:103800007F938F939F93AF93BF93EF93FF9383E93E
:1038100097E00E944802FF91EF91BF91AF919F9175
:103820008F917F916F915F914F913F912F910F9069
:103830000BBE0F900FBE0F901F9018951F920F9206
:103840000FB60F9211240BB60F922F933F934F9305
:103850005F936F937F938F939F93AF93BF93EF93F8
:10386000FF9380E398E00E94C602FF91EF91BF9121
:10387000AF919F918F917F916F915F914F913F9108
:103880002F910F900BBE0F900FBE0F901F901895A9
:103890001F920F920FB60F9211240BB60F922F9317
:1038A0003F934F935F936F937F938F939F93AF93C8
:1038B000BF93EF93FF9380E398E00E944802FF914B
:1038C000EF91BF91AF919F918F917F916F915F9198
:1038D0004F913F912F910F900BBE0F900FBE0F9005
:1038E0001F9018951F920F920FB60F9211240BB6CE
:1038F0000F922F933F934F935F936F937F938F9389
:103900009F93AF93BF93EF93FF938DEC98E00E944A
:10391000C602FF91EF91BF91AF919F918F917F91DF
:103920006F915F914F913F912F910F900BBE0F9030
:103930000FBE0F901F9018951F920F920FB60F9207
:1039400011240BB60F922F933F934F935F936F9376
:103950007F938F939F93AF93BF93EF93FF938DECE0
:1039600098E00E944802FF91EF91BF91AF919F9123
:103970008F917F916F915F914F913F912F910F9018
:103980000BBE0F900FBE0F901F9018951F920F92B5
:103990000FB60F9211242F933F938F939F93AF9362
:1039A000BF938091DF049091E004A091E104B09175
:1039B000E2043091DE0423E0230F2D3758F5019601
:1039C000A11DB11D2093DE048093DF049093E004D9
:1039D000A093E104B093E2048091E3049091E404A5
:1039E000A091E504B091E6040196A11DB11D80935C
:1039F000E3049093E404A093E504B093E604BF913C
:103A0000AF919F918F913F912F910F900FBE0F908B
:103A10001F90189526E8230F0296A11DB11DD2CF45
:103A20001F920F920FB60F9211240BB60F922F9385
:103A30003F934F935F936F937F938F939F93AF9336
:103A4000BF93EF93FF9348E251E064E271E090E0AE
:103A500080E00E945305FF91EF91BF91AF919F913C
:103A60008F917F916F915F914F913F912F910F9027
:103A70000BBE0F900FBE0F901F9018951F920F92C4
:103A80000FB60F9211240BB60F922F933F934F93C3
:103A90005F936F937F938F939F93AF93BF93EF93B6
:103AA000FF9348EA50E064EA70E083E090E00E940F
:103AB0005305FF91EF91BF91AF919F918F917F91AE
:103AC0006F915F914F913F912F910F900BBE0F908F
:103AD0000FBE0F901F9018951F920F920FB60F9266
:103AE00011240BB60F922F933F934F935F936F93D5
:103AF0007F938F939F93AF93BF93EF93FF9348E987
:103B000050E064E970E082E090E00E945305FF918C
:103B1000EF91BF91AF919F918F917F916F915F9145
:103B20004F913F912F910F900BBE0F900FBE0F90B2
:103B30001F9018951F920F920FB60F9211240BB67B
:103B40000F922F933F934F935F936F937F938F9336
:103B50009F93AF93BF93EF93FF9348E850E064E8DF
:103B600070E081E090E00E945305FF91EF91BF91DA
:103B7000AF919F918F917F916F915F914F913F9105
:103B80002F910F900BBE0F900FBE0F901F901895A6
:103B90001F920F920FB60F9211240BB60F922F9314
:103BA0003F934F935F936F937F938F939F93AF93C5
:103BB000BF93EF93FF938091B900887F803609F41B
:103BC0004DC008F040C0883209F4A9C028F5803102
:103BD00009F49DC0C8F4882309F4FBC0883009F4B7
:103BE00096C0FF91EF91BF91AF919F918F917F917F
:103BF0006F915F914F913F912F910F900BBE0F905E
:103C00000FBE0F901F901895883109F488C080323C
:103C100041F78093220414C0803409F49DC040F41D
:103C20008033B9F38833E9F68093220485ECB0C081
:103C3000803509F485C0883509F496C0883489F642
:103C40000E942617CECF883909F48CC038F5883702
:103C500029F050F4883611F0803719F683E080930C
:103C600023041092210457C0883809F47BC080399E
:103C700019F0803809F0B5CF80912104803208F026
:103C800071C0E091210481E08E0F80932104809126
:103C9000BB00F0E0EF5FFB4F80833DC0803B39F01D
:103CA000E0F4803A09F479C0883A09F09ACF84E0C8
:103CB00080932304109200041092FF03E091E90422
:103CC000F091EA0419958091FF0381110FC081E002
:103CD0008093FF031092DF0309C0803C09F4A6CF54
:103CE000883C09F4A3CF883B09F07BCFE091000426
:103CF00081E08E0F80930004F0E0E152FC4F808160
:103D00008093BB00909100048091FF0329C08091B3
:103D100048048093BB0085EC8093BC0062CF9091F7
:103D2000470480914604981758F5E091470481E0D4
:103D30008E0F80934704F0E0EA5DFB4F8081E9CF6E
:103D4000E091470481E08E0F809347048091BB008F
:103D5000F0E0EA5DFB4F8083909147048091460438
:103D60009817C8F285E8D8CFE091470481E08E0F1C
:103D7000809347048091BB00F0E0EA5DFB4F8083B5
:103D80008091250481115CCF81E08093240484EA32
:103D90008093BC001092230424CF85EC8093BC0058
:103DA0001092230480912104803230F4E0912104A8
:103DB000F0E0EF5FFB4F10826091210470E0E09132
:103DC000E704F091E80481E094E019951092210451
:103DD00008CF1092220434CFFC0190914D0490330F
:103DE00098F481E0890F80934D049083892F90E0AF
:103DF000FC01EE0FFF1FE80FF91FE25BFB4F88EBA2
:103E00009BE09283818308958FEF80830895CF9202
:103E1000DF92EF92FF92E6EFF6E01382128288EED5
:103E2000C82E83E0D82EE12CF12CC482D582E68204
:103E3000F78286E192E09183808325E331E0358744
:103E4000248724E331E03787268720E331E0318B74
:103E5000208B21E331E0338B228B22E331E0358B61
:103E6000248B26E331E0378B268B118E128E138E36
:103E7000148EE3E9F7E013821282C482D582E682CF
:103E8000F7829183808325ED30E03587248724ED08
:103E900030E03787268720ED30E0318B208B21ED15
:103EA00030E0338B228B22ED30E0358B248B26EDF6
:103EB00030E0378B268B118E128E138E148EE0E33A
:103EC000F8E013821282C482D582E682F78291835F
:103ED00080832DEC30E0358724872CEC30E0378769
:103EE000268728EC30E0318B208B29EC30E0338BB7
:103EF000228B2AEC30E0358B248B2EEC30E0378B94
:103F0000268B118E128E138E148EEDECF8E0138238
:103F10001282C482D582E682F7829183808385EC07
:103F200090E09587848784EC90E09787868780EC83
:103F300090E0918B808B81EC90E0938B828B82EC74
:103F400090E0958B848B86EC90E0978B868B118E1E
:103F5000128E138E148EEAE6F9E013821282C48266
:103F6000D582E682F78288E292E091838083E6E759
:103F7000F9E080E580831182E8E7F9E01582168296
:103F80001186138682E090E0A0E0B0E084879587F8
:103F9000A687B78713A215A614A68AE392E093A773
:103FA00082A717A662E672E08EE19AE00E94B81638
:103FB00062E672E088E19AE00E94B81662E672E07A
:103FC00082E19AE00E94B81662E672E08CE09AE024
:103FD0000E94B81665E672E084EF99E00E94B81678
:103FE0006EE672E08AEF99E00E94B81667E772E029
:103FF00080E09AE00E94B81660E872E086E09AE0FD
:104000000E94B816E8EEF9E01382128288E592E089
:104010009183808387E2848380E1818782E0828745
:10402000138685EE99E00E94EC1E82EE99E00E94D4
:10403000EC1E8FED99E00E94EC1E8CED99E00E9441
:10404000EC1EE1ECF9E013821282C482D582E68292
:10405000F78286E492E091838083128E118E14861B
:10406000FF90EF90DF90CF900895CF93DF93CDB77F
:10407000DEB7A1970FB6F894DEBF0FBECDBF789420
:1040800084B5826084BD84B5816084BD85B582605D
:1040900085BD85B5816085BD80916E00816080930E
:1040A0006E00109281008091810082608093810077
:1040B0008091810081608093810080918000816087
:1040C000809380008091B10084608093B1008091E2
:1040D000B00081608093B0008091910082608093F5
:1040E0009100809191008160809391008091900077
:1040F0008160809390008091A10082608093A100F4
:104100008091A10081608093A1008091A0008160D6
:104110008093A00080912101826080932101809191
:104120002101816080932101809120018160809331
:10413000200180917A00846080937A0080917A00D7
:10414000826080937A0080917A00816080937A0007
:1041500080917A00806880937A001092C10010925A
:10416000EE041092ED041092EC041092EB040E9405
:10417000340688E192E09093EA048093E90489E1AF
:1041800092E09093E8048093E7041092ED09809107
:10419000F209823018F098E09093ED098093F009CD
:1041A00062E370E080E090E00E942B046091F309EC
:1041B00088EE99E00E94F90668EE73E080E090E0F6
:1041C0000E942B0460E388EE99E00E9449140BE4FE
:1041D00016E4C8010197F1F760E388EE99E00E94C8
:1041E0004914C8010197F1F760E388EE99E00E9455
:1041F000491483E592E00197F1F760E288EE99E0D7
:104200000E9449146091ED09606240E088EE99E0F7
:104210000E94621484E08093EE0940E06CE088EE36
:1042200099E00E9462140E94791482E08093EF0961
:1042300040E066E088EE99E00E94621440E062E0AF
:1042400088EE99E00E9462148BE39FE10197F1F7F9
:1042500088E08093F30960E088EE99E00E94F90617
:104260008DEC98E00E948E0180E398E00E948E0120
:1042700083E997E00E948E0186EF96E00E948E010E
:1042800082E00E94EC0183E00E94EC0184E00E9445
:10429000EC0185E00E94EC0169E872E08DEC98E0A9
:1042A0000E94981564E972E080E398E00E949815F6
:1042B0006FE972E083E997E00E9498156AEA72E07C
:1042C00086EF96E00E94981569E070E085EE99E02F
:1042D0000E94CC0470E060E085EE99E00E946904E1
:1042E00068E070E082EE99E00E94CC0470E060E04B
:1042F00082EE99E00E94690467E070E08FED99E03A
:104300000E94CC0470E060E08FED99E00E946904A7
:1043100066E070E08CED99E00E94CC0470E060E013
:104320008CED99E00E94690485E30E94EC01809184
:10433000A709882321F082EA99E00E94880F109251
:1043400083091092810910927E0910927D0985E3FC
:1043500080937C090E945D048B0180917C090E94FE
:10436000EC0161E080917C090E947A03FFB6F89429
:104370008091EF04811124C0EBE5F2E08491E1EA41
:10438000F2E09491E82FF0E0EE0FFF1FE45FFD4FA5
:10439000A591B491EC91E92321F461E085E30E94B9
:1043A0007A0385E30E94EC018CB580618CBD8CB5ED
:1043B00080648CBD84E30E94EC0183E30E94EC01E5
:1043C0008091EF048F5F8093EF04FFBE82E58093BE
:1043D00076091092770980917609909177090E9469
:1043E00019083AE0F32E8FEF0E94F407FA94F110C7
:1043F000FACF88E799E00E941C0820E030E0A9018C
:1044000060E088E799E00E943208F82E80938209E4
:1044100081E0F81609F47AC10E945D04601B710BFB
:10442000613D774050F381E080937D0988E799E012
:104430000E94E90785EB92E00E94FF1847E165EBD7
:1044400072E0CE0101960E94FE19CE0101960E94F3
:10445000B50160EC72E081EC99E00E9498150E9431
:10446000BB148EEC92E00E94FF1847E16EEC72E004
:10447000CE0101960E94FE19CE0101960E94B5015F
:1044800069ED72E081EC99E00E9498150E94BB14DE
:1044900087EE92E00E94FF1847E167EE72E0CE01DE
:1044A00001960E94FE19CE0101960E94B50162EFAD
:1044B00072E081EC99E00E9498150E94BB1480E0A4
:1044C00093E00E94FF1847E160E073E0CE0101969F
:1044D0000E94FE19CE0101960E94B5016BE073E0C7
:1044E00081EC99E00E9498150E94BB1482E1E82EAD
:1044F0008AE0F82E8DEC98E00E94920218161906B8
:104500000CF0FFC161E085E00E947A036AE570E08B
:1045100085EE99E00E94690460ED77E080E090E02C
:104520000E942B0470E060E085EE99E00E9469042F
:104530008DEC98E00E949202181619060CF07EC6C7
:104540008DEC98E00E9470020091F2041091F30447
:104550000F5F1F4F1093F3040093F204682F82E162
:104560009AE00E9442160830110511F704EF19E095
:10457000B801CE014C960E949E16CE014C960E9428
:10458000AE15882309F488C141E065EB72E0CE01E5
:1045900001960E94FE19CE0101960E94B5010E946B
:1045A000051B0E94BB148DEC98E00E94841569E104
:1045B00073E08DEC98E00E94981567E273E08DEC53
:1045C00098E00E94AC158DEC98E00E9484156FE293
:1045D00073E08DEC98E00E94AC156091F00470914E
:1045E000F1048DEC98E00E94701560E080E00E947C
:1045F000841467E373E088EE99E00E94AC1560E0F4
:1046000083E00E94841488EE99E00E940B0261E02E
:1046100080E00E9484146BE373E088EE99E00E94CE
:10462000AC1568E873E180E090E00E942B0460E044
:1046300085E00E947A030E9479148091F0049091A1
:10464000F10460E0803591050CF0DEC080E00E944E
:10465000841465E473E088EE99E00E94AC1560E094
:1046600084E00E9484146091F0047091F10488EE5B
:1046700099E00E94E51460E087E00E9484146AE4F7
:1046800073E088EE99E00E94AC1568EB7BE080E077
:1046900090E00E942B0461E080E00E9484146CE4AE
:1046A00073E088EE99E00E94AC1568EE73E080E05C
:1046B00090E00E942B0461E084E00E947A036AE5A6
:1046C00070E082EE99E00E94690460ED77E080E09E
:1046D00090E00E942B0460E084E00E947A0360ED89
:1046E00077E080E090E00E942B040E94791461E062
:1046F00080E00E94841468E573E088EE99E00E94EF
:10470000AC15CE014C960E94CE1412CF2AEA31E0AD
:1047100040E050E068E088E799E00E94320882FFBC
:104720002AC0F092830980918309C12CD12C760193
:10473000823029F4C12CD12CE12C90E4F92E20E018
:1047400030E0A90167E388E799E00E943208A701F9
:10475000960169E288E799E00E9432088093820915
:104760008823D1F00E945D04601B710B613D77408E
:1047700030F388E059CE24E0F22E0E94FB078093AC
:104780008209FA94F110F9CF8A3A11F082E04CCE06
:1047900082E080938309C7CF809183098230D1F46E
:1047A00020E030E0A9016AE388E799E00E9432083E
:1047B000882311F086E038CE0E94FB07807C803C85
:1047C00019F483E0809383090E94FB070E94FB0792
:1047D0000E94FB0788E799E00E94E90780E5809343
:1047E00076091092770981E00E94510A882329F006
:1047F00082EA99E00E94080D1DCE80E00E94510AD5
:10480000882309F417CEF4CF80E00E94841465E475
:1048100073E088EE99E00E94AC1560E084E00E94AD
:1048200084146091F0047091F10488EE99E00E9484
:10483000E51460E087E00E9484146AE473E088EE87
:1048400099E00E94AC1568EE73E080E090E00E9471
:104850002B0461E080E00E94841466E673E088EE39
:1048600099E00E94AC1568EE73E080E090E00E9451
:104870002B0461E085E00E947A036AE570E085EE32
:1048800099E00E94690460ED77E080E090E00E948A
:104890002B0460E085E021CF0A5F1F4FE016F10690
:1048A00059F564E773E08DEC98E00E94981560E09C
:1048B00080E00E94841467E373E088EE99E00E9430
:1048C000AC1560E083E00E94841488EE99E00E94B9
:1048D0000B0261E080E00E94841464E873E088EEDB
:1048E00099E00E94AC1560ED77E080E090E00E94D6
:1048F0002B040E947914ADCFCE014C960E94CE14A9
:1049000037CE80E398E00E949202181619060CF048
:1049100082C161E084E00E947A036AE570E082EE81
:1049200099E00E94690460ED77E080E090E00E94E9
:104930002B0470E060E082EE99E00E94690480E35D
:1049400098E00E949202181619060CF077C480E3D2
:1049500098E00E9470020091F2041091F3040F5F3E
:104960001F4F1093F3040093F204682F82E19AE042
:104970000E9442160830110511F704EF19E0B80142
:10498000CE014C960E949E16CE014C960E94AE150A
:10499000882309F40AC141E06EEC72E0CE01019671
:1049A0000E94FE19CE0101960E94B5010E94051BCE
:1049B0000E94BB1480E398E00E94841569E173E0D3
:1049C00080E398E00E94981567E273E080E398E046
:1049D0000E94AC1580E398E00E9484156FE273E0BA
:1049E00080E398E00E94AC156091F0047091F104AE
:1049F00080E398E00E94701560E080E00E948414DB
:104A000067E373E088EE99E00E94AC1560E083E014
:104A10000E94841488EE99E00E940B0261E080E01D
:104A20000E9484146BE373E088EE99E00E94AC1559
:104A300068E873E180E090E00E942B0460E084E08D
:104A40000E947A030E9479148091F0049091F104FD
:104A500060E0803591050CF060C080E00E94841415
:104A600065E473E088EE99E00E94AC1560E084E0B4
:104A70000E9484146091F0047091F10488EE99E032
:104A80000E94E51460E087E00E9484146AE473E009
:104A900088EE99E00E94AC1568EB7BE080E090E046
:104AA0000E942B0461E080E00E9484146CE473E0B7
:104AB00088EE99E00E94AC1568EE73E080E090E02B
:104AC0000E942B0461E083E00E947A036AE570E0B3
:104AD0008FED99E00E94690460ED77E080E090E05E
:104AE0000E942B0460E083E00E947A0360ED77E08F
:104AF00080E090E00E942B040E94791461E080E045
:104B00000E94841468E573E088EE99E00E94AC1579
:104B1000CE014C960E94CE1412CF80E00E948414E5
:104B200065E473E088EE99E00E94AC1560E084E0F3
:104B30000E9484146091F0047091F10488EE99E071
:104B40000E94E51460E087E00E9484146AE473E048
:104B500088EE99E00E94AC1568EE73E080E090E08A
:104B60000E942B0461E080E00E94841466E673E0FA
:104B700088EE99E00E94AC1568EE73E080E090E06A
:104B80000E942B0461E084E00E947A036AE570E0F1
:104B900082EE99E00E94690460ED77E080E090E0A9
:104BA0000E942B0460E084E09FCF0A5F1F4F8AE0E1
:104BB0000231180759F564E773E080E398E00E943A
:104BC000981560E080E00E94841467E373E088EE4B
:104BD00099E00E94AC1560E083E00E94841488EEA6
:104BE00099E00E940B0261E080E00E94841464E876
:104BF00073E088EE99E00E94AC1560ED77E080E00C
:104C000090E00E942B040E947914ACCFCE014C9608
:104C10000E94CE14B4CE83E997E00E949202181647
:104C200019060CF082C161E083E00E947A036AE514
:104C300070E08FED99E00E94690460ED77E080E01C
:104C400090E00E942B0470E060E08FED99E00E94FC
:104C5000690483E997E00E949202181619060CF085
:104C6000EDC283E997E00E9470020091F204109176
:104C7000F3040F5F1F4F1093F3040093F204682FA7
:104C800082E19AE00E9442160830110511F704EF04
:104C900019E0B801CE014C960E949E16CE014C96AA
:104CA0000E94AE15882309F40AC141E067EE72E064
:104CB000CE0101960E94FE19CE0101960E94B50117
:104CC0000E94051B0E94BB1483E997E00E94841593
:104CD00069E173E083E997E00E94981567E273E069
:104CE00083E997E00E94AC1583E997E00E94841560
:104CF0006FE273E083E997E00E94AC156091F004E5
:104D00007091F10483E997E00E94701560E080E003
:104D10000E94841467E373E088EE99E00E94AC156A
:104D200060E083E00E94841488EE99E00E940B0208
:104D300061E080E00E9484146BE373E088EE99E008
:104D40000E94AC1568E873E180E090E00E942B04BB
:104D500060E083E00E947A030E9479148091F0045D
:104D60009091F10460E0803591050CF060C080E026
:104D70000E94841465E473E088EE99E00E94AC150B
:104D800060E084E00E9484146091F0047091F1046A
:104D900088EE99E00E94E51460E087E00E948414A8
:104DA0006AE473E088EE99E00E94AC1568EB7BE062
:104DB00080E090E00E942B0461E080E00E94841477
:104DC0006CE473E088EE99E00E94AC1568EE73E045
:104DD00080E090E00E942B0461E082E00E947A0370
:104DE0006AE570E08CED99E00E94690460ED77E07F
:104DF00080E090E00E942B0460E082E00E947A0351
:104E000060ED77E080E090E00E942B040E9479142E
:104E100061E080E00E94841468E573E088EE99E028
:104E20000E94AC15CE014C960E94CE1412CF80E0A9
:104E30000E94841465E473E088EE99E00E94AC154A
:104E400060E084E00E9484146091F0047091F104A9
:104E500088EE99E00E94E51460E087E00E948414E7
:104E60006AE473E088EE99E00E94AC1568EE73E0A6
:104E700080E090E00E942B0461E080E00E948414B6
:104E800066E673E088EE99E00E94AC1568EE73E088
:104E900080E090E00E942B0461E083E00E947A03AE
:104EA0006AE570E08FED99E00E94690460ED77E0BB
:104EB00080E090E00E942B0460E083E09FCF0A5FD7
:104EC0001F4F8AE00231180759F564E773E083E960
:104ED00097E00E94981560E080E00E94841467E3E8
:104EE00073E088EE99E00E94AC1560E083E00E94D8
:104EF000841488EE99E00E940B0261E080E00E9439
:104F0000841464E873E088EE99E00E94AC1560EDCB
:104F100077E080E090E00E942B040E947914ACCFEF
:104F2000CE014C960E94CE14B4CE86EF96E00E943D
:104F30009202181619060CF081C161E082E00E940D
:104F40007A036AE570E08CED99E00E94690460EDF7
:104F500077E080E090E00E942B0470E060E08CED50
:104F600099E00E94690486EF96E00E94920218166A
:104F700019060CF063C186EF96E00E947002009162
:104F8000F2041091F3040F5F1F4F1093F30400938A
:104F9000F204682F82E19AE00E944216083011055F
:104FA00011F704EF19E0B801CE014C960E949E164D
:104FB000CE014C960E94AE15882309F40AC141E047
:104FC00060E073E0CE0101960E94FE19CE010196C9
:104FD0000E94B5010E94051B0E94BB1486EF96E05B
:104FE0000E94841569E173E086EF96E00E949815AF
:104FF00067E273E086EF96E00E94AC1586EF96E0DC
:105000000E9484156FE273E086EF96E00E94AC1573
:105010006091F0047091F10486EF96E00E947015A3
:1050200060E080E00E94841467E373E088EE99E01A
:105030000E94AC1560E083E00E94841488EE99E041
:105040000E940B0261E080E00E9484146BE373E035
:1050500088EE99E00E94AC1568E873E180E090E08A
:105060000E942B0460E082E00E947A030E9479147F
:105070008091F0049091F10460E0803591050CF08E
:1050800060C080E00E94841465E473E088EE99E0DB
:105090000E94AC1560E084E00E9484146091F004EA
:1050A0007091F10488EE99E00E94E51460E087E0D9
:1050B0000E9484146AE473E088EE99E00E94AC15C3
:1050C00068EB7BE080E090E00E942B0461E080E0F0
:1050D0000E9484146CE473E088EE99E00E94AC15A1
:1050E00068EE73E080E090E00E942B0461E085E0D0
:1050F0000E947A036AE570E085EE99E00E946904F7
:1051000060ED77E080E090E00E942B0460E085E0B5
:105110000E947A0360ED77E080E090E00E942B042B
:105120000E94791461E080E00E94841468E573E0D5
:1051300088EE99E00E94AC15CE014C960E94CE14E8
:1051400012CF80E00E94841465E473E088EE99E059
:105150000E94AC1560E084E00E9484146091F00429
:105160007091F10488EE99E00E94E51460E087E018
:105170000E9484146AE473E088EE99E00E94AC1502
:1051800068EE73E080E090E00E942B0461E080E034
:105190000E94841466E673E088EE99E00E94AC15E4
:1051A00068EE73E080E090E00E942B0461E082E012
:1051B0000E947A036AE570E08CED99E00E94690430
:1051C00060ED77E080E090E00E942B0460E082E0F8
:1051D0009FCF0A5F1F4FE016F10659F564E773E0B1
:1051E00086EF96E00E94981560E080E00E948414AB
:1051F00067E373E088EE99E00E94AC1560E083E01D
:105200000E94841488EE99E00E940B0261E080E025
:105210000E94841464E873E088EE99E00E94AC1563
:1052200060ED77E080E090E00E942B040E9479140A
:10523000ADCFCE014C960E94CE14B5CE1092F304A1
:105240001092F20450E040E062E672E082E19AE0FF
:105250000E94731664EF71E080E090E00E942B04DE
:105260000E94550347C986E09AE00E94CE1480E070
:105270009AE00E94CE148AEF99E00E94CE1484EF47
:1052800099E00E94CE148CE09AE00E94CE1482E154
:105290009AE00E94CE1488E19AE00E94CE148EE13A
:1052A0009AE00C94CE141F93FC0199278827BC0127
:1052B000E89411911032E9F3193010F01E30C8F360
:1052C0001B3251F01D3249F4689406C00E947A29BD
:1052D000610F711D811D911D119110531A30B0F392
:1052E0003EF490958095709561957F4F8F4F9F4FBD
:1052F0001F910895592F482F372F262F660F771F9C
:10530000881F991F660F771F881F991F620F731FD1
:10531000841F951F660F771F881F991F0895052EFC
:1053200097FB1EF400940E94A62957FD07D00E9407
:10533000C12907FC03D04EF40C94A6295095409542
:10534000309521953F4F4F4F5F4F08959095809531
:10535000709561957F4F8F4F9F4F08950E94E3296D
:10536000A59F900DB49F900DA49F800D911D1124B9
:105370000895B7FF0C94AE290E94AE29821B930BAF
:105380000895A1E21A2EAA1BBB1BFD010DC0AA1F86
:10539000BB1FEE1FFF1FA217B307E407F50720F09E
:1053A000A21BB30BE40BF50B661F771F881F991F19
:1053B0001A9469F760957095809590959B01AC0162
:1053C000BD01CF010895A29FB001B39FC001A39F6B
:1053D000700D811D1124911DB29F700D811D11242E
:1053E000911D0895991B79E004C0991F961708F044
:1053F000961B881F7A95C9F780950895EE0FFF1FB9
:10540000881F8BBF0790F691E02D19940F931F937F
:10541000CF93DF938230910510F482E090E0E09129
:10542000260AF091270A30E020E0B0E0A0E03097B3
:1054300099F42115310509F44AC0281B390B243091
:105440003105D8F58A819B816115710589F1FB01D0
:1054500093838283FE0111C04081518102811381B7
:1054600048175907E0F04817590799F4109761F069
:1054700012960C93129713961C933296CF01DF91DC
:10548000CF911F910F9108950093260A1093270A38
:10549000F4CF2115310551F04217530738F0A90117
:1054A000DB019A01BD01DF01F801C1CFEF01F9CFA6
:1054B0009093270A8093260ACDCFFE01E20FF31FB7
:1054C000819391932250310939832883D7CF20913A
:1054D000240A3091250A232B41F4209106023091B1
:1054E00007023093250A2093240A20910402309168
:1054F00005022115310541F42DB73EB74091080250
:1055000050910902241B350BE091240AF091250AE1
:10551000E217F307A0F42E1B3F0B2817390778F08A
:10552000AC014E5F5F4F2417350748F04E0F5F1FE9
:105530005093250A4093240A819391939FCFF0E0E2
:10554000E0E09CCFCF93DF930097E9F0FC01329726
:1055500013821282A091260AB091270AED0130E051
:1055600020E01097A1F420813181820F931F2091B8
:10557000240A3091250A2817390709F061C0F093F1
:10558000250AE093240ADF91CF910895EA01CE170E
:10559000DF07E8F54A815B819E0141155105B1F7AE
:1055A000E901FB83EA8349915991C40FD51FEC1798
:1055B000FD0761F4808191810296840F951FE901B6
:1055C00099838883828193819B838A83F0E0E0E0E2
:1055D00012968D919C9113970097B9F52D913C915E
:1055E0001197CD010296820F931F2091240A3091CA
:1055F000250A2817390739F6309751F51092270AEE
:105600001092260AB093250AA093240ABCCFD38314
:10561000C28340815181840F951FC817D90761F457
:105620004E5F5F4F88819981480F591F5183408396
:105630008A819B81938382832115310509F0B0CF44
:10564000F093270AE093260A9ECFFD01DC01C0CF2C
:1056500013821282D7CF4F925F926F927F928F9276
:105660009F92AF92BF92CF92DF92EF92FF920F93F1
:105670001F93CF93DF938C01009799F4CB01DF91B7
:10568000CF911F910F91FF90EF90DF90CF90BF903F
:10569000AF909F908F907F906F905F904F900C9401
:1056A000062AFC01E60FF71F9C0122503109E21780
:1056B000F30708F4AEC0D901CD91DC911197C6175C
:1056C000D70720F1C530D10578F0CE0104978617B1
:1056D000970750F0C61BD70B2297C193D1936D93B8
:1056E0007C93CF010E94A22AC801DF91CF911F9124
:1056F0000F91FF90EF90DF90CF90BF90AF909F9071
:105700008F907F906F905F904F9008955B01AC1ADF
:10571000BD0A4C018C0E9D1EA091260AB091270A4D
:10572000512C412CF12CE12C109731F58091240A59
:105730009091250A8815990509F05CC04616570610
:1057400008F058C08091040290910502009741F43E
:105750008DB79EB74091080250910902841B950BAA
:10576000E817F90708F055C0F093250AE093240ADA
:10577000F90171836083B8CF8D919C911197129636
:105780006C90129713967C901397A815B90559F54C
:105790006C0142E0C40ED11CCA14DB0420F1AC0140
:1057A0004A195B09DA011296159780F062827382BA
:1057B00051834083D9016D937C93E114F10471F01E
:1057C000D7011396FC93EE9312978ECF22968C0FEF
:1057D0009D1FF90191838083F301EFCFF093270A96
:1057E000E093260A81CF4816590608F42C017D0162
:1057F000D3019ACFCB010E94062A7C01009749F081
:10580000AE01B8010E94192CC8010E94A22A87018A
:105810006BCF10E000E068CFFB01DC0104C08D918C
:105820000190801921F441505040C8F7881B990B12
:105830000895FB01DC0102C001900D9241505040DF
:10584000D8F70895FC018191861721F08823D9F7B4
:10585000992708953197CF010895FB01DC018D91BF
:10586000019080190110D9F3990B0895FB01DC0117
:1058700001900D920020E1F70895FB01DC014150F9
:10588000504048F001900D920020C9F701C01D92D0
:1058900041505040E0F7089511E0CAE5D1E000E042
:1058A00006C0802FFE010E94FE292196011DCB35E6
:0C58B000D10780E00807A9F7F894FFCFAB
:1058BC00FFFFFFFF0000280A8000000040001400DA
:1058CC00540000000000E8021B0261023503920242
:1058DC007002840200000000CA069D06E0077306F1
:1058EC009606830674060000000030111B022A0F76
:1058FC001A0200000000E711CA11BA1191119A1195
:10590C001C13261300000000B5141B02E0071A023A
:10591C000D0A002F004142433132333435004241ED
:10592C004331323334350043414231323334350064
:10593C00414141313233343500534C4F542050499E
:10594C004E203100534C4F542050494E20320053BE
:10595C004C4F542050494E203300534C4F54205040
:10596C00494E203400736C6F745F312E7478740060
:10597C0041424331323334357C35307C3100736CE9
:10598C006F745F322E747874004241433132333479
:10599C00357C37307C3100736C6F745F332E7478C8
:1059AC00740043414231323334357C39307C310020
:1059BC00736C6F745F342E747874004141413132D2
:1059CC003334357C32307C310020202056616C69B8
:1059DC006420544147200049442050494E3A00501D
:1059EC00494E2825293A0049443A0056616C6964AD
:1059FC002050494E0050696E3A0025002020535724
:105A0C0041502050494E210020205448414E4B20FB
:105A1C00594F55202100202052455455524E2050AC
:105A2C00494E2100202020496E76616C6964205417
:105A3C0041472000496E76616C69642050494E00E4
:00000001FF
