:100000000C945B010C948C010C948C010C948C016D
:100010000C948C010C948C010C948C010C948C012C
:100020000C948C010C948C010C948C010C948C011C
:100030000C948C010C948C010C948C010C948C010C
:100040000C948C010C949B1D0C948C010C948C01D1
:100050000C948C010C948C010C948C010C94C71C96
:100060000C948C010C949D1C0C94731C0C948C01AE
:100070000C948C010C948C010C948C010C948C01CC
:100080000C946D1D0C948C010C948C010C948C01BF
:100090000C94491C0C941F1C0C948C010C94C91DCD
:1000A0000C948C010C948C010C943F1D0C948C01CD
:1000B0000C948C010C948C010C948C010C94111DEB
:1000C0000C948C010C948C010C948C010C94F51BF9
:1000D0000C94CB1B0C948C010C94A11B0C94771BDF
:1000E0000C948C010C94F3030C94FD030C94850286
:1000F0000C9436030C94E5030C94081F0C94F7033E
:100100000C94DB030C9492110C9475060C94710200
:100110000C940D020C949B110C94CA030C94EF03E5
:100120000C9484060C941D130C94E1070C94CB11D1
:100130000C94C6030C9493020C942B0F0C94D703CD
:100140000C940C020C941C020C9497060C94CE0395
:100150000C9462020C94E1030C94BB110C94CB063A
:100160000C9431110C94E9020C94D1030C94010409
:100170000C94B0030C94D5290C9474060C94AB0326
:100180000C940B020C94E9030C9427130C94E811C3
:100190000C949E060C94B6140C94C2037C3C3E5EF8
:1001A0002B3D3F2F5B5D3B2C2A225C0000000A0B9D
:1001B00002090C0D0E0807030401000000000000F6
:1001C000000000000000000000000000000000002F
:1001D00000000000000000001211100000000000EC
:1001E000000000000000000000000000000000000F
:1001F000000000002200250028002B002E00310006
:10020000340002010000050108010B01000021007B
:10021000240027002A002D003000330001010000D7
:10022000040107010A010505050507050808080876
:10023000020202020A0A080804040404010101017E
:100240000101010103030303030303030407070779
:100250000C0C0C0C0C0C0C0C02020202060606061E
:10026000060606060B0B0B0B0B0B0B0B01021020EB
:1002700020080810204010204080020102010804DC
:100280000201010204081020408080402010080470
:1002900002018004020180402010080402010804C9
:1002A000020101020408102040800102040810200D
:1002B0004080081FD52911241FBECFEFD1E2DEBF39
:1002C000CDBF00E00CBF13E0A0E0B2E0E8E0FAE54B
:1002D00000E00BBF02C007900D92A839B107D9F713
:1002E0002AE0A8E9B3E001C01D92A633B207E1F706
:1002F00011E0CAE5D1E000E006C021970109802F96
:10030000FE010E94A42AC935D10780E00807A9F799
:100310000E943C200C94F22C0C940000FC01A0895B
:10032000B18982E08C93A485B5851C92A685B7859A
:100330008FEC8C93108EA489B58986E08C93A2896A
:10034000B3898C9180618C93A289B3898C918860E8
:100350008C93A289B3898C9180688C930288F389ED
:10036000E02D80818F7D80830895CF93DF93FC0102
:10037000828193819093CC098093CB09848195816C
:10038000A681B7818093CD099093CE09A093CF0920
:10039000B093D00980859185A285B3858093D109DA
:1003A0009093D209A093D309B093D409DF011C968E
:1003B000CF014996C5EDD9E02D912993A817B9072A
:1003C000D9F7818D928D9093E3098093E20989ECAE
:1003D00099E0DF91CF91089590E0FC01E459FD4F41
:1003E00024918A5D9D4FFC018491882399F090E0CF
:1003F000880F991FFC01E45FFD4FA591B491FC01AA
:10040000EE50FE4F859194918FB7F894EC91E22BCA
:10041000EC938FBF0895089508950895DB01149615
:100420004D915C9115976D917C91DC01ED91FC9162
:100430000280F381E02D1994AF92BF92CF92DF92A8
:10044000EF92FF920F931F93CF93DF936C017B0189
:100450008B01040F151FEB015E01AE18BF08C0171A
:10046000D10759F06991D601ED91FC910190F0818D
:10047000E02DC6011995892B79F7C501DF91CF9140
:100480001F910F91FF90EF90DF90CF90BF90AF90B2
:100490000895FC01A089B1898C91A689B78982FD54
:1004A0000FC09C91818D8F5F8F73228D821749F0D1
:1004B000A18DAE0FBF2FB11D5D969C93818F0895C6
:1004C0008C910895FC01538D448D252F30E0842FAD
:1004D00090E0821B930B541710F0CF96089501976C
:1004E0000895FC01918D828D981761F0A28DAE0F59
:1004F000BF2FB11D5D968C91928D9F5F9F73928FE0
:1005000090E008958FEF9FEF0895FC01918D828D0B
:10051000981731F0828DE80FF11D858D90E00895D8
:100520008FEF9FEF0895FC01918D228D892F90E030
:10053000805C9F4F821B91098F73992708958EEFDE
:1005400096E00E94930221E0892B09F420E0822F9B
:1005500008958BE997E00E94930221E0892B09F42A
:1005600020E0822F089588E398E00E94930221E022
:10057000892B09F420E0822F089585ED98E00E94F0
:10058000930221E0892B09F420E0822F0895FC01D9
:10059000A48DA80FB92FB11DA35ABF4F2C91848DE4
:1005A00090E001968F739927848FA689B7892C9341
:1005B000A089B1898C91837080648C93938D848D94
:1005C000981306C00288F389E02D80818F7D808397
:1005D0000895EF92FF920F931F93CF93DF93EC0157
:1005E00081E0888F9B8D8C8D98131AC0E889F989DA
:1005F000808185FF15C09FB7F894EE89FF896083DD
:10060000E889F98980818370806480839FBF81E05D
:1006100090E0DF91CF911F910F91FF90EF9008959F
:10062000F62E0B8D10E00F5F1F4F0F731127E02E7A
:100630008C8D8E110CC00FB607FCFACFE889F989B2
:10064000808185FFF5CFCE010E94C702F1CFEB8DEF
:10065000EC0FFD2FF11DE35AFF4FF0829FB7F89486
:100660000B8FEA89FB8980818062CFCFCF93DF93A4
:10067000EC01888D8823B9F0AA89BB89E889F989BA
:100680008C9185FD03C0808186FD0DC00FB607FCEF
:10069000F7CF8C9185FFF2CF808185FFEDCFCE0122
:1006A0000E94C702E9CFDF91CF91089580E090E0EA
:1006B000892B29F00E94BD0281110E94000080E078
:1006C00090E0892B29F00E94B30281110E94000062
:1006D00080E090E0892B29F00E94A90281110E94FC
:1006E000000080E090E0892B29F00E949F02811198
:1006F0000C9400000895282F30E0F901E455FE4FD6
:100700009491F901E459FD4F44912A5D3D4FF9015F
:100710002491222309F435C0992311F1915092318B
:10072000F8F4E92FF0E08827E756FC4F8F4F0C9440
:10073000A42ACA03CE03AB03C203C603B003D1038A
:10074000D703DB03E103E503E903EF03F303B0039E
:10075000F703FD030104809180008F778093800070
:10076000E22FF0E0EE0FFF1FEE50FE4FA591B49187
:100770008FB7F894EC91611148C040954E234C938B
:100780008FBF0895809180008F7DE8CF8091800099
:10079000877FE4CF84B58F7784BDE2CF84B58F7D2A
:1007A000FBCF8091B0008F778093B000D9CF80913C
:1007B000B0008F7DF9CF809190008F77809390006B
:1007C000CFCF809190008F7DF9CF80919000877F6F
:1007D000F5CF8091A0008F778093A000C1CF80914A
:1007E000A0008F7DF9CF8091A000877FF5CF809109
:1007F00020018F7780932001B3CF809120018F7DDE
:10080000F9CF80912001877FF5CF4E2BB8CF3FB72E
:10081000F8948091EB049091EC04A091ED04B091D8
:10082000EE0426B5A89B05C02F3F19F00196A11D27
:10083000B11D3FBFBA2FA92F982F8827BC01CD012A
:10084000620F711D811D911D42E0660F771F881F89
:10085000991F4A95D1F708958F929F92AF92BF92B8
:10086000CF92DF92EF92FF924B015C010E9407044E
:100870006B017C010E9407046C197D098E099F0998
:10088000683E734081059105A8F321E0821A910822
:10089000A108B10888EEC80E83E0D81EE11CF11C47
:1008A00081149104A104B10429F7FF90EF90DF9027
:1008B000CF90BF90AF909F908F9008952FB7F894EE
:1008C0006091E7047091E8048091E9049091EA0452
:1008D0002FBF08958F929F92AF92BF92FF920F9376
:1008E0001F93CF93DF93FC01F0808FE28F1508F404
:1008F0004AC0828108E512E0081B110987FD1395A3
:10090000000F111F000F111F8181C8E8D0E0C81B24
:10091000D10987FDD395CC0FDD1FCC0FDD1F4E0114
:100920000D2E000CAA08BB089801012E000C440BE8
:10093000550B281939094A095B09DB010E945F2A16
:1009400024EB30E040E050E00E94352A820E931EF6
:10095000A41EB51E8C169D062CF0E801801691068B
:100960000CF4E4012297CC0FDD1F2FB7F8948F2DE4
:1009700090E0FC01EE0FFF1FE80FF91FEA5AFB4F52
:10098000D283C1832FBFDF91CF911F910F91FF9031
:10099000BF90AF909F908F9008951F93CF93DF9358
:1009A000EC01162F8881803308F04DC0862F0E94FD
:1009B000EC018881282F30E0F901EE0FFF1FE20FD4
:1009C000F31FEA5AFB4F1F736081607C612B6083C9
:1009D00019821A822CE0622F0E94982A829FB0010D
:1009E000112430E020E0AB01420F531FFA01EE0F5B
:1009F000FF1FE40FF51FEA5AFB4F908196FD16C0CA
:100A00002F5F3F4F2C30310571F7813009F510927F
:100A1000800082E080938100109285001092840013
:100A2000B19A80916F00826080936F00E8818E2F71
:100A300090E0FC01EE0FFF1FE80FF91FEA5AFB4F91
:100A40008081806480838881DF91CF911F91089598
:100A5000823061F410929000809391001092950082
:100A60001092940088BB80937100E0CF833069F4CA
:100A70001092A00082E08093A1001092A500109235
:100A8000A40089BB80937200D1CF8111CFCF109287
:100A9000200182E08093210110922501109224010F
:100AA0008ABB80937300C2CFAF92BF92CF92DF9286
:100AB000EF92FF920F931F93CF93DF936B017A0115
:100AC000EC01CF5ADB4F28813CE0389F8001399FF1
:100AD000100D1124A0905504B12C27FF1FC0FB015D
:100AE0001182108288818F5F888388819801280F06
:100AF000311D87FD3A95F6012A153B051CF48881C6
:100B00008C30C4F180819181049680349C4908F432
:100B100073C0F60180819181049670C0888198012C
:100B2000280F311D87FD3A952A153B05DCF6888193
:100B3000A801480F511D87FD5A95FA01EE0FFF1FBE
:100B4000E40FF51FEA5AFB4F808186FFCBCF8881E7
:100B5000F801E80FF11D87FDFA95CF01EE0FFF1F99
:100B6000E80FF91FEA5AFB4F808160E08F730E9403
:100B70007B03B8CF808191812881A801420F511D4C
:100B800027FD5A959A01FA01EE0FFF1FE20FF31F9E
:100B9000EA5AFB4F21813281820F931FF701918323
:100BA000808388819801280F311D87FD3A95F901CE
:100BB000EE0FFF1FE20FF31FEA5AFB4F808186FF03
:100BC00022C08881080F111D87FD1A95F801EE0FCC
:100BD000FF1FE00FF11FEA5AFB4F808161E08F7326
:100BE000DF91CF911F910F91FF90EF90DF90CF9009
:100BF000BF90AF900C947B0380E49CE9F701918354
:100C000080838FEF8883DF91CF911F910F91FF90A9
:100C1000EF90DF90CF90BF90AF90089520910704A0
:100C2000260F3327331F21323105ECF420912B049A
:100C3000FC0190E080E0243069F082E00895A0910A
:100C400007042191AC0149515C4FA40FB52FB11D90
:100C50002C930196861798F380910704680F609390
:100C6000070480E0089581E0089510922B0481E04C
:100C700080932D0410922C0461E084E10E947B0398
:100C800061E085E10E947B03E9EBF0E080818E7FEB
:100C9000808380818D7F808388E48093B80085E4A1
:100CA0008093BC000895CF93DF9391E09093E60387
:100CB0008823B9F0C091B800D091BA008091BC00EF
:100CC0008A7B8093BC0060E084E10E947B0360E04B
:100CD00085E10E947B030E943506D093BA00C09341
:100CE000B800DF91CF9108950895E091F6048091C6
:100CF000F504E81730F4F0E0EF53FC4F808190E00A
:100D000008958FEF9FEF08959091F6048091F50478
:100D10002FEF3FEF981748F4E92FF0E0EF53FC4F27
:100D2000208130E09F5F9093F604C901089580917F
:100D3000F5049091F604891B990B0895CF92DF92E8
:100D4000EF92FF920F931F93CF93DF937C01CB0120
:100D50008A012091C003222389F0EB016B01C40EAC
:100D6000D51ECC15DD0569F06991D701ED91FC9197
:100D70000190F081E02DC7011995F3CF642F0E94F7
:100D80000E06C801DF91CF911F910F91FF90EF9058
:100D9000DF90CF900895CF93DF931F92CDB7DEB74A
:100DA00069832091C0032223F9F02091F3042032BB
:100DB00058F021E030E0FC013383228390E080E0B2
:100DC0000F90DF91CF9108958091F404E82FF0E027
:100DD000E056FC4F998190838F5F8093F404809359
:100DE000F30481E090E0ECCF61E0CE0101960E9437
:100DF0000E06F7CFCF92DF92EF92FF920F931F93E1
:100E0000CF93DF93FC01C48121E02093C003C09302
:100E10009F031092F4041092F3048385682B82E7F9
:100E200099E00E94CB06D091F304D13208F092C031
:100E30000E9407046B017C0180912B04811165C025
:100E400082E080932B0481E080932D048FEF8093C8
:100E50002A0410924F04D0934E04A0EAB3E0EEE2CD
:100E6000F4E080E0D81385C01092500480915004C3
:100E7000CC0FC82BC093500480912C04813009F012
:100E80007CC010922C040E9407046B017C018091AD
:100E900050048093BB008091E2039091E303A09102
:100EA000E403B091E503892B8A2B8B2B99F00E94E8
:100EB00007040091E2031091E3032091E4033091D1
:100EC000E5036C197D098E099F0906171707280786
:100ED0003907E0F18091BC0083FDD9CF85EC809388
:100EE000BC000E9407046B017C0180912B048230BE
:100EF00009F445C080912A048F3F61F180912A0452
:100F0000803241F180912A0425C08091E2039091C2
:100F1000E303A091E403B091E503892B8A2B8B2B8B
:100F200009F48ACF0E9407040091E2031091E303C1
:100F30002091E4033091E5036C197D098E099F0926
:100F4000061717072807390708F076CF8091E103C5
:100F50000E9453061092F4041092F3041092C003FE
:100F6000DF91CF911F910F91FF90EF90DF90CF9085
:100F700008959D9191938F5F75CF85EEB0CF80914D
:100F8000E2039091E303A091E403B091E503892B80
:100F90008A2B8B2B09F4A9CF0E9407040091E2034E
:100FA0001091E3032091E4033091E5036C197D096E
:100FB0008E099F09061717072807390708F095CFEC
:100FC000C5CF90E080E008958FB7F89480919903A1
:100FD0008FBF089561E0FC0184810E947B038091B2
:100FE000980381111092980308958EBD00000DB4EE
:100FF00007FEFDCF8EB508958FEF0C94F5070F9384
:101000001F93CF93DF93EC010E945E048B010E943B
:10101000FC078F3F69F00E945E04601B710B6C1728
:101020007D07A8F380E0DF91CF911F910F91089584
:1010300081E0F9CF8CBD9DBD0895CF93DF93EC0186
:1010400080919803811109C081E080939803809179
:101050007E0990917F090E941A0860E08C81DF91DF
:10106000CF910C947B038F929F92AF92BF92FF928D
:101070000F931F93CF93DF93EC01F62E49015A0192
:101080008E81882389F08F8198859C012F5F3F4F47
:1010900038872F838230924018F40E94FC07F3CFE8
:1010A000CE010E94EA071E82CE010E941D088CE23A
:1010B00091E00E94FF078F2D80640E94F50708E1F0
:1010C00010E0D501C401002E04C0B695A7959795F0
:1010D00087950A94D2F70E94F50708501109083F36
:1010E0008FEF180771F785E9FF2021F028E087E8E6
:1010F000F2128FEF0E94F50710E00E94FC078A872A
:1011000087FF04C01F3F11F01F5FF7CFDF91CF9122
:101110001F910F91FF90BF90AF909F908F90089577
:10112000AF92BF92CF92DF92EF92FF920F931F93F5
:10113000CF93DF93EC016901C801820F931F8130C7
:10114000924050F58E81882379F088819981AA8117
:10115000BB8184179507A607B70731F48F8198855F
:10116000C816D90608F042C0488359836A837B8336
:101170008B85833039F089E0440F551F661F771F38
:101180008A95D1F79A01AB0161E1CE010E94330843
:10119000882389F083E08D83CE010E94EA0780E0F6
:1011A000DF91CF911F910F91FF90EF90DF90CF9043
:1011B000BF90AF9008950E945E045B010E94FC07FF
:1011C0008A878F3F69F40E945E046A197B096D3239
:1011D0007140A0F38FE08D83CE010E94EA07DCCF3F
:1011E0008E3F89F418861F8281E08E838F819885D7
:1011F0008C159D0550F40E94FC078F8198850196FF
:1012000098878F83F3CF8DE0E6CF6701E00EF11E64
:101210000E94FC07F60181936F01EE15FF05C1F7EF
:101220008F819885080F191F18870F838985882358
:1012300019F001151240A0F08E81882389F08F816A
:1012400098859C012F5F3F4F38872F8382309240D3
:1012500018F40E94FC07F3CFCE010E94EA071E8219
:1012600081E09ECFCF92DF92EF92FF920F93CF93C8
:10127000DF93EC01690182E14115510561057105BA
:1012800099F08B85833039F089E0440F551F661F34
:10129000771F8A95D1F79A01AB0168E1CE010E94D0
:1012A0003308882319F084E08D832DC08EEF0E94CF
:1012B000F50776018EEFD81AF70181917F010E9420
:1012C000F507EC14FD04C1F78FEF0E94F5078FEFCF
:1012D0000E94F5070E94FC078A878F71853071F4A0
:1012E000011116C0CE010E94EA0781E0DF91CF9183
:1012F0000F91FF90EF90DF90CF90089581E18D8363
:10130000CE010E94EA07CE010E94EA0780E0EECFFC
:1013100088E592E00E94FF07811102C085E1C4CFF9
:1013200020E030E0A9016DE0CE010E94330888235F
:1013300011F084E1B9CF0E94FC078111FACFD2CF1E
:101340000F9340919B0350919C0360919D0370917A
:101350009E03411551056105710599F0082F2EEF87
:1013600034E08091FC049091FD040E9432098823AE
:1013700049F010929B0310929C0310929D031092CF
:101380009E0381E00F9108950F93CF93C82F809112
:101390009A03811105C0C1E08C2FCF910F91089560
:1013A000409100025091010260910202709103028B
:1013B0000C2F2EEF34E08091FC049091FD040E94EC
:1013C0003209811102C0C0E0E7CFCC2321F381E0D4
:1013D0000E94A0098823B9F310929A03DDCF8F925F
:1013E0009F92AF92BF92EF92FF920F931F93CF9372
:1013F0004B015C01C42F8091000290910102A091E9
:101400000202B091030288159905AA05BB0551F1A6
:1014100081E00E94C40981110BC080E0CF911F912F
:101420000F91FF90EF90BF90AF909F908F90089595
:101430008EEFE82E84E0F82E00E012E030E020E0AD
:10144000B501A4018091FC049091FD040E949008D4
:10145000882319F38092000290920102A092020266
:10146000B092030240919A034C2B40939A0381E07F
:10147000D5CFCF93DF93EC016E857F8588899989DD
:1014800041E00E94EF09882351F08A8920E2829F7F
:10149000C001112482509B4FDF91CF91089590E0BD
:1014A00080E0FACF8F929F92AF92BF92CF92DF925D
:1014B000EF92FF92CF9320E839E03093FD04209320
:1014C000FC04882309F46DC040E060E070E0CB01CB
:1014D0000E94EF0981110BC080E0CF91FF90EF9047
:1014E000DF90CF90BF90AF909F908F9008958091A4
:1014F000BC068F7789F78091C8069091C906A091A4
:10150000CA06B091CB0684369105A105B10520F33A
:10151000C090C406D090C506E090C606F090C706FD
:10152000C114D104E104F104B9F240E0C701B601ED
:101530000E94EF09882381F28091090590910A05A4
:101540008115924049F6A0910E05AA2329F26091D7
:101550000C0570910D056115710509F4BDCF209141
:101560000B05222309F4B8CFA0939E09209390097C
:1015700090E080E030E0E1E0F0E0C82FAF01082E1D
:1015800002C0440F551F0A94E2F72417350769F08B
:1015900041E0480F01968930910579F74093990908
:1015A0009BCFC12CD12C7601C0CF8093990920917B
:1015B00014053091150550E040E02115310541F446
:1015C0002091220530912305409124055091250555
:1015D0002093910930939209409393095093940971
:1015E00046015701860E971EA11CB11C80929F09CF
:1015F0009092A009A092A109B092A209E0910F05D2
:10160000F0911005F093A509E093A409B0E00E94C1
:10161000542ADC01CB01880D991DAA1DBB1D8093A6
:10162000A6099093A709A093A809B093A90925E05A
:10163000EE0FFF1F2A95E1F7E150FE4FEF2FFF2736
:10164000E6958E0F9F1FA11DB11D80939A0990935F
:101650009B09A0939C09B0939D09809011059090DF
:101660001205B12CA12C8114910441F480901E0527
:1016700090901F05A0902005B0902105C81AD90AA6
:10168000EA0AFB0AC80CD91CEA1CFB1C04C0F6942D
:10169000E794D794C794CA95D2F7C0929509D0928F
:1016A0009609E0929709F092980985EFC8168FE0A5
:1016B000D806E104F10428F48CE08093A30981E0CA
:1016C0000CCF80E125EFC2162FEFD206E104F10422
:1016D000A0F380912A0590912B05A0912C05B09143
:1016E0002D058093A6099093A709A093A809B0930C
:1016F000A90980E2E2CF4F925F926F927F928F9220
:101700009F92AF92BF92CF92DF92EF92FF920F9390
:101710001F93CF93DF93EC014230510561057105B2
:1017200090F480E0DF91CF911F910F91FF90EF90A7
:10173000DF90CF90BF90AF909F908F907F906F90F1
:101740005F904F90089589859A85AB85BC850196F9
:10175000A11DB11D84179507A607B70710F3CB8805
:10176000DC88ED88FE888F89803109F042C0BB2774
:10177000A72F962F852F480159012A013B01C80E3A
:10178000D91EEA1EFB1E8091000290910102A091D9
:101790000202B0910302C816D906EA06FB0699F5C3
:1017A0008F898031C1F5B301A201552766277727BC
:1017B000440F551F42505B4FFA0191828082809105
:1017C0009A03816080939A038A89823080F08D81A8
:1017D0009E81AF81B8858C0D9D1DAE1DBF1D809370
:1017E0009B0390939C03A0939D03B0939E0381E081
:1017F00099CFDB01CA01E7E0B695A7959795879544
:10180000EA95D1F7B8CF40E0C701B6010E94EF09D1
:101810008111C6CF86CFB301A2014F775527662726
:101820007727440F551F440F551F42505B4FFA0155
:1018300080829182A282B382C2CF8F929F92AF9216
:10184000BF92CF92DF92EF92FF920F931F93CF93AD
:10185000DF93FC0181859285A385B4850196A11D46
:10186000B11D84179507A607B70770F480E0DF91D4
:10187000CF911F910F91FF90EF90DF90CF90BF908D
:10188000AF909F908F90089583889488A588B6889C
:101890008789803189F5BB27A72F962F852FE901EE
:1018A0006A017B018F01BC01CD01680D791D8A1D84
:1018B0009B1D8090000290900102A0900202B090C7
:1018C000030286169706A806B90601F5F80187896E
:1018D000803111F5DD24EE24FF24F601EE0FFF1F09
:1018E000E250FB4F80819181B0E0A0E08883998332
:1018F000AA83BB8381E0BBCFDB01CA01C7E0B695F9
:10190000A79597958795CA95D1F7C9CF40E00E94D2
:10191000EF098111DBCFAACFE894C7F8DD24EE24CC
:10192000FF24F601EE0FFF1FEE0FFF1FE250FB4FEB
:1019300080819181A281B381BF70D8CF4F925F9295
:101940006F927F92AF92BF92CF92DF92EF92FF920F
:101950000F931F93CF93DF9300D01F92CDB7DEB7C5
:101960008C0149835A836B837C835901C12CD12C10
:101970007601412C82E0582E612C712C49815A81CC
:101980006B817C819E012F5F3F4FC8010E941D0C1F
:10199000882339F1F8018585A301920104C0220F43
:1019A000331F441F551F8A95D2F7DA01C901C80EAB
:1019B000D91EEA1EFB1E49815A816B817C81878971
:1019C000803111F188EF9FEFAFEFBFE04817590763
:1019D0006A077B0798F2F501C082D182E282F38226
:1019E00081E00F900F900F900F90DF91CF911F919A
:1019F0000F91FF90EF90DF90CF90BF90AF907F90CE
:101A00006F905F904F90089588EF9FEFA0E0B0E057
:101A1000DDCFCF93DF93FC012581222321F080E0ED
:101A2000DF91CF910895EC018091A309803159F5A0
:101A300082E08583178A108E118E128E8091A40900
:101A40009091A509B0E0A0E025E0880F991FAA1F9A
:101A5000BB1F2A95D1F7838B948BA58BB68B8CE813
:101A600099E09C8F8B8F81E08C831E821F82188669
:101A700019861A861B861C861D861E861F86188A56
:101A8000198A1A8ACDCF803251F683E0858340913E
:101A9000A6095091A7096091A8097091A909478BDF
:101AA000508F618F728F9F012D5E3F4F8CE899E0C0
:101AB0000E949E0C8111D3CFB2CF8F929F92AF9292
:101AC000BF92CF92DF92EF92FF920F931F93CF932B
:101AD000DF93EC018D8181110EC080E0DF91CF9109
:101AE0001F910F91FF90EF90DF90CF90BF90AF903C
:101AF0009F908F9008950B891C892D893E8904172A
:101B000015072607370748F34A015B01823031F495
:101B10008A869B86AC86BD8681E0E0CF81149104E5
:101B2000A104B10449F41E821F82188619861A8600
:101B30001B861C861D86F0CF0A851B852C853D855E
:101B4000EB8DFC8D858590E00996B901A801415087
:101B5000510961097109082E04C07695679557955A
:101B600047950A94D2F775016401E1E0CE1AD108D5
:101B7000E108F10804C0F694E794D794C7948A95D5
:101B8000D2F7C416D506E606F70620F0012B022B85
:101B9000032B11F58F89988DA98DBA8D8E839F8324
:101BA000A887B9878E010A5F1F4FC114D104E104D1
:101BB000F10409F4ADCF4E815F8168857985980184
:101BC0008B8D9C8D0E941D0C91E0C91AD108E108F3
:101BD000F1088111EACF81CFC41AD50AE60AF70AC3
:101BE000E1CF3F924F925F926F927F928F929F923E
:101BF000AF92BF92CF92DF92EF92FF920F931F931B
:101C0000CF93DF93CDB7DEB72C970FB6F894DEBF36
:101C10000FBECDBF5C01DC015B968D909C905C9704
:101C200016964D905D906D907C90199741145104DB
:101C30006104710409F468C0BFEF4B1A5B0A6B0AB8
:101C40007B0A312CF40181859285A385B4859C01A2
:101C5000AD012F5F3F4F4F4F5F4F29873A874B872B
:101C60005C87730162011D821E821F821886F40147
:101C700081859285A385B4852D813E814F815885CC
:101C8000281739074A075B0708F056C089859A85E7
:101C9000AB85BC858C159D05AE05BF0550F482E073
:101CA000C82ED12CE12CF12C92E0492E512C612C24
:101CB000712C9E012F5F3F4FB701A601C4010E9406
:101CC0001D0C8823C9F189819A81AB81BC81892B44
:101CD0008A2B8B2B09F1260137019FEF491A590AEC
:101CE000690A790A2D813E814F8158852F5F3F4FC8
:101CF0004F4F5F4F2D833E834F8358873FEFC31A6B
:101D0000D30AE30AF30AB3CFF40140805180628022
:101D100073803324339496CFC414D504E604F704B7
:101D200009F70FEF1FEF2FEF3FE0B701A601C40146
:101D30000E947B0B811119C080E02C960FB6F8949D
:101D4000DEBF0FBECDBFDF91CF911F910F91FF90EE
:101D5000EF90DF90CF90BF90AF909F908F907F904B
:101D60006F905F904F903F900895D50116964D91DA
:101D70005D916D917C911997411551056105710532
:101D800039F097018601C4010E947B0B8823A1F2E0
:101D9000D5011696CD92DD92ED92FC9219973320E3
:101DA00051F0D701C6010196A11DB11DF401808338
:101DB0009183A283B383F5018789908DA18DB28D24
:101DC000892B8A2B8B2B39F48481C78AD08EE18EA4
:101DD000F28E80688483F50184818062848381E04F
:101DE000ACCF1F93CF93DF93FC012581222371F1A8
:101DF000162FEC01848187FF1EC0CF010E94390A93
:101E0000FC01892B19F18D81823040F48B899C89EA
:101E1000AD89BE89848F958FA68FB78F8F89988D56
:101E2000938F828F8F89988DA98DBA8DB58BA48B56
:101E30008C818F778C83111103C08C818F7E8C8372
:101E4000812FDF91CF911F910C94C40980E0DF9125
:101E5000CF911F910895FF920F931F93CF93DF931C
:101E6000EC018D81813041F090E080E0DF91CF91F5
:101E70001F910F91FF9008958C8181FFF5CF82FD16
:101E80001BC00091FC041091FD04C8010E941D08B4
:101E90000E94FC07F82EC8010E94EA078FEFF81293
:101EA000E3CF8C8185FF1BC060E0CE010E94F10E64
:101EB0008C818F7D8C83D8CF4B895C896D897E899D
:101EC0008A859B85AC85BD8584179507A607B707CE
:101ED000C1F2CE010E945D0D8111D3CFC5CF4091DB
:101EE0009B0350919C0360919D0370919E03452B31
:101EF000462B472B21F080E00E94A009B5CF8061DE
:101F00008C832A853B85317080E092E0821B930BA5
:101F1000ADCFCF93DF93EC0161E00E94F10E8823F7
:101F200011F01D8281E0DF91CF9108952F923F92B1
:101F30004F925F926F927F928F929F92AF92BF92D9
:101F4000CF92DF92EF92FF920F931F93CF93DF9385
:101F500000D01F921F92CDB7DEB77C015B01342EFB
:101F60005D83DC0115968C911597813009F0CEC008
:101F700014962C9021FECAC022FCB4C0C32CDD8074
:101F800022947FE027222094B22DB1702B2ED7010E
:101F90001A964D915D916D917C911D97C114D1045C
:101FA00009F428C15B968D919C915C97FC0174802B
:101FB0007A948A019B0169E03695279517950795D4
:101FC0006A95D1F770228A011170711020C0011535
:101FD0001105E9F416964D915D916D917C911997DB
:101FE000411551056105710509F099C057968D910C
:101FF0009D910D90BC91A02D0097A105B10509F010
:10200000B0C0C7010E94F10D882309F47FC080E0B1
:1020100092E0801B910B46018C159D0508F44C0144
:10202000D7015B964D915C915C9716968D919D9131
:102030000D90BC91A02D0297A109B109FA01258547
:1020400004C0880F991FAA1FBB1F2A95D2F7468587
:10205000578560897189840F951FA61FB71F9C0142
:10206000AD01270D311D411D511D29013A0181147A
:1020700032E0930609F07BC080910002909101024A
:10208000A0910202B091030284159505A605B7053B
:1020900059F48FEF9FEFDC018093000290930102CF
:1020A000A0930202B0930302022D9501B301A20195
:1020B0008091FC049091FD040E943209882331F143
:1020C0009EEFB91AC818D908F70182859385A485AF
:1020D000B585880D991DA11DB11D82879387A487A1
:1020E000B58755CFF70143895489658976898285FB
:1020F0009385A485B585481759076A077B0709F4B6
:102100003DCFC7010E945D0D811138CF81E090E085
:10211000D70113969C938E93129780E007C09E017F
:102120002F5F3F4F0E941D0C811102C090E079C0CB
:1021300089819A81AB81BC81F701238D348DF901AE
:10214000278948EF5FEF60E070E0203121F048EF31
:102150005FEF6FEF7FE084179507A607B70708F0DA
:1021600050CFF70186839783A087B18750CF0115A1
:10217000110599F5D7011A964D915D916D917C915C
:102180001D9753968D919D910D90BC91A02D481750
:1021900059076A077B0708F181E00E94C409882378
:1021A00009F4B4CF40920002509201026092020200
:1021B0007092030280919A03816080939A03C80110
:1021C00082509B4FD5019C01280D391DFC012E1713
:1021D0003F0759F04D914193FACF41E0C301B2015D
:1021E0000E94EF098111EBCF91CF281B390BA20E72
:1021F000B31E68CFF70183899489A589B6898417AE
:102200009507A607B70738F48481438B548B658BF9
:10221000768B80688483F701848183FD1AC0832DC7
:102220009D810F900F900F900F900F90DF91CF91A5
:102230001F910F91FF90EF90DF90CF90BF90AF90E4
:102240009F908F907F906F905F904F903F902F90D6
:10225000089561E0C7010E94F10E882309F456CF6A
:10226000DECFCF93DF931F92CDB7DEB7698341E016
:1022700050E0BE016F5F7F4F0E94960F0F90DF917D
:10228000CF910895FC01DB0112968D919C911397DB
:10229000938382838AE392E09183808314968C9166
:1022A0001497848315968C911597858316964D9176
:1022B0005D916D917C9119974683578360877187F3
:1022C0001A964D915D916D917C911D974287538730
:1022D000648775871E964D915D916D917C915197A4
:1022E00046875787608B718B52968C915297828B61
:1022F00053964D915D916D917C915697438B548B84
:10230000658B768B57964D915D916D917C915A9727
:10231000478B508F618F728F5B968D919C91948FBC
:10232000838F0895FC01818D928D009719F061E0F3
:102330000C94F10E0895DC015996ED91FC913097C3
:10234000B9F083899489A589B689428553856485C6
:102350007585841B950BA60BB70B811520E892079A
:10236000A105B10538F08FEF9FE7A0E0B0E0089538
:1023700090E080E00895DC0159968D919C91009742
:1023800039F0DC01ED91FC910480F581E02D199488
:1023900090E080E00895CF93DF93EC01E98DFA8D12
:1023A000309749F481E090E09B838A8390E080E05D
:1023B000DF91CF91089513821282898D9A8D0E94A8
:1023C000960FE98DFA8D22813381232B59F7F0CFB7
:1023D000CF93DF931F92CDB7DEB76983DC01ED9118
:1023E000FC910280F381E02D41E050E0BE016F5F7F
:1023F0007F4F19950F90DF91CF9108952F923F92C3
:102400004F925F926F927F928F929F92AF92BF9204
:10241000CF92DF92EF92FF920F931F93CF93DF93B0
:1024200000D0CDB7DEB7FC018581811118C08FEFD8
:102430009FEF0F900F900F90DF91CF911F910F9111
:10244000FF90EF90DF90CF90BF90AF909F908F90D4
:102450007F906F905F904F903F902F900895848170
:1024600080FFE5CF43895489658976898285938584
:10247000A485B585312C212C481759076A077B079D
:1024800019F022242394312C6F012101CE010196F1
:102490003C01DF011696BB83AA834114510409F461
:1024A000C5C0F60142855385648575854A01F1E012
:1024B0009F22D6015B968D919C915C978A019B012E
:1024C000E9E03695279517950795EA95D1F7159682
:1024D000EC91E230E9F5FC01628D738D848D958D70
:1024E000600F711F821F931FA12C22E0B22EA8182B
:1024F000B9084A145B0408F45201F601248126FD50
:1025000004C0A114F2E0BF0671F400910002109122
:1025100001022091020230910302061717072807D3
:10252000390709F05EC040E00E94EF09882309F4F2
:102530007ECFC40182509B4FD3019C012A0D3B1DCD
:10254000FC012E173F0709F46CC041914D93F9CF60
:10255000DC011496BC90BA94B0228114910479F4F1
:10256000B1100DC0452B462B472B69F5F601878925
:10257000908DA18DB28D86839783A087B187D60178
:102580005B96ED91FC915C9716966D917D918D9186
:102590009C9119976250710981099109258504C0A0
:1025A000660F771F881F991F2A95D2F70685178512
:1025B00020893189600F711F821F931F6B0D711D60
:1025C000811D911D91CFD60116964D915D916D9112
:1025D0007C9119972A813B810E941D0C8111CFCFDC
:1025E00026CF730185019401AB01BC018091FC04ED
:1025F0009091FD040E949008882309F418CF6A0C7A
:102600007B1CF60182859385A485B5858A0D9B1D6B
:10261000A11DB11D82879387A487B5874A185B08DF
:102620003CCF281B390B620E731EEBCF2A94232854
:1026300009F0FDCE898190E0FCCEFC01818D928D68
:10264000009711F00C94FE118FEF9FEF08950F93F8
:102650001F93CF93DF93EC01898D9A8D10E000E0FA
:10266000009799F00E94FE118C010F3F100769F04E
:10267000898D9A8DFC01428553856485758541500D
:102680005109610971090E945D0DC801DF91CF9167
:102690001F910F9108958F929F92AF92BF92CF9208
:1026A000DF92EF92FF920F931F93CF93DF9300D0AF
:1026B0001F92CDB7DEB7FC018581813091F080E0BB
:1026C0000F900F900F900F90DF91CF911F910F916E
:1026D000FF90EF90DF90CF90BF90AF909F908F9042
:1026E0000895848181FFEBCF83899489A589B68978
:1026F000892B8A2B8B2B09F45FC07F0140E050E0CF
:10270000BA01CF010E945D0D8823C9F2F701C38C85
:10271000D48C8788908CA18CB28C82E090E0A0E071
:10272000B0E0F60180839183A283B3839E012F5F83
:102730003F4FB501A401C6010E941D0C882309F476
:10274000BECF00E010E09801B501A401C6010E94CF
:102750007B0B882309F4B3CF89809A80AB80BC803F
:10276000F6018789803119F188EF9FEFAFEFBFE065
:1027700088169906AA06BB06C8F2F701178A108EBA
:10278000118E128E138A148A158A168A84818068A3
:10279000848361E0C7010E94F10E882309F48FCF82
:1027A00040E050E0BA01C7010E945D0D89CF88EF7B
:1027B0009FEFA0E0B0E0DCCF81E082CFCF92DF924C
:1027C000EF92FF921F93CF93DF93EC0180E2689F1B
:1027D000F0011124E250FB4F9385917161F0842F39
:1027E000827449F080E0DF91CF911F91FF90EF90CC
:1027F000DF90CF900895142F6A8B80910002909102
:102800000102A0910202B09103028E879F87A88BDC
:10281000B98BC488D588F12CE12C7601DD24CC2439
:10282000CF8AD88EE98EFA8E828D938DB0E0A0E0AB
:10283000AC01BD014C295D296E297F294F8B588F32
:10284000698F7A8F83858871B1F4848D958DA68D7B
:10285000B78D8B8B9C8BAD8BBE8B81E08D831F7076
:102860001C831E821F82188619861A861B861C8668
:102870001D8681E0B8CF803109F0B4CF9E012D5E76
:102880003F4F8B8D9C8D0E949E0C882309F4AACF0C
:1028900084E0E4CF0F931F93CF938C01C62F0E9447
:1028A000FA066C2F6460C8010E94FA066C2F6B7FD9
:1028B000C8010E94FA0683EC90E00197F1F7CF91EE
:1028C0001F910F9108950F931F93CF93DF938C0166
:1028D000D62FC42F607F642B0E944A1480E1D89FBA
:1028E000B00111246C2BC801DF91CF911F910F9182
:1028F0000C944A1440E061E080EF99E00E94631478
:102900008BE39FE10197F1F70895CF93DF9300D018
:1029100000D01F921F92CDB7DEB798E0EAE0F2E058
:10292000DE01119601900D929A95E1F79091F809C8
:10293000961708F46FEF262F30E0220F331F41E087
:1029400050E04C0F5D1F240F351FF9016081680FA7
:10295000606840E080EF99E028960FB6F894DEBFFB
:102960000FBECDBFDF91CF910C94631441E00E9464
:10297000631481E090E008958091E2099091E30969
:10298000009761F00E94890F8091E2099091E3091C
:102990000E94482B1092E3091092E2090895FC016D
:1029A00080819181009711F00C94482B0895FB01D0
:1029B00001900020E9F73197AF01461B570BDC016E
:1029C000ED91FC910280F381E02D19944F925F927A
:1029D0006F927F928F929F92AF92BF92CF92DF922F
:1029E000EF92FF920F931F93CF93DF93CDB7DEB794
:1029F000A1970FB6F894DEBF0FBECDBF8C016B015F
:102A0000770FEE08FF08F7FE49C0DC01ED91FC915D
:102A10000190F081E02D6DE219955C0122273327AA
:102A2000A9012C193D094E095F0919A2FE01B196B1
:102A30007F019AE0492E512C612C712CCA01B901F9
:102A4000A30192010E94672A605DD7016E937D0108
:102A5000211531054105510589F790E080E0109777
:102A600021F0BD01C8010E94D7148A0D9B1DA196BB
:102A70000FB6F894DEBF0FBECDBFDF91CF911F918F
:102A80000F91FF90EF90DF90CF90BF90AF909F900D
:102A90008F907F906F905F904F900895A70196015F
:102AA00019A2FE01B1967F018AE0882E912CA12CFB
:102AB000B12CCA01B901A50194010E94672A605D89
:102AC000D7016E937D01211531054105510589F727
:102AD00090E080E0109759F2BD01C8010E94D71420
:102AE000C6CF0F931F93CF93DF93EC010E94E614A0
:102AF0008C0160E672E0CE010E94D714800F911F16
:102B0000DF91CF911F910F9108950F931F93CF9352
:102B1000DF93EC010E94D7148C0160E672E0CE01D5
:102B20000E94D714800F911FDF91CF911F910F91B9
:102B300008950F931F93CF93DF93EC010E940E0231
:102B40008C0160E672E0CE010E94D714800F911FC5
:102B5000DF91CF911F910F9108950C94D71420917C
:102B6000180A3091190ADC0114964D915C91159761
:102B700024173507D9F4E091140AF091150A6D91E4
:102B80007C913097D1F06115710599F4232BC1F038
:102B9000808190E008C0232B99F0FB01808190E0B8
:102BA00091958195910921E0892B09F020E0822FF0
:102BB0000895CF010E94D32CF6CF6115710559F706
:102BC00021E0F5CF0F931F93CF93DF938C01EB019F
:102BD000FC01808191810097E1F068817981611524
:102BE0007105A9F0428153812C813D814217530721
:102BF00070F00E94DC2C8C819D81F8019583848388
:102C00001D821C82DF91CF911F910F9108950E9428
:102C1000482B88819981F801918380838A819B81E7
:102C2000938382838C819D8195838483198218820A
:102C30001B821A82E5CF0F931F93CF93DF93EC0192
:102C400088819981009759F02A813B81261737079F
:102C500030F081E0DF91CF911F910F9108958B01AA
:102C60006F5F7F4F0E94D12B009759F09983888323
:102C70001B830A832C813D81232B59F7FC01108291
:102C8000E8CF80E0E7CFEF92FF920F931F93CF93AF
:102C9000DF931F921F92CDB7DEB78C0169831A8232
:102CA000FC01E480F580FFEFEF1AFF0AB7010E94F4
:102CB0001B16882381F0F801208131818481958160
:102CC000BE016F5F7F4F820F931F0E94DC2CF801C3
:102CD000F582E48281E00F900F90DF91CF911F91F8
:102CE0000F91FF90EF900895EF92FF920F931F9333
:102CF000CF93DF93EC017B018A01BA010E941B167E
:102D000028813981811114C02115310519F0C901BB
:102D10000E94482B198218821D821C821B821A82F3
:102D2000CE01DF91CF911F910F91FF90EF90089509
:102D30001D830C83B701C9010E94DC2CF1CFFB017C
:102D4000DC0111961C921E9213961C921E921297F1
:102D500015961C921E9214978617970749F060816A
:102D600071816115710521F0448155810C947416AF
:102D70000895FC011182108213821282158214823E
:102D8000FB0101900020E9F73197AF01461B570B7B
:102D90000C947416CF92DF92EF92FF920F931F93D1
:102DA000CF93DF93EC016B017A014617570720F4AC
:102DB0008D2D6A01E62EF82E62E672E0CE010E94A9
:102DC000B9160091300A1091310AC016D10640F5AB
:102DD000E016F10608F48701E0912C0AF0912D0A23
:102DE000E00FF11FF080108260912C0A70912D0A83
:102DF0006C0D7D1D61157105E9F0FB01019000204E
:102E0000E9F73197AF01461B570BCE010E947416AC
:102E100080912C0A90912D0A080F191FF801F08259
:102E2000CE01DF91CF911F910F91FF90EF90DF9036
:102E3000CF90089588819981009711F00E94482BC6
:102E4000198218821D821C821B821A82E1CF85EDB5
:102E50008093BC008091E2039091E303A091E4038E
:102E6000B091E5030796A11DB11D23E0B695A79586
:102E7000979587952A95D1F72091BC0024FD03C032
:102E800010922B0408954091E2035091E303609166
:102E9000E4037091E503452B462B472B69F300971C
:102EA000A105B10541F025E32A95F1F7000001974E
:102EB000A109B109E1CF8091E1030C9453063F923F
:102EC0004F925F926F927F928F929F92AF92BF923A
:102ED000CF92DF92EF92FF920F931F93CF93DF93E6
:102EE00000D000D000D01F921F92CDB7DEB77C017A
:102EF000FE013196CE010C966F0130E231938E17B0
:102F00009F07E1F7DA0130E087E09D91B92E992320
:102F100009F43CC09E32F1F48A30C9F480E02B966B
:102F20000FB6F894DEBF0FBECDBFDF91CF911F91DA
:102F30000F91FF90EF90DF90CF90BF90AF909F9058
:102F40008F907F906F905F904F903F90089538E002
:102F50008AE0DBCFECE9F1E04491442321F03196A3
:102F60009413FACFDBCF8317C8F24FED490F4E35DC
:102F7000A8F64FE9490F4A3118F440EEB42EB90EC5
:102F8000F601E30FF11DB0823F5FBFCF8981803230
:102F900029F2322E8B01DB015B968D919C915C971F
:102FA000F701948F838F16961D921D921D921C928D
:102FB0001997FB011286138614861586F8018285FF
:102FC0009385A485B5854389548965897689841755
:102FD0009507A607B70708F04DC025E0B695A79559
:102FE000979587952A95D1F7F82FFF70AF2ED801C6
:102FF00015968C91823008F491CFC8010E94FE1181
:1030000097FD8CCFF80182859385A485B5854F9671
:10301000A11DB11D82879387A487B587F0E2AF9E7B
:10302000B001112462507B4F6115710509F476CF10
:10303000DB018C91882341F0853E09F058C0BB200C
:1030400029F0BB24B394BACFB1100EC0F701A28A05
:103050008091000290910102A0910202B0910302BE
:1030600086879787A08BB18BDB018C918111E9CF8B
:10307000BB24B394832D8271823109F04FCFBB20E2
:1030800009F443C0C7010E94390A009709F446CFEA
:1030900020E2FC0111922A95E9F72BE0F601DC0110
:1030A00001900D922A95E1F721E238E2DC01519678
:1030B0003C932E93509740E058E01F965C934E93BC
:1030C0001E9753963C932E93529759963C932E936A
:1030D000589757965C934E93569781E00E94C40987
:1030E000882309F41BCF432DF70162890AC04BE006
:1030F00050E0C6010E94B22C892B09F05FCF432D0E
:103100006A2DC7010E94DE130ACFF8018581823043
:1031100009F404CFC8010E94F10D882309F4FECE02
:10312000D8015B96ED91FC915C9716968D909D90E1
:10313000AD90BC901997B2E08B1A9108A108B10824
:10314000858504C0880C991CAA1CBB1C8A95D2F7E3
:1031500086859785A089B189880E991EAA1EBB1EF7
:10316000848124013501480E511C611C711C4814D6
:1031700059046A047B0409F1E1E04E1A5108610820
:10318000710881E00E94C409882309F4C7CEEEEFDC
:10319000F4E011928EEF96E08E179F07D1F74092E0
:1031A000000250920102609202027092030280912A
:1031B0009A03816080939A03DACFD8015B96ED91F0
:1031C000FC91258580E092E0A0E0B0E004C0880F8B
:1031D000991FAA1FBB1F2A95D2F7F801438954896A
:1031E00065897689840F951FA61FB71F838B948BE3
:1031F000A58BB68BD70152961C928EEF94E048CFE8
:103200009F92AF92BF92CF92DF92EF92FF920F9375
:103210001F93CF93DF93CDB7DEB7C456D1090FB656
:10322000F894DEBF0FBECDBF6C011EAE1DAE8AE3AB
:1032300092E09CAF8BAF21961FAE219719A218A2E6
:103240009F8F8E8F1BA2A12C912C7E018BE3E80E09
:10325000F11C0AEA19E08A2D992DF601E80FF91FF1
:1032600020812F3209F40196D601A80FB91FFE0163
:10327000E85AFF4F30E020E0AF016D916F3249F026
:10328000662339F001962F5F3F4F61932C30310553
:10329000A1F7240F351FF9011082F601E80FF91F7D
:1032A00020812F3209F40196A82E992E8C0D9D1D98
:1032B000FC01808181112BC01C821B828AE392E079
:1032C0009A8389831E8222E0B801CE0101960E9472
:1032D0005F178823A9F0CE0101960E944B13882323
:1032E00079F0CE0101960E94390A009749F025EE47
:1032F000FC0120831E8281E00E94C40981111BC051
:10330000F9E00A3A1F0709F041C080E01CC0F7014C
:103310008581811136C021E0B801C7010E945F1785
:10332000B82E89E00A3A180709F1C8010E94890FEE
:10333000B11021C0EACFF9E00A3A1F0719F0C8011D
:103340000E94890F81E0CC59DF4F0FB6F894DEBFA1
:103350000FBECDBFDF91CF911F910F91FF90EF90E6
:10336000DF90CF90BF90AF909F900895BB2069F2FF
:103370008E01025E1F4F902F812F8701E92EF82EBC
:103380006ACF89E00A3A180709F4BFCFC8010E9442
:10339000890FBBCFEF92FF920F931F93CF93DF93D1
:1033A000EC017B018A011B821A8288EE93E0A0E087
:1033B000B0E08C839D83AE83BF8386E492E09983E3
:1033C00088838DE190E00E94AC2A9A8F898F0097C4
:1033D00079F02DE1F701DC0101900D922A95E1F7DA
:1033E0004CE050E0B801CE010C960E94E32C188E00
:1033F000DF91CF911F910F91FF90EF9008952F9241
:103400003F924F925F926F927F928F929F92AF9274
:10341000BF92CF92DF92EF92FF920F931F93CF93C1
:10342000DF93CDB7DEB7C756D1090FB6F894DEBF2C
:103430000FBECDBF6C015B01A6964FAFA69719A238
:1034400018A28AE392E09F8F8E8F1BA21C821B82A0
:103450009A8389831E824E018EE1880E911CC401DD
:103460000E94090D75018E010F5F1F4F2401180185
:103470006FE270E0C7010E94C82C009709F45DC09C
:10348000F70120812F3271F4FFEFEF1AFF0A902F1E
:10349000812F8201492E582E942D852D2801092F28
:1034A000182FE6CF8E198D3008F08CE0682E712C25
:1034B000A301B701CE01885A9F4F0E94E32CE8E593
:1034C000F0E0EC0FFD1FE60DF71D1082C8010E9411
:1034D000890FF8018581882301F11EAE1DAE8AE3B4
:1034E00092E09CAF8BAF21961FAE2197A896EEADD0
:1034F000FFADA897AE0EBF1EF501808181112AC0D5
:10350000BE01655C7F4FC1010E94421143E652E05B
:10351000B101C6010E94CA193BC021E0AE01485A60
:103520005F4FB201C8010E945F178823B1F2E60C19
:10353000F71CC2010E94890FAFCFC7018A199B09EE
:10354000A8969FAF8EAFA897B201CE01CB960E94EE
:103550004211CCCF19A218A28AE392E09F8F8E8FDE
:103560001BA221968FAD219781112DC0F6011382E8
:10357000128288EE93E0A0E0B0E084839583A68376
:10358000B78386E492E091838083128E118E148635
:10359000C601C959DF4F0FB6F894DEBF0FBECDBFCD
:1035A000DF91CF911F910F91FF90EF90DF90CF901F
:1035B000BF90AF909F908F907F906F905F904F9053
:1035C0003F902F900895A6962FADA697A501BE0116
:1035D000655C7F4FC4010E945F17882339F2CE01DA
:1035E000CB960E94890FA6968FADA69786708630DF
:1035F00039F449A95AA96BA97CA9C4010E945D0D9F
:10360000B401C1010E944211A50182CFCF93DF9383
:1036100000D000D0CDB7DEB789EC99E00E949B11B5
:103620001816190654F489EC99E00E941D13682FAE
:103630008CE29AE00E944316EFCF8091300A90917D
:10364000310A181619060CF045C048E050E070E049
:1036500060E0CE0101960E94CA16BE016F5F7F4FE7
:1036600080E29AE00E94E215CE0101960E94CF14FA
:103670004BE050E069E070E0CE0101960E94CA166E
:10368000BE016F5F7F4F86E29AE00E94E215CE0195
:1036900001960E94CF144DE050E06CE070E0CE0146
:1036A00001960E94CA16BE016F5F7F4F8AE19AE0C1
:1036B0000E94E215CE0101960E94CF148091260A45
:1036C0009091270A009779F00E94F9297093F904E4
:1036D0006093F80426960FB6F894DEBF0FBECDBFF8
:1036E000DF91CF91089560E070E0CB01EFCF1F92A2
:1036F0000F920FB60F9211240BB60F922F933F9398
:103700004F935F936F937F938F939F93AF93BF93E9
:10371000EF93FF938EEF96E00E94C702FF91EF9127
:10372000BF91AF919F918F917F916F915F914F91D9
:103730003F912F910F900BBE0F900FBE0F901F90D7
:1037400018951F920F920FB60F9211240BB60F927D
:103750002F933F934F935F936F937F938F939F9399
:10376000AF93BF93EF93FF938EEF96E00E944902D1
:10377000FF91EF91BF91AF919F918F917F916F9149
:103780005F914F913F912F910F900BBE0F900FBE05
:103790000F901F9018951F920F920FB60F92112441
:1037A0000BB60F922F933F934F935F936F937F933B
:1037B0008F939F93AF93BF93EF93FF938BE997E022
:1037C0000E94C702FF91EF91BF91AF919F918F919E
:1037D0007F916F915F914F913F912F910F900BBE11
:1037E0000F900FBE0F901F9018951F920F920FB65B
:1037F0000F9211240BB60F922F933F934F935F9329
:103800006F937F938F939F93AF93BF93EF93FF93A8
:103810008BE997E00E944902FF91EF91BF91AF9130
:103820009F918F917F916F915F914F913F912F91D8
:103830000F900BBE0F900FBE0F901F9018951F9208
:103840000F920FB60F9211240BB60F922F933F9346
:103850004F935F936F937F938F939F93AF93BF9398
:10386000EF93FF9388E398E00E94C702FF91EF91E6
:10387000BF91AF919F918F917F916F915F914F9188
:103880003F912F910F900BBE0F900FBE0F901F9086
:1038900018951F920F920FB60F9211240BB60F922C
:1038A0002F933F934F935F936F937F938F939F9348
:1038B000AF93BF93EF93FF9388E398E00E94490290
:1038C000FF91EF91BF91AF919F918F917F916F91F8
:1038D0005F914F913F912F910F900BBE0F900FBEB4
:1038E0000F901F9018951F920F920FB60F921124F0
:1038F0000BB60F922F933F934F935F936F937F93EA
:103900008F939F93AF93BF93EF93FF9385ED98E0D1
:103910000E94C702FF91EF91BF91AF919F918F914C
:103920007F916F915F914F913F912F910F900BBEBF
:103930000F900FBE0F901F9018951F920F920FB609
:103940000F9211240BB60F922F933F934F935F93D7
:103950006F937F938F939F93AF93BF93EF93FF9357
:1039600085ED98E00E944902FF91EF91BF91AF91E0
:103970009F918F917F916F915F914F913F912F9187
:103980000F900BBE0F900FBE0F901F9018951F92B7
:103990000F920FB60F9211242F933F938F939F9303
:1039A000AF93BF938091E7049091E804A091E9045C
:1039B000B091EA043091E60423E0230F2D3758F547
:1039C0000196A11DB11D2093E6048093E704909316
:1039D000E804A093E904B093EA048091EB04909189
:1039E000EC04A091ED04B091EE040196A11DB11D6F
:1039F0008093EB049093EC04A093ED04B093EE0459
:103A0000BF91AF919F918F913F912F910F900FBEDA
:103A10000F901F90189526E8230F0296A11DB11D47
:103A2000D2CF1F920F920FB60F9211240BB60F92A6
:103A30002F933F934F935F936F937F938F939F93B6
:103A4000AF93BF93EF93FF9348E251E064E271E0DC
:103A500090E080E00E945405FF91EF91BF91AF91FB
:103A60009F918F917F916F915F914F913F912F9196
:103A70000F900BBE0F900FBE0F901F9018951F92C6
:103A80000F920FB60F9211240BB60F922F933F9304
:103A90004F935F936F937F938F939F93AF93BF9356
:103AA000EF93FF9348EA50E064EA70E083E090E02F
:103AB0000E945405FF91EF91BF91AF919F918F911B
:103AC0007F916F915F914F913F912F910F900BBE1E
:103AD0000F900FBE0F901F9018951F920F920FB668
:103AE0000F9211240BB60F922F933F934F935F9336
:103AF0006F937F938F939F93AF93BF93EF93FF93B6
:103B000048E950E064E970E082E090E00E945405EA
:103B1000FF91EF91BF91AF919F918F917F916F91A5
:103B20005F914F913F912F910F900BBE0F900FBE61
:103B30000F901F9018951F920F920FB60F9211249D
:103B40000BB60F922F933F934F935F936F937F9397
:103B50008F939F93AF93BF93EF93FF9348E850E009
:103B600064E870E081E090E00E945405FF91EF91DD
:103B7000BF91AF919F918F917F916F915F914F9185
:103B80003F912F910F900BBE0F900FBE0F901F9083
:103B900018951F920F920FB60F9211240BB60F9229
:103BA0002F933F934F935F936F937F938F939F9345
:103BB000AF93BF93EF93FF938091B900887F8036D6
:103BC00009F44DC008F040C0883209F4A9C028F5B6
:103BD000803109F49DC0C8F4882309F4FBC0883003
:103BE00009F496C0FF91EF91BF91AF919F918F9192
:103BF0007F916F915F914F913F912F910F900BBEED
:103C00000F900FBE0F901F901895883109F488C04F
:103C1000803241F780932A0414C0803409F49DC097
:103C200040F48033B9F38833E9F680932A0485ECB5
:103C3000B0C0803509F485C0883509F496C0883451
:103C400089F60E942717CECF883909F48CC038F541
:103C5000883729F050F4883611F0803719F683E060
:103C600080932B041092290457C0883809F47BC034
:103C7000803919F0803809F0B5CF8091290480325D
:103C800008F071C0E091290481E08E0F809329042F
:103C90008091BB00F0E0E75FFB4F80833DC0803B3D
:103CA00039F0E0F4803A09F479C0883A09F09ACF03
:103CB00084E080932B041092080410920704E09192
:103CC000F104F091F20419958091070481110FC05D
:103CD00081E0809307041092E70309C0803C09F457
:103CE000A6CF883C09F4A3CF883B09F07BCFE091B5
:103CF000080481E08E0F80930804F0E0E951FC4F46
:103D000080818093BB00909108048091070429C0B2
:103D1000809150048093BB0085EC8093BC0062CFFF
:103D200090914F0480914E04981758F5E0914F04FC
:103D300081E08E0F80934F04F0E0E25DFB4F8081C5
:103D4000E9CFE0914F0481E08E0F80934F04809182
:103D5000BB00F0E0E25DFB4F808390914F048091C7
:103D60004E049817C8F285E8D8CFE0914F0481E05F
:103D70008E0F80934F048091BB00F0E0E25DFB4F1B
:103D8000808380912D0481115CCF81E080932C048D
:103D900084EA8093BC0010922B0424CF85EC80939E
:103DA000BC0010922B0480912904803230F4E09101
:103DB0002904F0E0E75FFB4F10826091290470E076
:103DC000E091EF04F091F00489E094E019951092ED
:103DD000290408CF10922A0434CFFC019091550495
:103DE000903398F481E0890F809355049083892F54
:103DF00090E0FC01EE0FFF1FE80FF91FEA5AFB4F9E
:103E000088EB9BE09283818308958FEF80830895F0
:103E1000CF92DF92EF92FF92EEEFF6E013821282E2
:103E200088EEC82E83E0D82EE12CF12CC482D582F6
:103E3000E682F78286E192E09183808325E331E098
:103E40003587248724E331E03787268720E331E074
:103E5000318B208B21E331E0338B228B22E331E065
:103E6000358B248B26E331E0378B268B118E128E17
:103E7000138E148EEBE9F7E013821282C482D5828E
:103E8000E682F7829183808325ED30E035872487B1
:103E900024ED30E03787268720ED30E0318B208B12
:103EA00021ED30E0338B228B22ED30E0358B248BFB
:103EB00026ED30E0378B268B118E128E138E148EEA
:103EC000E8E3F8E013821282C482D582E682F782A8
:103ED000918380832DEC30E0358724872CEC30E013
:103EE0003787268728EC30E0318B208B29EC30E0B7
:103EF000338B228B2AEC30E0358B248B2EEC30E098
:103F0000378B268B118E128E138E148EE5EDF8E012
:103F100013821282C482D582E682F78291838083E3
:103F200085EC90E09587848784EC90E0978786877E
:103F300080EC90E0918B808B81EC90E0938B828B76
:103F400082EC90E0958B848B86EC90E0978B868B4F
:103F5000118E128E138E148EE2E7F9E01382128214
:103F6000C482D582E682F78288E292E091838083E0
:103F7000EEE7F9E080E580831182E0E8F9E0158260
:103F800016821186138682E090E0A0E0B0E084877C
:103F90009587A687B78713A215A614A68AE392E091
:103FA00093A782A717A662E672E08CE29AE00E94CD
:103FB000B91662E672E086E29AE00E94B91662E6FD
:103FC00072E080E29AE00E94B91662E672E08AE14D
:103FD0009AE00E94B91662E672E084E19AE00E94DB
:103FE000B91665E672E08CEF99E00E94B9166EE6AC
:103FF00072E082E09AE00E94B91667E772E088E01A
:104000009AE00E94B91660E872E08EE09AE00E94A1
:10401000B916E0EFF9E01382128288E592E091830D
:10402000808387E2848380E1818782E082871386B0
:104030008DEE99E00E94ED1E8AEE99E00E94ED1E41
:1040400087EE99E00E94ED1E84EE99E00E94ED1E3D
:10405000E9ECF9E013821282C482D582E682F7820B
:1040600086E492E091838083128E118E1486FF90F5
:10407000EF90DF90CF900895CF93DF93CDB7DEB769
:104080006B970FB6F894DEBF0FBECDBF789484B5A2
:10409000826084BD84B5816084BD85B5826085BD44
:1040A00085B5816085BD80916E00816080936E00D2
:1040B00010928100809181008260809381008091C4
:1040C0008100816080938100809180008160809375
:1040D00080008091B10084608093B1008091B00035
:1040E00081608093B0008091910082608093910004
:1040F0008091910081608093910080919000816017
:10410000809390008091A10082608093A1008091B3
:10411000A10081608093A1008091A00081608093C4
:10412000A000809121018260809321018091210172
:104130008160809321018091200181608093200122
:1041400080917A00846080937A0080917A00826006
:1041500080937A0080917A00816080937A008091C8
:104160007A00806880937A001092C1001092F60461
:104170001092F5041092F4041092F3040E94350694
:104180008BE092E09093F2048093F1048CE092E053
:104190009093F0048093EF041092F5098091FA094E
:1041A000823018F098E09093F5098093F80962E363
:1041B00070E080E090E00E942C046091FB0980EFA9
:1041C00099E00E94FA0668EE73E080E090E00E94B9
:1041D0002C0460E380EF99E00E944A140BE416E49B
:1041E000C8010197F1F760E380EF99E00E944A145B
:1041F000C8010197F1F760E380EF99E00E944A144B
:1042000083E592E00197F1F760E280EF99E00E9488
:104210004A146091F509606240E080EF99E00E94E5
:10422000631484E08093F60940E06CE080EF99E04D
:104230000E9463140E947A1482E08093F70940E0A0
:1042400066E080EF99E00E94631440E062E080EF56
:1042500099E00E9463148BE39FE10197F1F788E0F6
:104260008093FB0960E080EF99E00E94FA0685EDFB
:1042700098E00E948E0188E398E00E948E018BE90D
:1042800097E00E948E018EEF96E00E948E0182E000
:104290000E94EC0183E00E94EC0184E00E94EC01AA
:1042A00085E00E94EC0169E872E085ED98E00E94EB
:1042B000851564E972E088E398E00E9485156FE94E
:1042C00072E08BE997E00E9485156AEA72E08EEF52
:1042D00096E00E94851569E070E08DEE99E00E94FD
:1042E000CD0470E060E08DEE99E00E946A0468E021
:1042F00070E08AEE99E00E94CD0470E060E08AEE02
:1043000099E00E946A0467E070E087EE99E00E94FD
:10431000CD0470E060E087EE99E00E946A0466E0F8
:1043200070E084EE99E00E94CD0470E060E084EEDD
:1043300099E00E946A0485E30E94EC018091AF0934
:10434000882321F08AEA99E00E94890F10928B0954
:1043500010928909109286091092850985E380934D
:1043600084090E945E048B01809184090E94EC0103
:1043700061E0809184090E947B03FFB6F8948091EC
:10438000F704811124C0EBE5F2E08491E1EAF2E068
:104390009491E82FF0E0EE0FFF1FE45FFD4FA59131
:1043A000B491EC91E92321F461E085E30E947B0361
:1043B00085E30E94EC018CB580618CBD8CB5806476
:1043C0008CBD84E30E94EC0183E30E94EC018091A8
:1043D000F7048F5F8093F704FFBE82E580937E0928
:1043E00010927F0980917E0990917F090E941A089E
:1043F0003AE0F32E8FEF0E94F507FA94F110FACF0E
:1044000080E899E00E941D0820E030E0A90160E00A
:1044100080E899E00E943308F82E80938A0981E0B1
:10442000F81609F48CC10E945E04601B710B613D9B
:10443000774050F381E08093850980E899E00E94FD
:10444000EA0785EB92E00E94001947E165EB72E014
:10445000CE0101960E94FF19CE0101960E94B5017E
:1044600060EC72E089EC99E00E9485150E94BC1412
:104470008EEC92E00E94001947E16EEC72E0CE01F2
:1044800001960E94FF19CE0101960E94B50169EDC7
:1044900072E089EC99E00E9485150E94BC1487EEB9
:1044A00092E00E94001947E167EE72E0CE010196AA
:1044B0000E94FF19CE0101960E94B50162EF72E0E1
:1044C00089EC99E00E9485150E94BC1480E093E07D
:1044D0000E94001947E160E073E0CE0101960E945E
:1044E000FF19CE0101960E94B5016BE073E089ECE3
:1044F00099E00E9485150E94BC148AE1E82E8AE0AA
:10450000F82E85ED98E00E949302181619060CF01B
:104510002CC261E085E00E947B036AE570E08DEECD
:1045200099E00E946A0460ED77E080E090E00E94EC
:104530002C0470E060E08DEE99E00E946A0485ED45
:1045400098E00E949302181619060CF019C741E072
:1045500065EB72E0CE0101960E94FF19CE01019633
:104560000E94B5010E94061B0E94BC1485ED98E0D4
:104570000E9471020091FA041091FB040F5F1F4F1B
:104580001093FB040093FA04682F84E19AE00E94E0
:1045900043160830110599F60CEF19E0B801CE0169
:1045A00001960E949F16CE0101960E94AF158823A6
:1045B00009F48BC160E27AE085ED98E00E949915DC
:1045C00069E173E085ED98E00E94851567E273E08C
:1045D00085ED98E00E94AD1560E27AE085ED98E007
:1045E0000E9499156FE273E085ED98E00E94AD1589
:1045F0006091F8047091F90485ED98E00E947115BE
:1046000067E373E085ED98E00E94AD156AE17AE01A
:1046100085ED98E00E94991560E080E00E94851485
:104620006FE373E080EF99E00E94AD1560E083E0F6
:104630000E94851460E27AE080EF99E00E940E0209
:1046400061E080E00E94851463E473E080EF99E00C
:104650000E94AD1568E873E180E090E00E942C04B0
:1046600060E085E00E947B030E947A148091F80448
:104670009091F90460E0803591050CF0DEC080E097
:104680000E9485146DE473E080EF99E00E94AD15FF
:1046900060E084E00E9485146091F8047091F90450
:1046A00080EF99E00E94E61460E087E00E948514A4
:1046B00062E573E080EF99E00E94AD1568EB7BE066
:1046C00080E090E00E942C0461E080E00E9485146C
:1046D00064E573E080EF99E00E94AD1568EE73E049
:1046E00080E090E00E942C0461E084E00E947B0363
:1046F0006AE570E08AEE99E00E946A0460ED77E076
:1047000080E090E00E942C0460E084E00E947B0343
:1047100060ED77E080E090E00E942C040E947A1423
:1047200061E080E00E94851460E673E080EF99E02C
:104730000E94AD15CE0101960E94CF1400CF2AEA47
:1047400031E040E050E068E080E899E00E94330802
:1047500082FF2AC0F0928B0980918B09C12CD12C49
:104760007601823029F4C12CD12CE12C90E4F92E71
:1047700020E030E0A90167E380E899E00E94330877
:10478000A701960169E280E899E00E9433088093CE
:104790008A098823D1F00E945E04601B710B613D81
:1047A000774030F388E047CE24E0F22E0E94FC07E9
:1047B00080938A09FA94F110F9CF8A3A11F082E0D5
:1047C0003ACE82E080938B09C7CF80918B098230EB
:1047D000D1F420E030E0A9016AE380E899E00E948A
:1047E0003308882311F086E026CE0E94FC07807CE7
:1047F000803C19F483E080938B090E94FC070E949F
:10480000FC070E94FC0780E899E00E94EA0780E527
:1048100080937E0910927F0981E00E94520A8823CA
:1048200029F08AEA99E00E94090D0BCE80E00E94EF
:10483000520A882309F405CEF4CF80E00E94851443
:104840006DE473E080EF99E00E94AD1560E084E0D4
:104850000E9485146091F8047091F90480EF99E04A
:104860000E94E61460E087E00E94851462E573E030
:1048700080EF99E00E94AD1568EE73E080E090E073
:104880000E942C0461E080E00E9485146EE673E0D3
:1048900080EF99E00E94AD1568EE73E080E090E053
:1048A0000E942C0461E085E00E947B036AE570E0D1
:1048B0008DEE99E00E946A0460ED77E080E090E080
:1048C0000E942C0460E085E021CF0A5F1F4FE016B4
:1048D000F10609F045C06CE773E085ED98E00E94B1
:1048E000851560E080E00E9485146FE373E080EF3F
:1048F00099E00E94AD1560E083E00E94851460E2BB
:104900007AE080EF99E00E940E0261E080E00E9470
:1049100085146CE873E080EF99E00E94AD1568EEB5
:1049200073E080E090E00E942C040E947A1461E021
:1049300080E00E9485146EE673E080EF99E00E94AB
:10494000AD1568EE73E080E090E00E942C0461E019
:1049500085E00E947B036AE570E08AEE99E0AACFC9
:10496000CE0101960E94CF1419CE88E398E00E94F0
:104970009302181619060CF096C161E084E00E94BB
:104980007B036AE570E08AEE99E00E946A0460EDBC
:1049900077E080E090E00E942C0470E060E08AEE16
:1049A00099E00E946A0488E398E00E949302181636
:1049B00019060CF0E5C441E06EEC72E0CE01019600
:1049C0000E94FF19CE0101960E94B5010E94061BAC
:1049D0000E94BC1488E398E00E9471020091FA04DE
:1049E0001091FB040F5F1F4F1093FB040093FA0418
:1049F000682F84E19AE00E9443160830110599F669
:104A00000CEF19E0B801CE0101960E949F16CE016D
:104A100001960E94AF15882309F40DC160E27AE087
:104A200088E398E00E94991569E173E088E398E0D3
:104A30000E94851567E273E088E398E00E94AD1557
:104A400060E27AE088E398E00E9499156FE273E0F3
:104A500088E398E00E94AD156091F8047091F90424
:104A600088E398E00E94711567E373E088E398E0BB
:104A70000E94AD156AE17AE088E398E00E949915FA
:104A800060E080E00E9485146FE373E080EF99E0BE
:104A90000E94AD1560E083E00E94851460E27AE038
:104AA00080EF99E00E940E0261E080E00E94851490
:104AB00063E473E080EF99E00E94AD1568E873E16C
:104AC00080E090E00E942C0460E084E00E947B0380
:104AD0000E947A148091F8049091F90460E0803586
:104AE00091050CF060C080E00E9485146DE473E0D5
:104AF00080EF99E00E94AD1560E084E00E9485148B
:104B00006091F8047091F90480EF99E00E94E61436
:104B100060E087E00E94851462E573E080EF99E031
:104B20000E94AD1568EB7BE080E090E00E942C04D1
:104B300061E080E00E94851464E573E080EF99E015
:104B40000E94AD1568EE73E080E090E00E942C04B6
:104B500061E083E00E947B036AE570E087EE99E004
:104B60000E946A0460ED77E080E090E00E942C04EF
:104B700060E083E00E947B0360ED77E080E090E0FE
:104B80000E942C040E947A1461E080E00E94851447
:104B900060E673E080EF99E00E94AD15CE010196CA
:104BA0000E94CF1400CF80E00E9485146DE473E072
:104BB00080EF99E00E94AD1560E084E00E948514CA
:104BC0006091F8047091F90480EF99E00E94E61476
:104BD00060E087E00E94851462E573E080EF99E071
:104BE0000E94AD1568EE73E080E090E00E942C0416
:104BF00061E080E00E9485146EE673E080EF99E04A
:104C00000E94AD1568EE73E080E090E00E942C04F5
:104C100061E084E00E947B036AE570E08AEE99E03F
:104C20000E946A0460ED77E080E090E00E942C042E
:104C300060E084E09FCF0A5F1F4F8AE00A311807C7
:104C400069F56CE773E088E398E00E94851560E001
:104C500080E00E9485146FE373E080EF99E00E948A
:104C6000AD1560E083E00E94851460E27AE080EF99
:104C700099E00E940E0261E080E00E9485146CE8D9
:104C800073E080EF99E00E94AD1568EE73E080E07C
:104C900090E00E942C040E947A14AACFCE010196C3
:104CA0000E94CF14AFCE8BE997E00E9493021816B2
:104CB00019060CF0AFC161E083E00E947B036AE556
:104CC00070E087EE99E00E946A0460ED77E080E092
:104CD00090E00E942C0470E060E087EE99E00E9472
:104CE0006A048BE997E00E949302181619060CF0EB
:104CF00047C341E067EE72E0CE0101960E94FF19C2
:104D0000CE0101960E94B5010E94061B0E94BC14B0
:104D10008BE997E00E9471020091FA041091FB0464
:104D20000F5F1F4F1093FB040093FA04682F84E178
:104D30009AE00E9443160830110599F60CEF19E02D
:104D4000B801CE0101960E949F16CE0101960E94E5
:104D5000AF15882309F40DC160E27AE08BE997E092
:104D60000E94991569E173E08BE997E00E9485152F
:104D700067E273E08BE997E00E94AD1560E27AE0AC
:104D80008BE997E00E9499156FE273E08BE997E059
:104D90000E94AD156091F8047091F9048BE997E0D9
:104DA0000E94711567E373E08BE997E00E94AD15EF
:104DB0006AE17AE08BE997E00E94991560E080E073
:104DC0000E9485146FE373E080EF99E00E94AD15B7
:104DD00060E083E00E94851460E27AE080EF99E071
:104DE0000E940E0261E080E00E94851463E473E09B
:104DF00080EF99E00E94AD1568E873E180E090E0F3
:104E00000E942C0460E083E00E947B030E947A14DD
:104E10008091F8049091F90460E0803591050CF0E0
:104E200060C080E00E9485146DE473E080EF99E03B
:104E30000E94AD1560E084E00E9485146091F80442
:104E40007091F90480EF99E00E94E61460E087E039
:104E50000E94851462E573E080EF99E00E94AD1531
:104E600068EB7BE080E090E00E942C0461E080E051
:104E70000E94851464E573E080EF99E00E94AD150F
:104E800068EE73E080E090E00E942C0461E082E034
:104E90000E947B036AE570E084EE99E00E946A0458
:104EA00060ED77E080E090E00E942C0460E082E01A
:104EB0000E947B0360ED77E080E090E00E942C048C
:104EC0000E947A1461E080E00E94851460E673E03D
:104ED00080EF99E00E94AD15CE0101960E94CF149B
:104EE00000CF80E00E9485146DE473E080EF99E0CC
:104EF0000E94AD1560E084E00E9485146091F80482
:104F00007091F90480EF99E00E94E61460E087E078
:104F10000E94851462E573E080EF99E00E94AD1570
:104F200068EE73E080E090E00E942C0461E080E095
:104F30000E9485146EE673E080EF99E00E94AD1543
:104F400068EE73E080E090E00E942C0461E083E072
:104F50000E947B036AE570E087EE99E00E946A0494
:104F600060ED77E080E090E00E942C0460E083E058
:104F70009FCF0A5F1F4F8AE00A31180709F045C02A
:104F80006CE773E08BE997E00E94851560E080E0B4
:104F90000E9485146FE373E080EF99E00E94AD15E5
:104FA00060E083E00E94851460E27AE080EF99E09F
:104FB0000E940E0261E080E00E9485146CE873E0BC
:104FC00080EF99E00E94AD1568EE73E080E090E01C
:104FD0000E942C040E947A1461E080E00E948514F3
:104FE0006EE673E080EF99E00E94AD1568EE73E025
:104FF00080E090E00E942C0461E083E00E947B034B
:105000006AE570E08AEE99E0A9CFCE0101960E9490
:10501000CF1496CE8EEF96E00E94930218161906D2
:105020000CF0AEC161E082E00E947B036AE570E0B3
:1050300084EE99E00E946A0460ED77E080E090E001
:105040000E942C0470E060E084EE99E00E946A0403
:105050008EEF96E00E949302181619060CF090C18C
:1050600041E060E073E0CE0101960E94FF19CE019D
:1050700001960E94B5010E94061B0E94BC148EEF8F
:1050800096E00E9471020091FA041091FB040F5FF8
:105090001F4F1093FB040093FA04682F84E19AE0F9
:1050A0000E9443160830110599F60CEF19E0B8017B
:1050B000CE0101960E949F16CE0101960E94AF1567
:1050C000882309F40DC160E27AE08EEF96E00E9439
:1050D000991569E173E08EEF96E00E94851567E20D
:1050E00073E08EEF96E00E94AD1560E27AE08EEFFD
:1050F00096E00E9499156FE273E08EEF96E00E94B1
:10510000AD156091F8047091F9048EEF96E00E945D
:10511000711567E373E08EEF96E00E94AD156AE1CA
:105120007AE08EEF96E00E94991560E080E00E94A0
:1051300085146FE373E080EF99E00E94AD1560E0A5
:1051400083E00E94851460E27AE080EF99E00E949B
:105150000E0261E080E00E94851463E473E080EF5A
:1051600099E00E94AD1568E873E180E090E00E944C
:105170002C0460E082E00E947B030E947A148091FC
:10518000F8049091F90460E0803591050CF060C05E
:1051900080E00E9485146DE473E080EF99E00E9446
:1051A000AD1560E084E00E9485146091F804709170
:1051B000F90480EF99E00E94E61460E087E00E9425
:1051C000851462E573E080EF99E00E94AD1568EB0D
:1051D0007BE080E090E00E942C0461E080E00E948F
:1051E000851464E573E080EF99E00E94AD1568EEE8
:1051F00073E080E090E00E942C0461E085E00E9472
:105200007B036AE570E08DEE99E00E946A0460ED30
:1052100077E080E090E00E942C0460E085E00E944E
:105220007B0360ED77E080E090E00E942C040E9418
:105230007A1461E080E00E94851460E673E080EFFC
:1052400099E00E94AD15CE0101960E94CF1400CFC7
:1052500080E00E9485146DE473E080EF99E00E9485
:10526000AD1560E084E00E9485146091F8047091AF
:10527000F90480EF99E00E94E61460E087E00E9464
:10528000851462E573E080EF99E00E94AD1568EE49
:1052900073E080E090E00E942C0461E080E00E94D6
:1052A00085146EE673E080EF99E00E94AD1568EE1C
:1052B00073E080E090E00E942C0461E082E00E94B4
:1052C0007B036AE570E084EE99E00E946A0460ED79
:1052D00077E080E090E00E942C0460E082E09FCFC5
:1052E0000A5F1F4FE016F10609F045C06CE773E056
:1052F0008EEF96E00E94851560E080E00E948514A4
:105300006FE373E080EF99E00E94AD1560E083E009
:105310000E94851460E27AE080EF99E00E940E021C
:1053200061E080E00E9485146CE873E080EF99E012
:105330000E94AD1568EE73E080E090E00E942C04BE
:105340000E947A1461E080E00E9485146EE673E0AA
:1053500080EF99E00E94AD1568EE73E080E090E088
:105360000E942C0461E082E00E947B036AE570E009
:105370008AEE99E0AACFCE0101960E94CF1497CE73
:105380001092FB041092FA0450E040E062E672E0F2
:1053900080E29AE00E94741664EF71E080E090E091
:1053A0000E942C040E945603ACC88EE09AE00E9432
:1053B000CF1488E09AE00E94CF1482E09AE00E9425
:1053C000CF148CEF99E00E94CF1484E19AE00E9400
:1053D000CF148AE19AE00E94CF1480E29AE00E9402
:1053E000CF1486E29AE00E94CF148CE29AE00C94EB
:1053F000CF141F93FC0199278827BC01E8941191D1
:105400001032E9F3193010F01E30C8F31B3251F09E
:105410001D3249F4689406C00E94202A610F711D54
:10542000811D911D119110531A30B0F33EF49095E7
:105430008095709561957F4F8F4F9F4F1F91089575
:10544000592F482F372F262F660F771F881F991F38
:10545000660F771F881F991F620F731F841F951F88
:10546000660F771F881F991F0895052E97FB1EF45E
:1054700000940E944C2A57FD07D00E94672A07FC1F
:1054800003D04EF40C944C2A5095409530952195BC
:105490003F4F4F4F5F4F0895909580957095619560
:1054A0007F4F8F4F9F4F08950E94892AA59F900D8F
:1054B000B49F900DA49F800D911D11240895B7FFF6
:1054C0000C94542A0E94542A821B930B0895A1E243
:1054D0001A2EAA1BBB1BFD010DC0AA1FBB1FEE1F6E
:1054E000FF1FA217B307E407F50720F0A21BB30BB9
:1054F000E40BF50B661F771F881F991F1A9469F735
:1055000060957095809590959B01AC01BD01CF0190
:105510000895A29FB001B39FC001A39F700D811D8C
:105520001124911DB29F700D811D1124911D0895AC
:10553000991B79E004C0991F961708F0961B881FE5
:105540007A95C9F780950895EE0FFF1F881F8BBFCE
:105550000790F691E02D19940F931F93CF93DF934B
:105560008230910510F482E090E0E091340AF091ED
:10557000350A30E020E0B0E0A0E0309799F4211542
:10558000310509F44AC0281B390B24303105D8F500
:105590008A819B816115710589F1FB019383828367
:1055A000FE0111C0408151810281138148175907C2
:1055B000E0F04817590799F4109761F012960C9390
:1055C000129713961C933296CF01DF91CF911F91C2
:1055D0000F9108950093340A1093350AF4CF2115E2
:1055E000310551F04217530738F0A901DB019A0148
:1055F000BD01DF01F801C1CFEF01F9CF9093350A6A
:105600008093340ACDCFFE01E20FF31F8193919373
:105610002250310939832883D7CF2091320A309123
:10562000330A232B41F42091060230910702309374
:10563000330A2093320A2091040230910502211589
:10564000310541F42DB73EB740910802509109024F
:10565000241B350BE091320AF091330AE217F3076D
:10566000A0F42E1B3F0B2817390778F0AC014E5FD2
:105670005F4F2417350748F04E0F5F1F5093330AD2
:105680004093320A819391939FCFF0E0E0E09CCF6A
:10569000CF93DF930097E9F0FC01329713821282D7
:1056A000A091340AB091350AED0130E020E0109766
:1056B000A1F420813181820F931F2091320A309111
:1056C000330A2817390709F061C0F093330AE093D1
:1056D000320ADF91CF910895EA01CE17DF07E8F58E
:1056E0004A815B819E0141155105B1F7E901FB83B8
:1056F000EA8349915991C40FD51FEC17FD0761F456
:10570000808191810296840F951FE9019983888396
:10571000828193819B838A83F0E0E0E012968D91F1
:105720009C9113970097B9F52D913C911197CD015C
:105730000296820F931F2091320A3091330A281764
:10574000390739F6309751F51092350A1092340A1C
:10575000B093330AA093320ABCCFD383C283408173
:105760005181840F951FC817D90761F44E5F5F4FB1
:1057700088819981480F591F518340838A819B8179
:10578000938382832115310509F0B0CFF093350A58
:10579000E093340A9ECFFD01DC01C0CF1382128258
:1057A000D7CF4F925F926F927F928F929F92AF92DC
:1057B000BF92CF92DF92EF92FF920F931F93CF93FE
:1057C000DF938C01009799F4CB01DF91CF911F916A
:1057D0000F91FF90EF90DF90CF90BF90AF909F9090
:1057E0008F907F906F905F904F900C94AC2AFC014B
:1057F000E60FF71F9C0122503109E217F30708F466
:10580000AEC0D901CD91DC911197C617D70720F111
:10581000C530D10578F0CE0104978617970750F070
:10582000C61BD70B2297C193D1936D937C93CF0165
:105830000E94482BC801DF91CF911F910F91FF90DB
:10584000EF90DF90CF90BF90AF909F908F907F9020
:105850006F905F904F9008955B01AC1ABD0A4C01A8
:105860008C0E9D1EA091340AB091350A512C412C0A
:10587000F12CE12C109731F58091320A9091330A86
:105880008815990509F05CC04616570608F058C0FF
:105890008091040290910502009741F48DB79EB764
:1058A0004091080250910902841B950BE817F907F3
:1058B00008F055C0F093330AE093320AF90171837E
:1058C0006083B8CF8D919C91119712966C9012972E
:1058D00013967C901397A815B90559F56C0142E011
:1058E000C40ED11CCA14DB0420F1AC014A195B09B7
:1058F000DA011296159780F0628273825183408399
:10590000D9016D937C93E114F10471F0D7011396E2
:10591000FC93EE9312978ECF22968C0F9D1FF90168
:1059200091838083F301EFCFF093350AE093340A3B
:1059300081CF4816590608F42C017D01D3019ACF76
:10594000CB010E94AC2A7C01009749F0AE01B8015E
:105950000E94BF2CC8010E94482B87016BCF10E02A
:1059600000E068CFFB01DC0104C08D91019080193B
:1059700021F441505040C8F7881B990B0895FB0152
:10598000DC0102C001900D9241505040D8F70895BB
:10599000FC018191861721F08823D9F79927089572
:1059A0003197CF010895FB01DC018D9101908019A1
:1059B0000110D9F3990B0895FB01DC0101900D92C0
:1059C0000020E1F70895FB01DC014150504048F010
:1059D00001900D920020C9F701C01D924150504026
:1059E000E0F7089511E0CAE5D1E000E006C0802F9D
:1059F000FE010E94A42A2196011DCB35D10780E02B
:085A00000807A9F7F894FFCF95
:105A0800FFFFFFFF0000360A80000000400014007E
:105A1800540000000000E9021C02620236039302EF
:105A28007102850200000000CB069E06E10774069D
:105A38009706840675060000000031111C022B0F22
:105A48000D0200000000E811CB11BB1192119B114F
:105A58001D13271300000000B6141C02E1070D02F5
:105A68000D0A002F004142433132333435004241A0
:105A78004331323334350043414231323334350017
:105A8800414141313233343500534C4F5420504951
:105A98004E203100534C4F542050494E2032005371
:105AA8004C4F542050494E203300534C4F542050F3
:105AB800494E203400736C6F745F312E7478740013
:105AC80041424331323334357C35307C3100736C9C
